:020000040800F2
:10000000084C0020990100089F1A00087118000888
:100010009D1A000851020008491D00080000000058
:1000200000000000000000000000000001010008C6
:10003000D90200080000000045010008D11A00089C
:10004000B3010008B3010008B3010008B3010008C0
:10005000B3010008B3010008B3010008B3010008B0
:10006000B3010008B3010008B30100089D020008B5
:10007000B3010008B3010008A9020008B502000896
:10008000C1020008CD020008B3010008B301000856
:10009000B3010008B3010008B3010008B301000870
:1000A000B3010008B3010008B3010008B301000860
:1000B000B3010008B3010008B3010008B301000850
:1000C000B3010008B3010008B3010008B301000840
:1000D000B30100083D1D0008B3010008B30100088A
:1000E000B3010008B3010008B3010008DFF80CD029
:1000F00000F076F800480047891D0008084C0020F1
:10010000224B19680868B0E8F00F80F30988BFF344
:100110006F8F4FF0000080F311884EF00D0E704786
:100120000000000006480068006880F3088862B696
:1001300061B6BFF34F8FBFF36F8F00DF00BF00BF0B
:1001400008ED00E0EFF30980BFF36F8F0F4B1A68E3
:1001500020E9F00F106008B54FF0BF0080F3118860
:10016000BFF34F8FBFF36F8F02F08EF94FF0000097
:1001700080F31188BDE8084019680868B0E8F00FFE
:1001800080F30988BFF36F8F704700BF0000002025
:10019000EFF3058070470000064880470648004797
:1001A000FEE7FEE7FEE7FEE7FEE7FEE7FEE7FEE727
:1001B000FEE7FEE7651B0008ED000008D2B201E093
:1001C00000F8012B491EFBD270470022F6E710B55C
:1001D00013460A4604461946FFF7F0FF204610BDB5
:1001E000064C074D06E0E06840F0010394E8070084
:1001F00098471034AC42F6D3FFF77CFF7427000811
:100200009427000870B5044600688168C943C9078F
:100210001CD1816821F00101816000F0D5FB054609
:100220000FE000BF00F0D0FB401B022809D9A06AF4
:1002300040F01000A062E06A40F00100E06201209E
:1002400070BD20688068C043C007EBD0002070BD3F
:10025000FEE7000010B590B00120009000040224D9
:100260000190CDE9074000010990684600F0CAFE00
:100270000720CDE90A0400200C900D9001210AA866
:1002800000F0D4FD042001F013F90349302081F877
:10029000140D10B010BD00000FE000E0014800F0A8
:1002A000BDB90000B0460020014800F0B7B9000019
:1002B0007C470020014800F0B1B90000C047002091
:1002C000014800F0ABB9000038470020014800F0B9
:1002D000A5B90000F4460020704772B6FEE70000A2
:1002E000F8B50024009490F824202546012A12D065
:1002F000012280F824204A681F23072A0DD20668AD
:10030000776B521E02EB820293409F430B6893402F
:100310001F43776319E00220F8BD06680D2A0AD250
:10032000376BD21F02EB820293409F430B689340CE
:100330001F43376309E0F76A0D3A02EB82029340EC
:100340009F430B6893401F43F7620A6807230668C0
:100350000A2A0AD3F7680A3A02EB420293409F4303
:100360008B6893401F43F76008E0376902EB420255
:1003700093409F438B6893401F4337610A68102A5C
:1003800001D0112A20D1124B02689A4217D19368EA
:100390001B0219D4936843F4000393600968102981
:1003A00012D10C490C4A0968B1FBF2F101EB810151
:1003B000490000E0491E00910029FBD104E0816A58
:1003C00041F020018162012480F824502046F8BDCC
:1003D000002401408400002040420F002DE9F0413C
:1003E0004FF0000704003D467ED0A06A002628B9E1
:1003F000E66284F82460204600F07EF82046FFF78D
:1004000001FFA16A01F01001014304D0A06A40F08D
:100410001000A06268E0A16A21F4885141F0020155
:10042000A1626268E169237B0A4347EA43010A4308
:10043000A1684FF48077B94208D0012906D0002185
:1004400094F814C0BCF1010F02D00AE03946F7E776
:10045000F3B1A36A43F02003A362E36A43F001030C
:10046000E3622368D3F804C02CF4694C4CEA010C15
:10047000C3F804C023689968DFF870C001EA0C0172
:1004800011439960A168B9420BD0012909D00CE051
:10049000DFF85CC0A3690CEB43330B4343F400610A
:1004A000DFE7218A0D05A5F580152168CB6A23F4C5
:1004B00070032B43CB62216889680E4B194091422F
:1004C00008D1E662A16A21F0020141F00101A162B6
:1004D000BDE8F081A06A20F0020040F01000A062A8
:1004E000E06A40F00100E0620120F1E7FDF7E1FF82
:1004F00000E0FFFFFE0E1FFF70B586B00025064628
:1005000000950195029503950068194988422DD1FF
:100510001849886940F400708861886900F40070A7
:100520000490886940F0040088618869694600F099
:100530000400049002200090032001900E4800F077
:1005400045F90F4C0D48C4E900058020C4E902506C
:10055000400020618000C4E905052046E56100F007
:1005600007F908B1FFF7B9FE3462666206B070BDE4
:100570000024014000100240000801400800024031
:10058000B046002010B590F821100024022903D0B5
:100590000421816301243DE001680A6822F00E0213
:1005A0000A6001680A6822F001020A601A4A0168BA
:1005B000914201D1012121E0174A1432914201D127
:1005C00010211BE0144A2832914201D1891515E00F
:1005D000114A3C32914201D189140FE00E4A503247
:1005E000914202D14FF4803108E00B4A64329142CB
:1005F00002D14FF4801101E04FF08071064A083AB1
:100600005160012180F82110002180F82010416BF9
:1006100001B18847204610BD080002402DE9F05F77
:10062000C16B0C6801680B68D0F840C0042202FA64
:100630000CF2494DDFF824A1494E4A4FDFF828B1AA
:10064000DFF828E122422CD05A072AD50A68920600
:1006500003D40A6822F004020A600168A94201D1A9
:10066000042219E0514501D1402215E0B14202D1E6
:100670004FF4806210E0B94202D14FF480420BE0A7
:10068000594502D14FF4802206E0714502D14FF462
:10069000800201E04FF080622F4908394A60C16A48
:1006A0003BE04FF0020808FA0CF818EA040F4FF08C
:1006B00000094FF0010235D05FEA837832D50B682C
:1006C0009B0605D40B6823F00A030B6080F82120F9
:1006D0000168A94201D1022219E0514501D120222D
:1006E00015E0B14202D14FF4007210E0B94202D1DC
:1006F0004FF400520BE0594502D14FF4003206E0AE
:10070000714502D14FF4001201E04FF0007212491E
:1007100008394A6080F82090816A00291AD0BDE823
:10072000F05F0847082505FA0CF5254212D01B0793
:1007300010D50B6823F00E030B6090F84010C36BCC
:1007400002FA01F15960826380F8212080F820903C
:10075000016BE2E7BDE8F09F080002401C00024088
:100760003000024044000240580002406C00024049
:1007700030B528B308C8134914221944B1FBF2F16B
:100780008900C16310498163022141771A6843F6E9
:10079000F0718A43D0E900142143D0E902452C438B
:1007A000214304692143446921438469214311435E
:1007B000196000214163012242770177084630BD6C
:1007C000012030BDF8FFFDBF000002402DE9F84FC9
:1007D000DFF8B891002409F1040A0AF1040B23465A
:1007E0000F270BF1040EC9E00125A5402A40AA42BB
:1007F0007DD1674ED1F804C0ACEB0608B44532D0C9
:1008000014DCBCF1030F3AD009DCBCF1000F2AD094
:10081000BCF1010F1CD0BCF1020F31D11DE0BCF1C5
:10082000110F17D0BCF1120F2AD119E0B8F5881FAB
:1008300019D006DCB8F5803F15D0B8F5801F1FD160
:1008400011E0B8F5001F0ED0B8F5041F18D10AE06A
:10085000CB6815E0CB681B1D12E0CB6808330FE0B6
:10086000CB680C330CE08B682BB1012B4FF00803E5
:1008700003D0456104E0042302E0056100E00023A9
:10088000FF2A01D8064601E000F104064FEA84057C
:1008900001D9A5F12005D6F8008007FA05FC28EA61
:1008A0000C0803FA05F548EA0508C6F800804D680B
:1008B000ED0062D5374DAE6946F00106AE61AD6917
:1008C00024F0030605F001050095334D06EB050CF9
:1008D000DCF80850A607360F07FA06F825EA0805DF
:1008E000DFF8B880404503D14FF0000817E044E03E
:1008F000DFF8AC80404502D14FF001080FE0DFF88F
:10090000A480404502D14FF0020808E0DFF898804B
:10091000404502D14FF0030801E04FF0040808FA07
:1009200006F848EA0508CCF808804D68D9F8006058
:10093000ED034D4601D5164300E096432E604D6809
:10094000DAF80060AD03554601D5164300E0964342
:100950002E604D68DBF80060ED025D4601D5164360
:1009600000E096432E604D68DEF80060AD027546EB
:1009700001D5164300E096432E60641C0D682A469C
:10098000E5407FF431AFBDE8F88F0000000401407E
:10099000000011100010024000000140000801405A
:1009A000000C01400010014000140140C26821EA1F
:1009B00002030A4043EA0241016170470AB1016142
:1009C00070470904FBE70000014880687047000099
:1009D0007800002070B5040025D094F83D00002573
:1009E00020B984F83C50204600F0B8F8242084F860
:1009F0003D002068016821F0010101602068016864
:100A000041F4004101602068016821F40041016067
:100A100000F0A2FA4D4A6168914201D84C4900E0C9
:100A20004C49884201D2012070BD4B492368B0FB7C
:100A3000F1F15E6826F03F060E435E606368934204
:100A400006D94FF4967359434FF47A73B1FBF3F11F
:100A50002368491C1E6A26F03F063143196261680B
:100A6000914210D84900401EB0FBF1F2521CC2F373
:100A70000B02042A01D2042022E0B0FBF1F0401C5A
:100A8000C0F30B001CE0A268F2B301EBC10303EB5F
:100A90000116431EB3FBF6F35B1C43F480431B05B6
:100AA00049D092B301EBC10202EB0111401EB0FB31
:100AB000F1F0401CC0F30B0040F4804040F40040D3
:100AC0002168CA694CF6FF739A431043C861D4E9A0
:100AD000071001432068026822F0C0021143016040
:100AE000D4E9030101432068826848F2FF339A4346
:100AF00011438160D4E9050108432168CA6822F0E6
:100B0000FF021043C86001E00EE016E020680168B3
:100B100041F0010101602564202084F83D00256337
:100B200084F83E50002070BD01EB4106431EB3FB2C
:100B3000F6F35B1CB3E70120C2E701EB4101401E65
:100B4000B0FBF1F0401CC0F30B00B7E7A08601003A
:100B500080841E0000093D0040420F002DE9F04155
:100B600086B0002406460094019402940394006821
:100B70002549884244D1254DA86940F00800A86164
:100B8000A869694600F008000490C0200090122077
:100B90000190032003901E48FFF718FEE86940F417
:100BA0000010E861E8691C4D00F400100490194839
:100BB000C5E900044FF08008C5E902482C614FF4F4
:100BC00000576C61C5E906472846FFF7D1FD08B11B
:100BD000FFF783FBB5636E620E48104D143801C5F4
:100BE0001020A5E811010D4845F810496C61C5E9D0
:100BF0000647FFF7BDFD08B1FFF76FFB75636E6237
:100C000006B0BDE8F0810000005400400010024032
:100C1000000C014080000240F446002038470020CC
:100C2000074810B5016841F010010160032000F091
:100C300075F8002000F006F800F024F8002010BD40
:100C40000020024070B50D4D04464FF47A712878AB
:100C5000B1FBF0F00A490968B1FBF0F000F034FC98
:100C600048B9102C07D200222146501E00F036F859
:100C700000206C6070BD012070BD00007800002075
:100C8000840000200C4808B5816941F001018161B0
:100C9000816901F001010091C16941F08051C16198
:100CA000C06900F0805000900448416821F0E06184
:100CB00041F08061416008BD001002400000014029
:100CC000002809DB00F01F0201219140400980004B
:100CD00000F1E020C0F8001170470000F0B40E4BA6
:100CE0001B680C46C3F30223C3F10705042D00D98A
:100CF0000425191D072901D2002300E0DB1E01266F
:100D000006FA05F1491E214099409E40761E164084
:100D10003143F0BC01F019B80CED00E0064900F0D9
:100D2000070208684FF6FF03184040EA0220034A12
:100D300010430860704700000CED00E00000FA0569
:100D40002DE9F84305460078354CC00754D0E069DA
:100D50000026C00008D4E06940F08050E061E069FE
:100D6000012600F0805000902E480168C90512D479
:100D70000168804641F480710160FFF725FE074657
:100D800005E000BFFFF720FEC01B642823D8D8F879
:100D90000000C005F6D5206A10F4407021D0A98863
:100DA00001F4407181421CD0206A1F49012220F4C5
:100DB00040700A6000220A602062C00711D0FFF76D
:100DC00003FE074641F2883808E000BFFFF7FCFD4C
:100DD000C11B414502D90320BDE8F883206A800782
:100DE000F4D5206A696820F44070084320621EB17F
:100DF000E06920F08050E0612878800705D56068C0
:100E0000A96820F44040084360602878C00605D5F2
:100E10006068E96820F48000084360600020DBE738
:100E20000010024000700040400442422DE9F047AB
:100E30000F46050061D0434E306800F00700B8420D
:100E400009D2306820F0070038433060306800F085
:100E50000700B84251D128683B4C810712D54007A2
:100E600003D5606840F4E06060602878000703D52F
:100E7000606840F4605060606068A96820F0F0002D
:100E8000084360602878C00728D06868012810D01F
:100E90002168022810D0890700292EDA616821F024
:100EA000030101436160FFF78FFD804641F28839FD
:100EB0000DE021688903EFE78901EDE7FFF784FD85
:100EC000A0EB0801494502D90320BDE8F08760681E
:100ED000696800F00C00B0EB810FEFD1306800F0D2
:100EE0000700B8420BD9306820F007003843306063
:100EF000306800F00700B84201D00120E5E728780B
:100F0000400705D56068E96820F4E0600843606048
:100F10002878000706D56068296920F4605040EA07
:100F2000C100606000F038F86168084AC1F303113D
:100F3000515CC8400649086006480068FFF782FE19
:100F40000020C2E700200240001002405C27000899
:100F5000840000207C00002004480549006849689E
:100F6000044AC1F30221515CC8407047840000204C
:100F7000001002406C2700080448054900684968D1
:100F8000044AC1F3C221515CC8407047840000206C
:100F9000001002406C27000812A185B00FC98DE82F
:100FA0000F0014A0144A006804905168134801F01F
:100FB0000C03042B10D0082B0ED1C1F38343C903BB
:100FC0001DF803000AD5516804AAC1F34041515CE1
:100FD0000A4A5043B0FBF1F005B070470849484356
:100FE000FAE7000002030405060708090A0B0C0DC6
:100FF0000E0F1010010200000010024000127A00D3
:1010000000093D002DE9F84F040070D02078C04D54
:10101000C00749D06868C0F38100012807D068681C
:10102000C0F38100022809D16868C00306D528688A
:10103000800339D560680028E7D035E06068B0F5F6
:10104000803F0BD010B1B0F5A02F11D0286820F44C
:1010500080302860286820F4802002E0286840F46E
:1010600080302860606890B1FFF7AEFC06460AE069
:10107000286840F480202860F0E700BFFFF7A4FC58
:10108000801B642873D828688003F7D50CE0FFF72D
:101090009BFC064605E000BFFFF796FC801B64281A
:1010A000F0D828688003F7D420789A4E80074FF054
:1010B00001094FF0000839D5686810F00C0F07D00F
:1010C0006868C0F38100022809D16868C00306D4AB
:1010D0002868800714D52069012808D110E020690C
:1010E000B0B1C6F80090FFF76FFC074605E00AE1D3
:1010F000FFF76AFCC01B0228C4D828688007F7D510
:101100002868616920F0F80040EAC10028600DE01D
:10111000C6F80080FFF758FC074604E0FFF754FCD0
:10112000C01B022823D828688007F7D4207800073E
:101130002CD57948A169D9B1C0F80090FFF744FCDB
:10114000074604E0FFF740FCC01B02280FD8686A7E
:101150008007F7D571484FF4FA510068B0FBF1F001
:10116000009000BF0098411E0091FAD20EE080E08E
:10117000C0F80080FFF728FC074604E0FFF724FCD6
:10118000C01B022875D8686A8007F7D4207840070A
:1011900060D5E8690027C00008D4E86940F08050B5
:1011A000E861E869012700F0805000905C48016820
:1011B000C90513D40168834641F480710160FFF7CB
:1011C00003FC824606E000BFFFF7FEFBA0EB0A002F
:1011D00064284ED8DBF80000C005F5D5E06801288A
:1011E0000AD008B1052813D0286A20F0010028622F
:1011F000286A20F0040002E0286A40F0010028621A
:10120000E06841F2883B98B1FFF7DEFB82460BE0D5
:10121000286A40F004002862EEE700BFFFF7D4FB25
:10122000A0EB0A0159455AD8286A8007F6D50CE088
:10123000FFF7CAFB824605E0FFF7C6FBA0EB0A01F9
:1012400059454CD8286A8007F6D41FB1E86920F0C8
:101250008050E861E06988B36968C1F381010229BF
:1012600044D00228C6F8608004D0FFF7ADFB0446E6
:1012700038E034E0FFF7A8FB074604E0FFF7A4FBE3
:10128000C01B02282BD828688001F7D4206AB0F54B
:10129000803F05D16868A16820F400300843686089
:1012A000D4E908010843696821F4741108436860AF
:1012B000C6F86090FFF788FB044606E025E000BF13
:1012C000FFF782FB001B022809D828688001F7D5A8
:1012D0001BE000BFFFF778FB001B022802D90320A8
:1012E000BDE8F88F28688001F4D40EE00128F7D01B
:1012F0006868226A00F48031914204D1616A00F486
:101300007010884201D00120EAE70020E8E70000E1
:10131000001002400000424280044242840000204B
:101320000070004070B5040009D0606A002540B12B
:1013300025616561A56294F8510040B10CE001207F
:1013400070BD6068B0F5827FF4D0E561F2E784F8A3
:101350005050204600F040F8022084F851002068E8
:10136000016821F040010160A088218900F48270A9
:1013700001F404410843A18901F400610843217C80
:1013800001F002010843217D01F001010843218B96
:1013900001F400710843217F01F03801084394F8FB
:1013A000201001F080010843218D01F40051084311
:1013B00021680860A069042101EA104021684860A2
:1013C0002068C16921F40061C1616565012084F86C
:1013D0005100002070BD00002DE9F04186B00024CE
:1013E0000646009401940294039400682A498842B6
:1013F0004FD12A48C16941F48041C161C16901F4FA
:1014000080410491816941F0080181618069244D26
:1014100000F0080004904FF420400090022001905A
:101420000320039069462846FFF7D0F94FF4804027
:10143000CDE90004694628460294FFF7C7F91A4D22
:1014400018484FF08008C5E90004C5E902482C613E
:101450004FF400576C61C5E906472846FFF788F945
:1014600008B1FEF73AFFF5646E620E480F4D143076
:1014700001C51020A5E811010C4845F810496C6120
:10148000C5E90647FFF774F908B1FEF726FFB56412
:101490006E6206B0BDE8F0810038004000100240E6
:1014A000000C0140440002407C470020C04700205F
:1014B0004FF0E0210428086903D020F004000861FF
:1014C000704740F00400FAE710B5401EB0F1807F8D
:1014D00001D3012010BD4FF0E02460610F2160179F
:1014E00000F033FC0020A06107202061002010BD27
:1014F0007047000070B5026804461068D1685369EF
:1015000010F00F0F53D003F0010501F490762E4335
:101510005FD0C20705D0CA0503D5E26B42F00102D5
:10152000E263420705D5DA0703D0E26B42F002021C
:10153000E263820705D5DA0703D0E26B42F00402CA
:10154000E263020707D501F020022A4303D0E26BD1
:1015500042F00802E263E26B002A34D0800604D530
:10156000880602D5204600F014FB20684069E16B34
:10157000C0F3801001F008010143204624D000F0A0
:10158000FAFA2068416949061AD5416921F04001FB
:101590004161606BA0B12D494163606BFEF7F2FFC2
:1015A000002810D0606B416BBDE87040084783068F
:1015B0000FD58B060DD52046BDE8704000F0E9BA86
:1015C0002046FFF795FF70BDFFF792FF0020E06314
:1015D00070BD03062BD50B0629D594F839002128B8
:1015E000F6D1A068B0F5805F01D12069B0B1206A62
:1015F000411C2162216800784860E08C401E000494
:10160000000CE084E4D12068C16821F08001C16051
:101610002068C16841F04001C16070BD206A008847
:10162000C0F308005060206A801C2062E5E7400695
:10163000F3D54806F1D5D168204621F04001D160AC
:10164000202184F8391000F012F970BD671B0008E2
:1016500070B5040004D094F83900002510B106E0FC
:10166000012070BD84F83850204600F023F8242073
:1016700084F839002068C16821F40051C160204617
:1016800000F0CEFA2068016921F4904101612068E0
:10169000416921F02A0141612068C16841F400518B
:1016A000C160E563202084F8390084F83A00002006
:1016B00070BD000030B585B0002400940194029400
:1016C00003940068184988422CD11848816941F474
:1016D00080418161816901F480410491816941F017
:1016E000040181618069124D00F0040004904FF400
:1016F0000070009002200190032003906946284664
:10170000FFF764F82815CDE90004694628460294DD
:10171000FFF75CF8002211462520FFF7DFFA2520AD
:10172000FFF7CEFA05B030BD00380140001002408E
:101730000008014090F83A30202B22D1F9B1F2B1E3
:1017400090F83830012B1CD081628285C28500213F
:10175000C163222280F83A2080F838100168CA68F4
:1017600042F48072CA6001684A6942F001024A612B
:101770000068C16841F02001C1600020704701206D
:10178000704702207047000010B500680849884281
:101790000CD1642301220749074800F00FF8BDE887
:1017A0001040012203490448FFF7C4BF10BD0000E8
:1017B000003801406C0000202C4600202DE9F84341
:1017C000044690F839001F4616460D4620284CD195
:1017D000C5B1BEB194F83800012846D0012084F884
:1017E00038004FF00008C4F83C80212084F839000C
:1017F000FFF7EAF8A6848146E684A068B0F5805F2A
:1018000003D004E00120BDE8F883206928B12E460A
:101810005FF0000584F838800EE00026FAE78021AA
:10182000204600F059FAA0B9AEB116F8010B2168B4
:101830004860E08C401EE084E08C4B464FF0000294
:1018400000970028EBD14FF04001204600F044FA09
:1018500030B10320D7E735F8020BC0F30800E6E704
:10186000202084F839000020CDE70220CBE7704724
:10187000FEE700003EB50024104800940194029455
:101880000D498460016001250573047505614FF4FD
:1018900060214460C161FEF7A1FD08B172B6FEE7A8
:1018A0000095CDE9015469460448FEF719FD00286A
:1018B00001D072B6FEE73EBD002401405045002035
:1018C000234808B5416941F001014161406921495E
:1018D00000F001000090204801604FF48041416019
:1018E000402181608021C1600021016141618161ED
:1018F000C161FEF73DFF08B172B6FEE70022114656
:101900000B20FFF7EBF90B20FFF7DAF90022114665
:101910000E20FFF7E3F90E20FFF7D2F9002211465F
:101920000F20FFF7DBF90F20FFF7CAF9002211465D
:101930001020FFF7D3F91020FFF7C2F9002211465B
:101940001120FFF7CBF9BDE808401120FFF7B8B927
:10195000001002401C0002406C4600202DE9F041BE
:1019600086B000242848009401940294039481696D
:1019700041F010018161816901F0100104918169D8
:1019800041F020018161816901F0200104918169A8
:1019900041F004018161816901F0040104918169D0
:1019A00041F0080181618069184F00F008004FF490
:1019B00000550490002229463846FEF7FFFFDFF865
:1019C0005080002204214046FEF7F8FF0126CDE9B1
:1019D0000056022569463846CDE90245FEF7F6FE77
:1019E0000420CDE9000669464046CDE90245FEF7F0
:1019F000EDFECDE90054694606480294FEF7E6FE86
:101A000006B0BDE8F0810000001002400010014067
:101A100000080140000C01400E4810B50C4901605F
:101A20004FF48271416000218160C1604FF4007207
:101A30000161C0E90512C1610162416281620A214E
:101A4000C162FFF76FFC002801D072B6FEE710BD3F
:101A500000380040D44500200F4810B50D49016002
:101A60004FF4E1314160002181600C22C160C0E986
:101A700004128161C161FFF7EBFD08B172B6FEE7A8
:101A8000002211462520FFF729F9BDE81040252046
:101A9000FFF716B9003801402C460020FEE7FEE7AC
:101AA0001CB500210420CDE900010B46802204A1D1
:101AB000064800F05FFDBDE81C4000F0A9BC000036
:101AC000546F67676C6550696E000000292200083A
:101AD00010B5BF2080F31188BFF34F8FBFF36F8F16
:101AE00000F074FD18B104494FF0805008600020E8
:101AF00080F3118810BD000004ED00E030B593B014
:101B000028216846FEF761FB14210AA8FEF75DFB59
:101B1000002401200F9402250490009510201194B8
:101B200005901094129407946846FFF76BFA08B179
:101B300072B6FEE70F20CDE90A040C940D94002143
:101B40000AA80E94FFF772F908B172B6FEE70FA863
:101B50000F951194FFF7F4F8002801D072B6FEE754
:101B600013B030BD704710B5406A0021C185C184F3
:101B7000FFF7BEFC10BD0168CA6822F49072CA600B
:101B800001684A6922F001024A61202180F83A1076
:101B9000704710B590F83A10222901D0022010BDEC
:101BA00082684FF480539A4201D1016921B1816A60
:101BB0009A421BD04AB10AE00268816A5268C2F3B5
:101BC00008020A80816A891C08E0026972B1026811
:101BD000526802F07F020A70816A491C8162C18DDD
:101BE000491E0904090CC18503D016E00268526839
:101BF000F1E70168CA6822F02002CA600168CA6879
:101C000022F48072CA6001684A6922F001024A61C6
:101C1000202180F83A10FFF7B7FD002010BD00002A
:101C200070B5044600680169E26821F4405111432F
:101C300001612169A0680843616908432168CA6895
:101C400041F20C639A430243CA6020684169A26969
:101C500021F44071114341611E492068884202D13C
:101C6000FFF78AF901E0FFF777F900EBC00101EB1C
:101C70000012606864218000B2FBF0F3B3FBF1F363
:101C80006FF018067343B2FBF0F5B2FBF0F605EB0C
:101C90008305322303EB0515B5FBF1F5B6FBF1F631
:101CA00005F0F00505EB0615B2FBF0F6B2FBF0F01F
:101CB000B0FBF1F06FF01802504306EB800003EB2D
:101CC0000010B0FBF1F0216800F00F00284488609C
:101CD00070BD0000003801402DE9F04198461746DC
:101CE0000E460446069D1DE0681C1BD02DB1FEF774
:101CF0006BFEA0EB0800A84214D92068C16821F44B
:101D0000D071C1602068416921F00101416120204A
:101D100084F8390084F83A00002084F83800032061
:101D2000BDE8F0812068006836EA000004D0002099
:101D3000B842D9D00020F3E70120F9E70148FFF7C6
:101D4000D9BB00002C460020FEE70907090E002839
:101D500004DB00F1E02080F80014704700F00F0071
:101D600000F1E02080F8141D704702E008C8121F3F
:101D700008C1002AFAD170477047002001E001C174
:101D8000121F002AFBD17047FEF74AFFFFF7B6FE8D
:101D9000174C184D20686860FEF75CFA2068A86050
:101DA000FFF7DCFDFFF78CFDFFF764FD13481249D8
:101DB0004FF4804201601249416000218160C0E916
:101DC000031241618161C1610162FEF703FE08B146
:101DD00072B6FEE7FFF720FEFFF73EFE074801223E
:101DE0000449AC30FFF7A6FCFFF75AFEFEE70000FF
:101DF000840000206C00002000540040804500203A
:101E0000A08601002DE9F041184C0F460546E66812
:101E10002068001D00F018FA38B9206890F82C10DE
:101E200001208840216981432161681C07D137B1B5
:101E30002168BDE8F0410E48091D00F03EBA206857
:101E40003544B5424560216805D2E06BBDE8F041FC
:101E5000091D00F01ABAA06B091D00F016FAA06A5D
:101E6000854200D2A562BDE8F0810000000000209C
:101E70003C0100202DE9F041054600F02BFA2E4CE4
:101E8000A068401CA06020682C4F10B1606940B36E
:101E90002DE02560A068012829D1002606EB8600E8
:101EA00007EB800000F0E3F9761C052EF6D32348FB
:101EB000643000F0DCF92148783000F0D8F91F4890
:101EC0008C3000F0D4F91D48A03000F0D0F91B4848
:101ED000B43000F0CCF919486430A0631430E063EA
:101EE00005E02068E96AC06A884200D82560606A17
:101EF000401C6062E96A0120226988401043206129
:101F000001EB810007EB8000291D00F0D6F900F0FD
:101F100001FA606900280CD02068E96AC06A88422A
:101F200007D207494FF080500860BFF34F8FBFF3CF
:101F30006F8FBDE8F08100000000002088000020C5
:101F400004ED00E010B50446006B00F0F7F9204600
:101F5000BDE8104000F0F2B910484FF48841420744
:101F600006D0C01D0D4920F00700411AC1F5884177
:101F70000B4A00230144C2E900030839183A21F052
:101F8000070111604B600B600B1AC0E900139360EE
:101F90004FF0004053605061704700005001002036
:101FA00064000020144E154CA6F1A0074FF0805895
:101FB000DFF84C9012E000BF00F08CF9F068C568C3
:101FC000281D00F041F9A068401EA0606068401E16
:101FD000606000F09FF92846FFF7B4FF60680028B2
:101FE000EAD138680128F9D9C9F80080BFF34F8FCA
:101FF000BFF36F8FF2E700002801002000000020EF
:1020000004ED00E02DE9F0479A46DDE909848146B8
:102010006FF00303206B03EB82021044089E20F054
:102020000707780707D0BF2080F31188BFF34F8FD1
:10203000BFF36F8FFEE7002561B1002023180A5C13
:1020400083F834200A5C12B1401C1028F6D384F8BF
:10205000435001E084F83450052E00D30426201D9F
:10206000E66200F00FF904F1180000F00BF92461AA
:10207000C6F105006462A061656484F84850524668
:102080004946384600F0BEF82060B8F1000F01D094
:10209000C8F80040BDE8F08730B5114900E01146AE
:1020A0000A688242FBD34B685C18844203D14068C3
:1020B00018444860084643681C18944209D1084CEB
:1020C000183C2468A24209D052681A4442600A6847
:1020D00012680260814200D0086030BD0460F9E7F8
:1020E000640000200548816B096821B1816BC968D3
:1020F0000968816270474FF0FF31FAE70000002065
:1021000008484068401C4FF0BF0080F3118804D09D
:10211000BFF34F8FBFF36F8FFEE7BFF34F8FBFF358
:102120006F8FFEE7400000202DE9F04105460027B3
:1021300000F0A2F9324E306808B9FFF70DFF706960
:1021400005424ED1C5B3083568070ED005F007002B
:10215000C0F108000544680707D0BF2080F311884C
:10216000BFF34F8FBFF36F8FFEE72DB370688542CB
:1021700037D82348183001460C6801E020460C4649
:102180006168A94202D221680029F7D131688C42E6
:1021900027D007682168016060680837411B102953
:1021A0000FD96019420708D0BF2080F31188BFF310
:1021B0004F8FBFF36F8FFEE713E041606560FFF75D
:1021C0006BFF61687068401A7060B268904200D21C
:1021D000B060706901430020C4E90001F068401C50
:1021E000F06000F059FA780707D0BF2080F311881B
:1021F000BFF34F8FBFF36F8FFEE73846BDE8F08126
:102200004C00002010B5031F4FF080741C601B1F92
:1022100021F001011960191F024B0B60143940387D
:102220000A6010BD01210008064D4FF4005441F230
:10223000883621462846FEF7B9FB304600F0C2F842
:10224000F7E7000000100140D0E9013201699A600F
:10225000D0E901235A604A68824201D182684A600B
:10226000002202610868401E08600868704700F19B
:1022700008014FF0FF32C0E90112C1600161002185
:102280000160704700210161704730B50B685A1C2E
:1022900002D000F1080202E0026904E0224654681C
:1022A00025689D42FAD953684B6099608A605160F5
:1022B00008610168491C016030BD42684A6093684A
:1022C0008B6093685960916008610168491C0160E6
:1022D00070470000BF2080F31188BFF34F8FBFF31A
:1022E0006F8F0A494868401C486001280CD1084893
:1022F000006810F0FF0F07D0BF2080F31188BFF3F4
:102300004F8FBFF36F8FFEE7704700004000002043
:1023100004ED00E00849486828B1401E486001D13A
:1023200080F311887047BF2080F31188BFF34F8F6F
:10233000BFF36F8FFEE700004000002070B500285B
:102340002AD0164DA0F1080460686969084207D1D7
:10235000BF2080F31188BFF34F8FBFF36F8FFEE76D
:1023600022683AB1BF2080F31188BFF34F8FBFF3CB
:102370006F8FFEE78843606000F07EF860686968F0
:10238000084468602046FFF787FE2869401C2861E2
:10239000BDE8704000F080B970BD00004C00002026
:1023A0004FF0E02000210161816105494FF47A720C
:1023B0000968B1FBF2F1491E4161072101617047D3
:1023C0008400002010B5020014D00F48406B38B1D3
:1023D000BF2080F31188BFF34F8FBFF36F8FFEE7ED
:1023E00000F04AF800211046FFF70CFD00F054F908
:1023F000002807D105494FF080500860BFF34F8F88
:10240000BFF36F8F10BD00000000002004ED00E05E
:102410007CB515480025CDE900502B46802213A13C
:10242000144800F0A7F8104C2C3C012802D0401CA6
:1024300011D00EE0BF2080F31188BFF34F8FBFF3A0
:102440006F8F4FF0FF30A06201206061E56000F007
:1024500049F8206B7CBDBF2080F31188BFF34F8FFC
:10246000BFF36F8FFEE700002C00002049444C456D
:1024700000000000A51F00080248416B491C416391
:1024800070470000000000201448416B11B1012189
:10249000C16170470021C1610169B1FA81F1C1F1E7
:1024A0001F0101EB81020E4951F822306BB101EBA3
:1024B000820101F108034A6852684A609A4201D1D8
:1024C00052684A60D16801607047BF2080F311886C
:1024D000BFF34F8FBFF36F8FFEE7000000000020B7
:1024E000880000201CB5204908780190FF20087062
:1024F00008788DF800009DF800009DF800209042BB
:1025000007D0BF2080F31188BFF34F8FBFF36F8FC9
:10251000FEE79DF80000154C00F0BF00207007207A
:10252000A06005E09DF8002052008DF80020401EBC
:102530009DF800201206F5D4000200F4E060A060CF
:10254000019808700A48016841F47F010160016840
:1025500041F07F410160FFF723FF00206060FDF73D
:10256000E1FD00201CBD000000E400E04000002070
:1025700020ED00E02DE9FF5F8346DDE90E879946F7
:1025800016468A469000FFF7CFFD05001AD04C2072
:10259000FFF7CAFD040012D025630021CDE90241F6
:1025A000CDE900874B46324651465846FFF72AFD93
:1025B0002046FFF75FFC012004B0BDE8F09F2846ED
:1025C000FFF7BCFE4FF0FF30F6E700002DE9F041C9
:1025D0002F4C0026606B28B1A069401CA0613046DA
:1025E000BDE8F081E5686D1CE56013D1A06B006863
:1025F00038B1BF2080F31188BFF34F8FBFF36F8FC7
:10260000FEE7A06BE16BA163E063206A401C2062DF
:10261000FFF768FDA06ADFF87C80854209D3A06BD4
:102620000068A0B1A06BC068C7687868854211D205
:10263000A0622068C06A00EB800158F821000128E0
:1026400000D90126E0690028C9D00126C7E74FF06C
:10265000FF30EDE7381DFFF7F7FDB86A18B107F155
:102660001800FFF7F1FDF96A012022698840104344
:10267000206101EB810108EB8100391DFFF71DFE90
:10268000F86A2168C96A8842C9D30126C7E70000F1
:1026900000000020880000202DE9F0472C4D002488
:1026A0002746686B38B1FFF715FE686B401E6863FC
:1026B000686B40B146E0BF2080F31188BFF34F8FB5
:1026C000BFF36F8FFEE7A968224E0120D1B3A6F1B8
:1026D0008C0980463068E8B1F068C46804F11800DD
:1026E000FFF7B2FD201DFFF7AFFDE06A2A6908FA87
:1026F00000F11143296100EB800109EB8100211DEC
:10270000FFF7DBFDE06A2968C96A8842E2D3C5F8B1
:102710001C80DFE70CB1FFF7E5FCAC6944B146462D
:10272000FFF754FF00B1EE61641EF9D10020A861EB
:10273000E86938B10849012738070860BFF34F8FAF
:10274000BFF36F8FFFF7E6FD3846BDE8F087000066
:10275000000000201401002004ED00E00000000053
:102760000000000001020304060708090000000041
:1027700001020304942700080000002088000000E4
:102780006A1D00081C28000888000020804B0000FB
:102790007A1D00080000000000000000000000009A
:1027A0000000000000000000000000000000000029
:1027B0000000000000000000000000000000000019
:1027C0000000000004000000000000000000000005
:1027D0000000000000000000AAAAAAAA0000000051
:1027E00000000000000000000000000000000000E9
:1027F00000000000000000000000000000000000D9
:1028000000000000000000000000000001000000C7
:0C28100010000000000000000024F40094
:04000005080000ED02
:00000001FF
