:020000040800F2
:10000000104C002099010008E71E0008B91C0008E8
:10001000E51E00081D05000825220008000000005C
:1000200000000000000000000000000001010008C6
:10003000F90600080000000045010008AD1F000897
:10004000B3010008B3010008B3010008B3010008C0
:10005000B3010008B3010008B3010008B3010008B0
:10006000B3010008B3010008B3010008BD06000891
:10007000B3010008B3010008C9060008D50600084E
:10008000E1060008ED060008B3010008B30100080E
:10009000B3010008B3010008B3010008B301000870
:1000A000B3010008B3010008B3010008B301000860
:1000B000B3010008B3010008B3010008B301000850
:1000C000B3010008B3010008B3010008B301000840
:1000D000B301000819220008B3010008B3010008A9
:1000E000B3010008B3010008B3010008DFF80CD029
:1000F00000F0CCF90048004765220008104C0020B1
:10010000224B19680868B0E8F00F80F30988BFF344
:100110006F8F4FF0000080F311884EF00D0E704786
:100120000000000006480068006880F3088862B696
:1001300061B6BFF34F8FBFF36F8F00DF00BF00BF0B
:1001400008ED00E0EFF30980BFF36F8F0F4B1A68E3
:1001500020E9F00F106008B54FF0BF0080F3118860
:10016000BFF34F8FBFF36F8F02F08AFC4FF0000098
:1001700080F31188BDE8084019680868B0E8F00FFE
:1001800080F30988BFF36F8F704700BF0000002025
:10019000EFF3058070470000064880470648004797
:1001A000FEE7FEE7FEE7FEE7FEE7FEE7FEE7FEE727
:1001B000FEE7FEE741200008ED000008202A04DBEE
:1001C000203A21FA02F00021704721FA02F3D040D0
:1001D000C2F12002914008431946704740EA0103EA
:1001E0009B0703D009E008C9121F08C0042AFAD2ED
:1001F00003E011F8013B00F8013B521EF9D27047B1
:10020000D2B201E000F8012B491EFBD27047002258
:10021000F6E710B513460A4604461946FFF7F0FF05
:10022000204610BD421C10F8011B0029FBD1801A8A
:1002300070472DE9F04D81EA030404F0004B21F0F2
:10024000004514464FF0000A23F0004150EA050231
:1002500020D054EA01021DD0C5F30A570246C5F367
:100260001303C1F31300C1F30A5640F4801543F49D
:100270008013A7EB0608101BD64608F2FD3873EB77
:10028000050002D308F1010801E092185B41B8F1C2
:10029000000F03DA00200146BDE8F08D00204FF486
:1002A0008011064684460EE0171B73EB050705D345
:1002B000121B63EB050306434CEA010C49084FEAA5
:1002C000300092185B4150EA0107EDD152EA030079
:1002D00012D082EA040083EA0501084305D0101B0E
:1002E000AB4106D20122002306E000224FF000437A
:1002F00002E06FF0010253101AEB06004CEB0851BC
:1003000010EB0A0041EB0B01BDE8F04D00F060B8C6
:100310000EB540F2334102910021CDE900110A46A9
:100320000B4600F064F803B000BD01F0004330B4A8
:1003300021F0004150EA010206D00A0DA2F56072D8
:10034000C1F31301002A02DC30BC00207047440FC7
:1003500044EAC104C100E01830BC00EBC250AFF366
:1003600000800029A8BF7047401C490008BF20F04A
:100370000100704710B4B0FA80FC00FA0CF050EAAB
:10038000010404BF10BC704749B1CCF1200421FA2C
:1003900004F411FA0CF118BF012121430843A3EB27
:1003A0000C01CB1D4FEA00614FEA102042BF002034
:1003B00010BC704700EBC35010440029A4BF10BC10
:1003C0007047401C490008BF20F0010010BC704776
:1003D00010B5141E73F1000408DA401C41F100014D
:1003E00092185B411A4301D120F0010010BD2DE9A4
:1003F000F04D92469B4611B1B1FA81F202E0B0FA9B
:1004000080F22032904600F053F804460F4640EA4E
:100410000A0041EA0B0153465A46084313D01146DD
:1004200053EA010019D0C8F140025046FFF7C6FE5A
:1004300005460E4650465946424600F039F80843F4
:1004400005D0012004E020463946BDE8F08D0020AB
:10045000054346EAE0762C4337430A986305E40AED
:10046000A0EB08000022FD0A44EA47540A3002D5F6
:1004700000200146E9E7010510196941DDE9084559
:1004800000196941BDE8F04DA2E70000064C074D98
:1004900006E0E06840F0010394E807009847103454
:1004A000AC42F6D3FFF726FE5C3000087C30000833
:1004B000202A04DB203A00FA02F100207047914024
:1004C000C2F1200320FA03F3194390407047000063
:1004D00070B5044600688168C943C9071CD18168AA
:1004E00021F00101816000F093FC05460FE000BFA0
:1004F00000F08EFC401B022809D9A06A40F01000D1
:10050000A062E06A40F00100E062012070BD206856
:100510008068C043C007EBD0002070BDFEE700003C
:1005200010B590B001200090000402240190CDE9A4
:10053000074000010990684600F088FF0720CDE9D8
:100540000A0400200C900D9001210AA800F092FEF0
:10055000042001F0D1F90349302081F8140D10B0C6
:1005600010BD00000FE000E010B501204FF4F06175
:10057000401C8842FCDB0E4C0221204600F036FC79
:1005800098B902214FF47060491C8142FCDB0221C2
:10059000204600F02BFC012801D0012010BD0221D3
:1005A000204600F023FC0128F9D0002010BD0000F7
:1005B000000C014000F062F8FFF7D6FF0028F9D1E7
:1005C00000F02AF8064600F027F8054600F024F867
:1005D000044600F021F8074600F01EF847EA042020
:1005E00045EA0624FFF794FE094D00222B46FFF74B
:1005F00020FEFFF79AFE074E30602046FFF788FE88
:1006000000222B46FFF715FEFFF78FFE7060D1E743
:10061000000024408C0000202DE9F0410024164FFA
:1006200001260221384600F0E1FB0028F9D0022023
:100630004FF4F061401C8842FCDB0221384600F098
:10064000D5FB90B1C4F1070106FA01F02843C5B209
:100650000221384600F0CAFB0128F9D0641CE4B23C
:10066000082CDED32846BDE8F081C4F1070006FA65
:1006700000F08543ECE70000000C014070B501F08C
:1006800085FC0C4D00220221284600F0BCFB0A4CE0
:100690000121491CA142FCDB01220221284600F075
:1006A000B2FB0220401CA042FCDBBDE8704001F020
:1006B0005FBC0000000C014000A60E00014800F0E5
:1006C000CDB90000BC460020014800F0C7B90000C9
:1006D00088470020014800F0C1B90000CC47002045
:1006E000014800F0BBB9000044470020014800F079
:1006F000B5B90000004700207047000010B504465F
:10070000FFF790FD214682B2BDE810404FF47A73A6
:10071000014801F077BA00003846002072B6FEE7C3
:10072000F8B50024009490F824202546012A12D020
:10073000012280F824204A681F23072A0DD2066868
:10074000776B521E02EB820293409F430B689340EB
:100750001F43776319E00220F8BD06680D2A0AD20C
:10076000376BD21F02EB820293409F430B6893408A
:100770001F43376309E0F76A0D3A02EB82029340A8
:100780009F430B6893401F43F7620A68072306687C
:100790000A2A0AD3F7680A3A02EB420293409F43BF
:1007A0008B6893401F43F76008E0376902EB420211
:1007B00093409F438B6893401F4337610A68102A18
:1007C00001D0112A20D1124B02689A4217D19368A6
:1007D0001B0219D4936843F400039360096810293D
:1007E00012D10C490C4A0968B1FBF2F101EB81010D
:1007F000490000E0491E00910029FBD104E0816A14
:1008000041F020018162012480F824502046F8BD87
:10081000002401408800002040420F002DE9F041F3
:100820004FF0000704003D467ED0A06A002628B99C
:10083000E66284F82460204600F07EF82046FFF748
:1008400047FEA16A01F01001014304D0A06A40F004
:100850001000A06268E0A16A21F4885141F0020111
:10086000A1626268E169237B0A4347EA43010A43C4
:10087000A1684FF48077B94208D0012906D0002141
:1008800094F814C0BCF1010F02D00AE03946F7E732
:10089000F3B1A36A43F02003A362E36A43F00103C8
:1008A000E3622368D3F804C02CF4694C4CEA010CD1
:1008B000C3F804C023689968DFF870C001EA0C012E
:1008C00011439960A168B9420BD0012909D00CE00D
:1008D000DFF85CC0A3690CEB43330B4343F40061C6
:1008E000DFE7218A0D05A5F580152168CB6A23F481
:1008F00070032B43CB62216889680E4B19409142EB
:1009000008D1E662A16A21F0020141F00101A16271
:10091000BDE8F081A06A20F0020040F01000A06263
:10092000E06A40F00100E0620120F1E7FDF7E1FF3D
:1009300000E0FFFFFE0E1FFF70B586B000250646E3
:1009400000950195029503950068194988422DD1BB
:100950001849886940F400708861886900F4007063
:100960000490886940F0040088618869694600F055
:100970000400049002200090032001900E4800F033
:1009800045F90F4C0D48C4E900058020C4E9025028
:10099000400020618000C4E905052046E56100F0C3
:1009A00007F908B1FFF7BAFE3462666206B070BD9F
:1009B00000240140001002400008014008000240ED
:1009C000BC46002010B590F821100024022903D065
:1009D0000421816301243DE001680A6822F00E02CF
:1009E0000A6001680A6822F001020A601A4A016876
:1009F000914201D1012121E0174A1432914201D1E3
:100A000010211BE0144A2832914201D1891515E0CA
:100A1000114A3C32914201D189140FE00E4A503202
:100A2000914202D14FF4803108E00B4A6432914286
:100A300002D14FF4801101E04FF08071064A083A6C
:100A40005160012180F82110002180F82010416BB5
:100A500001B18847204610BD080002402DE9F05F33
:100A6000C16B0C6801680B68D0F840C0042202FA20
:100A70000CF2494DDFF824A1494E4A4FDFF828B166
:100A8000DFF828E122422CD05A072AD50A689206BC
:100A900003D40A6822F004020A600168A94201D165
:100AA000042219E0514501D1402215E0B14202D1A2
:100AB0004FF4806210E0B94202D14FF480420BE063
:100AC000594502D14FF4802206E0714502D14FF41E
:100AD000800201E04FF080622F4908394A60C16A04
:100AE0003BE04FF0020808FA0CF818EA040F4FF048
:100AF00000094FF0010235D05FEA837832D50B68E8
:100B00009B0605D40B6823F00A030B6080F82120B4
:100B10000168A94201D1022219E0514501D12022E8
:100B200015E0B14202D14FF4007210E0B94202D197
:100B30004FF400520BE0594502D14FF4003206E069
:100B4000714502D14FF4001201E04FF000721249DA
:100B500008394A6080F82090816A00291AD0BDE8DF
:100B6000F05F0847082505FA0CF5254212D01B074F
:100B700010D50B6823F00E030B6090F84010C36B88
:100B800002FA01F15960826380F8212080F82090F8
:100B9000016BE2E7BDE8F09F080002401C00024044
:100BA0003000024044000240580002406C00024005
:100BB00030B528B308C8134914221944B1FBF2F127
:100BC0008900C16310498163022141771A6843F6A5
:100BD000F0718A43D0E900142143D0E902452C4347
:100BE000214304692143446921438469214311431A
:100BF000196000214163012242770177084630BD28
:100C0000012030BDF8FFFDBF000002402DE9F84F84
:100C1000DFF8B891002409F1040A0AF1040B234615
:100C20000F270BF1040EC9E00125A5402A40AA4276
:100C30007DD1674ED1F804C0ACEB0608B44532D084
:100C400014DCBCF1030F3AD009DCBCF1000F2AD050
:100C5000BCF1010F1CD0BCF1020F31D11DE0BCF181
:100C6000110F17D0BCF1120F2AD119E0B8F5881F67
:100C700019D006DCB8F5803F15D0B8F5801F1FD11C
:100C800011E0B8F5001F0ED0B8F5041F18D10AE026
:100C9000CB6815E0CB681B1D12E0CB6808330FE072
:100CA000CB680C330CE08B682BB1012B4FF00803A1
:100CB00003D0456104E0042302E0056100E0002365
:100CC000FF2A01D8064601E000F104064FEA840538
:100CD00001D9A5F12005D6F8008007FA05FC28EA1D
:100CE0000C0803FA05F548EA0508C6F800804D68C7
:100CF000ED0062D5374DAE6946F00106AE61AD69D3
:100D000024F0030605F001050095334D06EB050CB4
:100D1000DCF80850A607360F07FA06F825EA08059A
:100D2000DFF8B880404503D14FF0000817E044E0F9
:100D3000DFF8AC80404502D14FF001080FE0DFF84A
:100D4000A480404502D14FF0020808E0DFF8988007
:100D5000404502D14FF0030801E04FF0040808FAC3
:100D600006F848EA0508CCF808804D68D9F8006014
:100D7000ED034D4601D5164300E096432E604D68C5
:100D8000DAF80060AD03554601D5164300E09643FE
:100D90002E604D68DBF80060ED025D4601D516431C
:100DA00000E096432E604D68DEF80060AD027546A7
:100DB00001D5164300E096432E60641C0D682A4658
:100DC000E5407FF431AFBDE8F88F0000000401403A
:100DD0000000111000100240000001400008014016
:100DE000000C0140001001400014014080680840E0
:100DF00000D001207047C26821EA02030A4043EA9A
:100E00000241016170470AB1016170470904FBE7C3
:100E100001488068704700007C00002070B5040025
:100E200025D094F83D00002520B984F83C50204698
:100E300000F0B8F8242084F83D002068016821F013
:100E4000010101602068016841F4004101602068EF
:100E5000016821F40041016000F0A2FA4D4A616886
:100E6000914201D84C4900E04C49884201D201200E
:100E700070BD4B492368B0FBF1F15E6826F03F0678
:100E80000E435E606368934206D94FF496735943EC
:100E90004FF47A73B1FBF3F12368491C1E6A26F004
:100EA0003F06314319626168914210D84900401EE3
:100EB000B0FBF1F2521CC2F30B02042A01D204204F
:100EC00022E0B0FBF1F0401CC0F30B001CE0A26874
:100ED000F2B301EBC10303EB0116431EB3FBF6F3C0
:100EE0005B1C43F480431B0549D092B301EBC10264
:100EF00002EB0111401EB0FBF1F0401CC0F30B00EF
:100F000040F4804040F400402168CA694CF6FF7309
:100F10009A431043C861D4E907100143206802686E
:100F200022F0C00211430160D4E9030101432068AB
:100F3000826848F2FF339A4311438160D4E9050186
:100F400008432168CA6822F0FF021043C86001E02C
:100F50000EE016E02068016841F00101016025649F
:100F6000202084F83D00256384F83E50002070BDA9
:100F700001EB4106431EB3FBF6F35B1CB3E7012014
:100F8000C2E701EB4101401EB0FBF1F0401CC0F391
:100F90000B00B7E7A086010080841E0000093D0019
:100FA00040420F002DE9F04186B00024064600942F
:100FB00001940294039400682549884244D1254D48
:100FC000A86940F00800A861A869694600F0080017
:100FD0000490C020009012200190032003901E482E
:100FE000FFF714FEE86940F40010E861E8691C4D61
:100FF00000F4001004901948C5E900044FF080087F
:10100000C5E902482C614FF400576C61C5E90647F9
:101010002846FFF7CDFD08B1FFF780FBB5636E6290
:101020000E48104D143801C51020A5E811010D48D7
:1010300045F810496C61C5E90647FFF7B9FD08B1ED
:10104000FFF76CFB75636E6206B0BDE8F0810000CF
:101050000054004000100240000C0140800002409B
:101060000047002044470020074810B5016841F0C0
:1010700010010160032000F075F8002000F006F870
:1010800000F024F8002010BD0020024070B50D4D86
:1010900004464FF47A712878B1FBF0F00A490968E8
:1010A000B1FBF0F000F034FC48B9102C07D200225C
:1010B0002146501E00F036F800206C6070BD012003
:1010C00070BD00007C000020880000200C4808B59E
:1010D000816941F001018161816901F001010091A3
:1010E000C16941F08051C161C06900F08050009039
:1010F0000448416821F0E06141F00071416008BDA1
:101100000010024000000140002809DB00F01F022F
:10111000012191404009800000F1E020C0F8001159
:1011200070470000F0B40E4B1B680C46C3F302235B
:10113000C3F10705042D00D90425191D072901D283
:10114000002300E0DB1E012606FA05F1491E2140BE
:1011500099409E40761E16403143F0BC01F063B8C2
:101160000CED00E0064900F0070208684FF6FF03A7
:10117000184040EA0220034A10430860704700000C
:101180000CED00E00000FA052DE9F8430546007873
:10119000354CC00754D0E0690026C00008D4E0698F
:1011A00040F08050E061E069012600F0805000903E
:1011B0002E480168C90512D40168804641F4807147
:1011C0000160FFF725FE074605E000BFFFF720FEA0
:1011D000C01B642823D8D8F80000C005F6D5206AC3
:1011E00010F4407021D0A98801F4407181421CD0D4
:1011F000206A1F49012220F440700A6000220A6020
:101200002062C00711D0FFF703FE074641F288387D
:1012100008E000BFFFF7FCFDC11B414502D90320D8
:10122000BDE8F883206A8007F4D5206A696820F455
:101230004070084320621EB1E06920F08050E061F8
:101240002878800705D56068A96820F440400843E5
:1012500060602878C00605D56068E96820F48000E1
:10126000084360600020DBE700100240007000408F
:10127000400442422DE9F0470F46050061D0434E3D
:10128000306800F00700B84209D2306820F007004B
:1012900038433060306800F00700B84251D1286808
:1012A0003B4C810712D5400703D5606840F4E060ED
:1012B00060602878000703D5606840F46050606083
:1012C0006068A96820F0F000084360602878C007D3
:1012D00028D06868012810D02168022810D089071A
:1012E00000292EDA616821F0030101436160FFF7F4
:1012F0008FFD804641F288390DE021688903EFE7D0
:101300008901EDE7FFF784FDA0EB0801494502D90B
:101310000320BDE8F0876068696800F00C00B0EB5E
:10132000810FEFD1306800F00700B8420BD9306868
:1013300020F0070038433060306800F00700B84202
:1013400001D00120E5E72878400705D56068E96805
:1013500020F4E060084360602878000706D56068E4
:10136000296920F4605040EAC100606000F038F85C
:101370006168084AC1F30311515CC840064908601E
:1013800006480068FFF782FE0020C2E70020024006
:101390000010024044300008880000208000002037
:1013A0000448054900684968044AC1F30221515CB8
:1013B000C8407047880000200010024054300008E8
:1013C0000448054900684968044AC1F3C221515CD8
:1013D000C8407047880000200010024054300008C8
:1013E00012A185B00FC98DE80F0014A0144A00683F
:1013F00004905168134801F00C03042B10D0082B03
:101400000ED1C1F38343C9031DF803000AD5516807
:1014100004AAC1F34041515C0A4A5043B0FBF1F0C9
:1014200005B0704708494843FAE700000203040585
:10143000060708090A0B0C0D0E0F10100102000020
:101440000010024000127A0000093D002DE9F84F1B
:10145000040070D02078C04DC00749D06868C0F340
:101460008100012807D06868C0F38100022809D1F3
:101470006868C00306D52868800339D560680028ED
:10148000E7D035E06068B0F5803F0BD010B1B0F523
:10149000A02F11D0286820F480302860286820F41C
:1014A000802002E0286840F480302860606890B1B5
:1014B000FFF7AEFC06460AE0286840F4802028606A
:1014C000F0E700BFFFF7A4FC801B642873D82868EE
:1014D0008003F7D50CE0FFF79BFC064605E000BF54
:1014E000FFF796FC801B6428F0D828688003F7D4A7
:1014F00020789A4E80074FF001094FF0000839D547
:10150000686810F00C0F07D06868C0F381000228EB
:1015100009D16868C00306D42868800714D52069FB
:10152000012808D110E02069B0B1C6F80090FFF79B
:101530006FFC074605E00AE1FFF76AFCC01B0228C2
:10154000C4D828688007F7D52868616920F0F800BA
:1015500040EAC10028600DE0C6F80080FFF758FCA3
:10156000074604E0FFF754FCC01B022823D8286874
:101570008007F7D4207800072CD57948A169D9B124
:10158000C0F80090FFF744FC074604E0FFF740FC7A
:10159000C01B02280FD8686A8007F7D571484FF43E
:1015A000FA510068B0FBF1F0009000BF0098411EB6
:1015B0000091FAD20EE080E0C0F80080FFF728FC2E
:1015C000074604E0FFF724FCC01B022875D8686AB0
:1015D0008007F7D42078400760D5E8690027C0006D
:1015E00008D4E86940F08050E861E869012700F01C
:1015F000805000905C480168C90513D40168834697
:1016000041F480710160FFF703FC824606E000BFF1
:10161000FFF7FEFBA0EB0A0064284ED8DBF80000C1
:10162000C005F5D5E06801280AD008B1052813D017
:10163000286A20F001002862286A20F0040002E0F5
:10164000286A40F001002862E06841F2883B98B1C6
:10165000FFF7DEFB82460BE0286A40F004002862B8
:10166000EEE700BFFFF7D4FBA0EB0A0159455AD8BB
:10167000286A8007F6D50CE0FFF7CAFB824605E032
:10168000FFF7C6FBA0EB0A0159454CD8286A800732
:10169000F6D41FB1E86920F08050E861E06988B3B2
:1016A0006968C1F38101022944D00228C6F860802C
:1016B00004D0FFF7ADFB044638E034E0FFF7A8FBA9
:1016C000074604E0FFF7A4FBC01B02282BD82868BC
:1016D0008001F7D4206AB0F5803F05D16868A16821
:1016E00020F4003008436860D4E9080108436968C1
:1016F00021F4741108436860C6F86090FFF788FB16
:10170000044606E025E000BFFFF782FB001B02282D
:1017100009D828688001F7D51BE000BFFFF778FBE8
:10172000001B022802D90320BDE8F88F2868800139
:10173000F4D40EE00128F7D06868226A00F4803102
:10174000914204D1616A00F47010884201D00120F6
:10175000EAE70020E8E700000010024000004242F3
:1017600080044242880000200070004070B50400F0
:1017700009D0606A002540B125616561A56294F8D1
:10178000510040B10CE0012070BD6068B0F5827F6F
:10179000F4D0E561F2E784F85050204600F040F8BC
:1017A000022084F851002068016821F040010160A6
:1017B000A088218900F4827001F404410843A189C2
:1017C00001F400610843217C01F002010843217DFE
:1017D00001F001010843218B01F400710843217FCE
:1017E00001F03801084394F8201001F0800108430B
:1017F000218D01F40051084321680860A06904218B
:1018000001EA1040216848602068C16921F4006144
:10181000C1616565012084F85100002070BD0000A1
:101820002DE9F04186B0002406460094019402940C
:10183000039400682A4988424FD12A48C16941F47B
:101840008041C161C16901F480410491816941F025
:10185000080181618069244D00F0080004904FF474
:101860002040009002200190032003906946284602
:10187000FFF7CCF94FF48040CDE9000469462846D3
:101880000294FFF7C3F91A4D18484FF08008C5E9D4
:101890000004C5E902482C614FF400576C61C5E9AA
:1018A00006472846FFF784F908B1FEF737FFF564CD
:1018B0006E620E480F4D143001C51020A5E81101CD
:1018C0000C4845F810496C61C5E90647FFF770F907
:1018D00008B1FEF723FFB5646E6206B0BDE8F08183
:1018E0000038004000100240000C0140440002405B
:1018F00088470020CC4700204FF0E02104280869E9
:1019000003D020F004000861704740F00400FAE7BB
:1019100010B5401EB0F1807F01D3012010BD4FF003
:10192000E02460610F21601700F07DFC0020A061C1
:1019300007202061002010BD7047000070B50268CC
:1019400004461068D168536910F00F0F53D003F0AC
:10195000010501F490762E435FD0C20705D0CA0579
:1019600003D5E26B42F00102E263420705D5DA07D4
:1019700003D0E26B42F00202E263820705D5DA0788
:1019800003D0E26B42F00402E263020707D501F0E4
:1019900020022A4303D0E26B42F00802E263E26BCA
:1019A000002A34D0800604D5880602D5204600F0EF
:1019B0005EFB20684069E16BC0F3801001F0080114
:1019C0000143204624D000F044FB206841694906C9
:1019D0001AD5416921F040014161606BA0B12D49E8
:1019E0004163606BFEF7EEFF002810D0606B416B27
:1019F000BDE87040084783060FD58B060DD52046FD
:101A0000BDE8704000F033BB2046FFF795FF70BD86
:101A1000FFF792FF0020E06370BD03062BD50B0695
:101A200029D594F839002128F6D1A068B0F5805F57
:101A300001D12069B0B1206A411C2162216800787F
:101A40004860E08C401E0004000CE084E4D1206873
:101A5000C16821F08001C1602068C16841F0400187
:101A6000C16070BD206A0088C0F308005060206A21
:101A7000801C2062E5E74006F3D54806F1D5D16821
:101A8000204621F04001D160202184F8391000F077
:101A900012F970BD4320000870B5040004D094F81A
:101AA0003900002510B106E0012070BD84F83850DF
:101AB000204600F023F8242084F839002068C1680B
:101AC00021F40051C160204600F018FB2068016934
:101AD00021F4904101612068416921F02A014161AE
:101AE0002068C16841F40051C160E563202084F89A
:101AF000390084F83A00002070BD000030B585B090
:101B000000240094019402940394006818498842C8
:101B10002CD11848816941F480418161816901F4C7
:101B200080410491816941F0040181618069124D15
:101B300000F0040004904FF4007000900220019027
:101B40000320039069462846FFF760F82815CDE981
:101B50000004694628460294FFF758F8002211460F
:101B60002520FFF7DFFA2520FFF7CEFA05B030BDBC
:101B700000380140001002400008014090F83A305F
:101B8000202B22D1F9B1F2B190F83830012B1CD0C2
:101B900081628285C2850021C163222280F83A20B9
:101BA00080F838100168CA6842F48072CA6001681F
:101BB0004A6942F001024A610068C16841F02001AF
:101BC000C16000207047012070470220704700006C
:101BD00010B50068084988420CD1642301220749E6
:101BE000074800F00FF8BDE81040012203490448FF
:101BF000FFF7C4BF10BD0000003801407000002096
:101C0000384600202DE9F843044690F839001F4675
:101C100016460D4620284CD1C5B1BEB194F8380007
:101C2000012846D0012084F838004FF00008C4F89D
:101C30003C80212084F83900FFF7EAF8A684814629
:101C4000E684A068B0F5805F03D004E00120BDE821
:101C5000F883206928B12E465FF0000584F83880AB
:101C60000EE00026FAE78021204600F0A3FAA0B992
:101C7000AEB116F8010B21684860E08C401EE0848C
:101C8000E08C4B464FF0000200970028EBD14FF05C
:101C90004001204600F08EFA30B10320D7E735F836
:101CA000020BC0F30800E6E7202084F8390000208A
:101CB000CDE70220CBE77047FEE700003EB50024E9
:101CC00010480094019402940D498460016001253C
:101CD0000573047505614FF460214460C161FEF72E
:101CE0009DFD08B172B6FEE70095CDE90154694645
:101CF0000448FEF715FD002801D072B6FEE73EBD90
:101D0000002401405C450020234808B5416941F0AA
:101D1000010141614069214900F001000090204823
:101D200001604FF480414160402181608021C160A9
:101D30000021016141618161C161FEF739FF08B194
:101D400072B6FEE7002211460B20FFF7EBF90B20DD
:101D5000FFF7DAF9002211460E20FFF7E3F90E2013
:101D6000FFF7D2F9002211460F20FFF7DBF90F2011
:101D7000FFF7CAF9002211461020FFF7D3F910200F
:101D8000FFF7C2F9002211461120FFF7CBF9BDE899
:101D900008401120FFF7B8B9001002401C000240B3
:101DA000784600202DE9F04186B0002428480094B0
:101DB000019402940394816941F010018161816969
:101DC00001F010010491816941F020018161816974
:101DD00001F020010491816941F004018161816970
:101DE00001F004010491816941F008018161806979
:101DF000184F00F008004FF40055049000222946C7
:101E00003846FFF700F8DFF85080002204214046F2
:101E1000FEF7F9FF0126CDE900560225694638464E
:101E2000CDE90245FEF7F2FE0420CDE90006694641
:101E30004046CDE90245FEF7E9FECDE9005469468A
:101E400006480294FEF7E2FE06B0BDE8F08100000D
:101E5000001002400010014000080140000C014049
:101E60000E4810B50C4901604FF4827141600021A9
:101E70008160C1604FF400720161C0E90512C16167
:101E80000162416281620A21C162FFF76FFC002892
:101E900001D072B6FEE710BD00380040E0450020DA
:101EA0000F4810B50D4901604FF4E1314160002148
:101EB00081600C22C160C0E904128161C161FFF739
:101EC000EBFD08B172B6FEE7002211462520FFF7B0
:101ED00029F9BDE810402520FFF716B90038014068
:101EE00038460020FEE7FEE77CB5002204210A20E8
:101EF00000F03CFE1149002808601ED00024022595
:101F0000CDE90054234680220DA1104800F06CFF5B
:101F1000CDE9005400234FF4C8720DA10F4800F022
:101F200063FFCDE90054002380220DA10F4800F08B
:101F30005BFFBDE87C4000F067BD7CBD6C0000200D
:101F4000546F67676C6550696E000000D527000804
:101F5000444854313144617461000000B505000803
:101F60004465627567205461736B00004924000862
:101F70001FB5002001900290039002200090694656
:101F80000148FEF743FE1FBD000C01401FB50020B5
:101F900002900390022000900120019069460248BF
:101FA000FEF734FE1FBD0000000C014010B5BF203D
:101FB00080F31188BFF34F8FBFF36F8F00F040FFA6
:101FC00018B104494FF080500860002080F3118858
:101FD00010BD000004ED00E030B593B02821684644
:101FE000FEF715F914210AA8FEF711F900240120C3
:101FF0000F940225049000951020119405901094E0
:10200000129407946846FFF721FA08B172B6FEE70A
:102010000F20CDE90A040C940D9400210AA80E9417
:10202000FFF728F908B172B6FEE70FA80F951194D3
:10203000FFF7AAF8002801D072B6FEE713B030BD52
:10204000704710B5406A0021C185C184FFF774FC58
:1020500010BD0168CA6822F49072CA6001684A69BA
:1020600022F001024A61202180F83A10704710B531
:1020700090F83A10222901D0022010BD82684FF456
:1020800080539A4201D1016921B1816A9A421BD0E1
:102090004AB10AE00268816A5268C2F308020A8003
:1020A000816A891C08E0026972B10268526802F014
:1020B0007F020A70816A491C8162C18D491E090430
:1020C000090CC18503D016E002685268F1E7016887
:1020D000CA6822F02002CA600168CA6822F48072CD
:1020E000CA6001684A6922F001024A61202180F831
:1020F0003A10FFF76DFD002010BD000070B50446DA
:1021000000680169E26821F44051114301612169CD
:10211000A0680843616908432168CA6841F20C63FA
:102120009A430243CA6020684169A26921F4407160
:10213000114341611E492068884202D1FFF740F9EE
:1021400001E0FFF72DF900EBC00101EB0012606820
:1021500064218000B2FBF0F3B3FBF1F36FF01806DB
:102160007343B2FBF0F5B2FBF0F605EB83053223C7
:1021700003EB0515B5FBF1F5B6FBF1F605F0F0053F
:1021800005EB0615B2FBF0F6B2FBF0F0B0FBF1F098
:102190006FF01802504306EB800003EB0010B0FB19
:1021A000F1F0216800F00F002844886070BD000045
:1021B000003801402DE9F041984617460E46044686
:1021C000069D1DE0681C1BD02DB1FEF721FEA0EB83
:1021D0000800A84214D92068C16821F4D071C160F8
:1021E0002068416921F001014161202084F8390013
:1021F00084F83A00002084F838000320BDE8F0811C
:102200002068006836EA000004D00020B842D9D027
:102210000020F3E70120F9E70148FFF78FBB00003A
:1022200038460020FEE70907090E002804DB00F10C
:10223000E02080F80014704700F00F0000F1E0206B
:1022400080F8141D704702E008C8121F08C1002A58
:10225000FAD170477047002001E001C1121F002A27
:10226000FBD17047FEF700FFFFF7B6FE174C184D85
:1022700020686860FEF754F92068A860FFF792FDB7
:10228000FFF742FDFFF71AFD134812494FF4804251
:1022900001601249416000218160C0E9031241617F
:1022A0008161C1610162FEF7B9FD08B172B6FEE756
:1022B000FFF7D6FDFFF7F4FD074801220449AC30D3
:1022C000FFF75CFCFFF710FEFEE70000880000202F
:1022D00070000020005400408C450020A0860100C2
:1022E0002DE9F041184C0F460546E6682068001DB0
:1022F00000F080FA38B9206890F82C10012088404E
:10230000216981432161681C07D137B12168BDE88B
:10231000F0410E48091D00F0A6BA20683544B542C8
:102320004560216805D2E06BBDE8F041091D00F071
:1023300082BAA06B091D00F07EFAA06A854200D225
:10234000A562BDE8F08100000000002048010020E7
:102350002DE9F041054600F093FA2E4CA068401C90
:10236000A06020682C4F10B1606940B32DE025605B
:10237000A068012829D1002606EB860007EB800023
:1023800000F04BFA761C052EF6D32348643000F09B
:1023900044FA2148783000F040FA1F488C3000F0B1
:1023A0003CFA1D48A03000F038FA1B48B43000F069
:1023B00034FA19486430A0631430E06305E0206803
:1023C000E96AC06A884200D82560606A401C606281
:1023D000E96A0120226988401043206101EB8100F5
:1023E00007EB8000291D00F03EFA00F069FA6069F1
:1023F00000280CD02068E96AC06A884207D20749E1
:102400004FF080500860BFF34F8FBFF36F8FBDE870
:10241000F0810000000000209400002004ED00E0A6
:1024200030B4026C0B46002A0BD0C1681144C16065
:102430008468A14201D30168C16030BC1846FDF731
:10244000CDBE30BC7047000008B5064C002269467E
:10245000206800F0FDFB0128F8D10098FEF74EF946
:10246000F4E700006C00002010B50446006B00F09B
:102470003BFA2046BDE8104000F036BA10484FF451
:102480008841420706D0C01D0D4920F00700411ABF
:10249000C1F588410B4A00230144C2E90003083911
:1024A000183A21F0070111604B600B600B1AC0E96C
:1024B000001393604FF0004053605061704700007C
:1024C0005C01002064000020144E154CA6F1A0070A
:1024D0004FF08058DFF84C9012E000BF00F0D0F9C8
:1024E000F068C568281D00F085F9A068401EA0604E
:1024F0006068401E606000F0E3F92846FFF7B4FF13
:1025000060680028EAD138680128F9D9C9F8008044
:10251000BFF34F8FBFF36F8FF2E70000340100204D
:102520000000002004ED00E02DE9F0479A46DDE9C7
:10253000098481466FF00303206B03EB8202104491
:10254000089E20F00707780707D0BF2080F3118886
:10255000BFF34F8FBFF36F8FFEE7002561B10020FF
:1025600023180A5C83F834200A5C12B1401C10283E
:10257000F6D384F8435001E084F83450052E00D39C
:102580000426201DE66200F053F904F1180000F063
:102590004FF92461C6F105006462A061656484F8A6
:1025A000485052464946384600F002F92060B8F1DA
:1025B000000F01D0C8F80040BDE8F08730B51149E0
:1025C00000E011460A688242FBD34B685C188442E3
:1025D00003D1406818444860084643681C18944278
:1025E00009D1084C183C2468A24209D052681A4408
:1025F00042600A6812680260814200D0086030BD03
:102600000460F9E76400002010B5044600F038F9D2
:10261000A06B28B15FF0000400F052F9204610BD15
:102620000124F9E70548816B096821B1816BC9680C
:102630000968816270474FF0FF31FAE7000000201F
:1026400008484068401C4FF0BF0080F3118804D058
:10265000BFF34F8FBFF36F8FFEE7BFF34F8FBFF313
:102660006F8FFEE7400000202DE9F041044600F0A6
:1026700007F994F9455004F1240609E0606A48B16D
:10268000304600F043FC08B100F0A0F96D1E6DB2B9
:10269000002DF3DC4FF0FF3684F8456000F010F9B0
:1026A00000F0EEF894F9445004F1100709E02069B5
:1026B00048B1384600F02AFC08B100F087F96D1ED9
:1026C0006DB2002DF3DC84F84460BDE8F04100F009
:1026D000F7B800002DE9F0410546002700F0C8F9E1
:1026E000324E306808B9FFF7C9FE706905424ED115
:1026F000C5B3083568070ED005F00700C0F1080023
:102700000544680707D0BF2080F31188BFF34F8FBF
:10271000BFF36F8FFEE72DB37068854237D823482B
:10272000183001460C6801E020460C466168A94259
:1027300002D221680029F7D131688C4227D007687E
:102740002168016060680837411B10290FD96019A2
:10275000420708D0BF2080F31188BFF34F8FBFF32B
:102760006F8FFEE713E041606560FFF727FF616848
:102770007068401A7060B268904200D2B0607069B0
:1027800001430020C4E90001F068401CF06000F043
:10279000F7FB780707D0BF2080F31188BFF34F8F76
:1027A000BFF36F8FFEE73846BDE8F0814C00002094
:1027B00010B5031F4FF080741C601B1F21F0010136
:1027C0001960191F024B0B60143940380A6010BDA4
:1027D00041260008064D4FF4005441F28836214648
:1027E0002846FEF708FB304600F0C2F8F7E7000085
:1027F00000100140D0E9013201699A60D0E901235B
:102800005A604A68824201D182684A6000220261AD
:102810000868401E08600868704700F108014FF022
:10282000FF32C0E90112C1600161002101607047FF
:1028300000210161704730B50B685A1C02D000F1CD
:10284000080202E0026904E02246546825689D42BD
:10285000FAD953684B6099608A60516008610168D9
:10286000491C016030BD42684A6093688B60936880
:102870005960916008610168491C0160704700005F
:10288000BF2080F31188BFF34F8FBFF36F8F0A49CA
:102890004868401C486001280CD10848006810F0C6
:1028A000FF0F07D0BF2080F31188BFF34F8FBFF316
:1028B0006F8FFEE7704700004000002004ED00E04D
:1028C0000849486828B1401E486001D180F311884A
:1028D0007047BF2080F31188BFF34F8FBFF36F8F16
:1028E000FEE700004000002070B500282AD0164DF9
:1028F000A0F1080460686969084207D1BF2080F32D
:102900001188BFF34F8FBFF36F8FFEE722683AB194
:10291000BF2080F31188BFF34F8FBFF36F8FFEE7A7
:102920008843606000F0A4F86068696808446860E3
:102930002046FFF743FE2869401C2861BDE870402F
:1029400000F01EBB70BD00004C0000204FF0E020E6
:1029500000210161816105494FF47A720968B1FB78
:10296000F2F1491E41610721016170478800002092
:1029700010B5020014D00F48406B38B1BF2080F36F
:102980001188BFF34F8FBFF36F8FFEE700F070F831
:1029900000211046FFF7A4FC00F0F2FA002807D14E
:1029A00005494FF080500860BFF34F8FBFF36F8F22
:1029B00010BD00000000002004ED00E002490A6A9A
:1029C0000260C96841607047000000200149012091
:1029D000C86170470000002010B50C4650B109498D
:1029E00009681831FFF727FF2046BDE81040012194
:1029F000FFF776BCBF2080F31188BFF34F8FBFF382
:102A00006F8FFEE7000000207CB515480025CDE95A
:102A100000502B46802213A1144800F0E5F9104C19
:102A20002C3C012802D0401C11D00EE0BF2080F3C6
:102A30001188BFF34F8FBFF36F8F4FF0FF30A0624D
:102A400001206061E56000F049F8206B7CBDBF208B
:102A500080F31188BFF34F8FBFF36F8FFEE7000045
:102A60002C00002049444C4500000000C924000807
:102A70000248416B491C4163704700000000002080
:102A80001448416B11B10121C16170470021C1613E
:102A90000169B1FA81F1C1F11F0101EB81020E4917
:102AA00051F822306BB101EB820101F108034A6851
:102AB00052684A609A4201D152684A60D168016006
:102AC0007047BF2080F31188BFF34F8FBFF36F8F24
:102AD000FEE7000000000020940000201CB5204903
:102AE00008780190FF20087008788DF800009DF8A4
:102AF00000009DF80020904207D0BF2080F311888D
:102B0000BFF34F8FBFF36F8FFEE79DF80000154CAA
:102B100000F0BF0020700720A06005E09DF80020B5
:102B200052008DF80020401E9DF800201206F5D4BA
:102B3000000200F4E060A060019808700A48016893
:102B400041F47F010160016841F07F410160FFF7BE
:102B5000FDFE00206060FDF7E5FA00201CBD0000CE
:102B600000E400E04000002020ED00E070B50E46DB
:102B700005000ED005FB06F09EB1B0FBF6F1A942B0
:102B80000FD0BF2080F31188BFF34F8FBFF36F8F3B
:102B9000FEE7BF2080F31188BFF34F8FBFF36F8F25
:102BA000FEE74830FFF796FD040009D004F1480124
:102BB00020463EB10160C0E90F56012100F004F843
:102BC000204670BD0060F6E770B50D46040025D0C4
:102BD000FFF756FED4E90F20216802FB0011A16027
:102BE0000021A163216861600A46D4E90F01401EFB
:102BF00000FB0121E16021464FF0FF3001F8440F56
:102C0000487004F110008DB1FFF707FE04F12400B5
:102C1000FFF703FEFFF754FE012070BDBF2080F3D5
:102C20001188BFF34F8FBFF36F8FFEE72169002933
:102C3000F0D000F06BF90028ECD004494FF0805040
:102C40000860BFF34F8FBFF36F8FE3E704ED00E041
:102C50002DE9F747002683B08A46040008D0DFF844
:102C60000881B1464FF08057BAF1000F08D011E04B
:102C7000BF2080F31188BFF34F8FBFF36F8FFEE744
:102C8000206C38B1BF2080F31188BFF34F8FBFF3A2
:102C90006F8FFEE7FFF7F4FDA56BC5B151462046E7
:102CA000FFF7BEFB6D1EA563206950B104F1100053
:102CB00000F02CF928B1C8F80070BFF34F8FBFF3B4
:102CC0006F8FFFF7FDFD012006B0BDE8F087059886
:102CD00008B11EB106E0FFF7F3FD27E06846FFF7F5
:102CE0006DFE0126FFF7ECFDFFF7C2FEFFF7C8FD02
:102CF00094F94400401C01D184F8449094F94500B3
:102D0000401C01D184F84590FFF7DAFD05A968461B
:102D100000F02CF8002820460AD0FFF7A5FC00F0B0
:102D20002FF92046FFF770FC0028B3D00020CBE736
:102D3000FFF76AFC90B104F124000599FFF74CFEFF
:102D40002046FFF791FC00F01BF90028A2D1C8F83B
:102D50000070BFF34F8FBFF36F8F9BE72046FFF7E5
:102D600083FC00F00DF995E704ED00E02DE9F0415A
:102D70000C46050014D0DCB1FFF782FD194EF26855
:102D80006B682068D11A471C1AD02F68D6F820C06B
:102D90000026674516D0934214D8012526601BE013
:102DA000BF2080F31188BFF34F8FBFF36F8FFEE713
:102DB000BF2080F31188BFF34F8FBFF36F8FFEE703
:102DC000002509E0884205D9401A20602846FFF70F
:102DD000F5FDF5E701252660FFF772FD2846BDE801
:102DE000F0810000000000202DE9FF5F8346DDE94F
:102DF0000E87994616468A469000FFF76BFC050041
:102E00001AD04C20FFF766FC040012D02563002185
:102E1000CDE90241CDE900874B463246514658463E
:102E2000FFF782FB2046FFF793FA012004B0BDE8CC
:102E3000F09F2846FFF758FD4FF0FF30F6E70000FF
:102E40002DE9F0412F4C0026606B28B1A069401C91
:102E5000A0613046BDE8F081E5686D1CE56013D1E6
:102E6000A06B006838B1BF2080F31188BFF34F8F8B
:102E7000BFF36F8FFEE7A06BE16BA163E063206A95
:102E8000401C2062FFF7CEFBA06ADFF87C80854201
:102E900009D3A06B0068A0B1A06BC068C768786850
:102EA000854211D2A0622068C06A00EB800158F808
:102EB0002100012800D90126E0690028C9D0012697
:102EC000C7E74FF0FF30EDE7381DFFF793FCB86A16
:102ED00018B107F11800FFF78DFCF96A012022698B
:102EE00088401043206101EB810108EB8100391D0E
:102EF000FFF7B9FCF86A2168C96A8842C9D301267C
:102F0000C7E7000000000020940000202DE9F041F8
:102F1000C068C468ACB104F118000746FFF76AFC4A
:102F2000154D686B0126A0B139461448FFF79BFC8C
:102F3000E06A2968C96A88421CD90120EE61BDE8AF
:102F4000F081BF2080F31188BFF34F8FBFF36F8FE5
:102F5000FEE7201DFFF74EFCE16A2A6906FA01F040
:102F60001043286101EB810004498C3901EB80009A
:102F7000211DDBE70020E2E7000000202001002007
:102F80002DE9F0472C4D00242746686B38B1FFF738
:102F900077FC686B401E6863686B40B146E0BF20F9
:102FA00080F31188BFF34F8FBFF36F8FFEE7A968DF
:102FB000224E0120D1B3A6F18C0980463068E8B1D9
:102FC000F068C46804F11800FFF714FC201DFFF737
:102FD00011FCE06A2A6908FA00F11143296100EB4B
:102FE000800109EB8100211DFFF73DFCE06A2968A3
:102FF000C96A8842E2D3C5F81C80DFE70CB1FFF74D
:1030000011FBAC6944B14646FFF71AFF00B1EE610F
:10301000641EF9D10020A861E86938B10849012788
:1030200038070860BFF34F8FBFF36F8FFFF748FC7F
:103030003846BDE8F0870000000000202001002095
:1030400004ED00E0000000000000000001020304A5
:103050000607080900000000010203047C30000894
:1030600000000020940000004622000810310008F3
:10307000940000207C4B0000562200080000000055
:103080000000000000000000000000000000000040
:103090000000000000000000000000000000000030
:1030A000000000000000000000000000040000001C
:1030B0000000000000000000000000000000000010
:1030C000AAAAAAAA00000000000000000000000058
:1030D00000000000000000000000000000000000F0
:1030E00000000000000000000000000000000000E0
:1030F00000000000000000000100000010000000BF
:10310000000000000024F4000000000000000000A7
:04000005080000ED02
:00000001FF
