:020000040800F2
:1000000058210020990100089F2E0008A52B000808
:100010009D2E0008F5090008453300080000000087
:1000200000000000000000000000000001010008C6
:100030003F0D00080000000045010008DD2F00080A
:10004000B3010008B3010008B3010008B3010008C0
:10005000B3010008B3010008B3010008B3010008B0
:10006000B3010008B3010008B3010008D90C00086F
:10007000B3010008B3010008E50C0008F10C00080A
:10008000FD0C0008090D0008B3010008B3010008C9
:10009000B3010008B3010008B3010008B301000870
:1000A000B301000881300008B3010008B301000863
:1000B000B3010008B3010008B3010008B301000850
:1000C000B3010008B3010008B3010008B301000840
:1000D000B301000839330008B3010008B301000878
:1000E000B3010008B3010008B3010008DFF80CD029
:1000F00000F0C6FB004800474D3C00085821002096
:10010000224B19680868B0E8F00F80F30988BFF344
:100110006F8F4FF0000080F311884EF00D0E704786
:100120000000000006480068006880F3088862B696
:1001300061B6BFF34F8FBFF36F8F00DF00BF00BF0B
:1001400008ED00E0EFF30980BFF36F8F0F4B1A68E3
:1001500020E9F00F106008B54FF0500080F31188CF
:10016000BFF34F8FBFF36F8F04F03AFC4FF00000E6
:1001700080F31188BDE8084019680868B0E8F00FFE
:1001800080F30988BFF36F8F704700BF50000020D5
:10019000EFF3058070470000064880470648004797
:1001A000FEE7FEE7FEE7FEE7FEE7FEE7FEE7FEE727
:1001B000FEE7FEE77F300008ED000008202A04DBA0
:1001C000203A21FA02F00021704721FA02F3D040D0
:1001D000C2F12002914008431946704740EA0103EA
:1001E0009B0703D009E008C9121F08C0042AFAD2ED
:1001F00003E011F8013B00F8013B521EF9D27047B1
:10020000D2B201E000F8012B491EFBD27047002258
:10021000F6E710B513460A4604461946FFF7F0FF05
:10022000204610BD421C10F8011B0029FBD1801A8A
:10023000704780EA010210B502F00043400022D06E
:100240004A001FD0010E01EB1261C0F35600C2F349
:10025000560240F4000042F40002A0FB0220000419
:100260007F39140400D0401C50EA124001D44000F1
:10027000491EC2B20C0604EBD010401C4008802A74
:1002800002D003E0002010BD20F00100002900DAB8
:100290000020184310BD2DE9FE4F804681EA03007F
:1002A000C00F0C46009021F0004123F00045B8EB50
:1002B0000200A94105D24046214690461C460B4605
:1002C000024623F00040104347D0270DC7F30A0031
:1002D000C3F30A510290401A019040286BDAC3F32D
:1002E000130040F4801B0098924620B10023D2EB0B
:1002F000030A63EB0B0B01985946C0F140025046CC
:1003000000F06AF906460D4650465946019A00F03B
:1003100072F910EB08006141002487EA115284EA67
:10032000E7731A4340D0009A62B3019A012A4FEA58
:10033000075215DC001B61EB02014FF0004202EA9C
:100340000752CDE90042001C41F5801132462B4690
:1003500000F0A9F903B0BDE8F08F40462146F9E767
:10036000001B61EB0201001C41F5801300185B418A
:100370002018A2F5001747EB030140EAD570B61923
:100380006D4111E06D084FEA360645EAC0754FEA47
:100390000752001B61EB0201001C41F58011490866
:1003A0004FEA30000019514132462B4603B0BDE8F8
:1003B000F04F00F069B90098012240000023D0EB13
:1003C000020263EBE073009821464FEAE074B8EB59
:1003D000000061EB0401E9E783F000435BE781F093
:1003E000004158E72DE9FE4F81EA030404F0004480
:1003F00021F0004100944FF0000B23F0004350EA3D
:1004000001045ED052EA03045BD0C3F30A54C1F383
:100410000A552C44A4F2F3340194A0FB0254C1F316
:10042000130141F48011C3F3130343F4801301FB60
:10043000024400FB034E840A970A44EA815447EAC7
:100440008357A4FB076802958D0A05FB07854FEAD1
:10045000932C04FB0C542705029D4FEA065847EAEB
:100460001637B5EB08056EEB070C870E920E47EAC0
:10047000811742EA8312A7FB0201B6EB0B0164EB82
:1004800000042B0D43EA0C335E1844EB1C50DA4693
:100490005146E7FB0201C5F313044FEA0B3343EA6D
:1004A00014534FEA0432019C43EA0603A4F10C04FE
:1004B0000294009CCDE900B400F0F5F803B0BDE86B
:1004C000F08F00200146F9E796230022114600F044
:1004D000ADB80EB540F2334102910021CDE90011D3
:1004E0000A460B4600F0DFF803B000BD00F0004202
:1004F00030F000400AD0C10D01F56071C0F3160064
:1005000042EA0151C20840071143704700200146EA
:10051000704701F0004330B421F0004150EA01027D
:1005200006D00A0DA2F56072C1F31301002A02DCA5
:1005300030BC00207047440F44EAC104C100E018F9
:1005400030BC00EBC25000F068B830B50B46014635
:1005500000202022012409E021FA02F59D4205D362
:1005600003FA02F5491B04FA02F52844151EA2F10C
:100570000102F1DC30BD2DE9F05F05460020924616
:100580009B4688460646814640241BE02846414655
:1005900047462246FFF712FE53465A46C01A91417B
:1005A00010D311461846224600F016F82D1A67EBB4
:1005B00001084F4622460120002100F00DF817EBFC
:1005C00000094E41201EA4F10104DFDC48463146FB
:1005D0002A464346BDE8F09F202A04DB203A00FA71
:1005E00002F1002070479140C2F1200320FA03F38A
:1005F000194390407047202A06DBCB17203A41FA76
:1006000002F043EAE07306E041FA02F3D040C2F19F
:10061000200291400843194670470029A8BF70473F
:10062000401C490008BF20F00100704710B4B0FA28
:1006300080FC00FA0CF050EA010404BF10BC7047C3
:1006400049B1CCF1200421FA04F411FA0CF118BFDD
:10065000012121430843A3EB0C01CB1D4FEA0061AC
:100660004FEA102042BF002010BC704700EBC3507F
:1006700010440029A4BF10BC7047401C490008BFAB
:1006800020F0010010BC704710B5141E73F1000477
:1006900008DA401C41F1000192185B411A4301D174
:1006A00020F0010010BD2DE9F04D92469B4611B19E
:1006B000B1FA81F202E0B0FA80F220329046FFF700
:1006C0008BFF04460F4640EA0A0041EA0B015346FD
:1006D0005A46084313D0114653EA010019D0C8F115
:1006E00040025046FFF76AFD05460E465046594601
:1006F0004246FFF771FF084305D0012004E0204681
:100700003946BDE8F08D0020054346EAE0762C43EB
:1007100037430A986305E40AA0EB08000022FD0AAB
:1007200044EA47540A3002D500200146E9E70105B2
:1007300010196941DDE9084500196941BDE8F04D2E
:10074000A2E72DE9F04D81EA030404F0004B21F00B
:10075000004514464FF0000A23F0004150EA05021C
:1007600020D054EA01021DD0C5F30A570246C5F352
:100770001303C1F31300C1F30A5640F4801543F488
:100780008013A7EB0608101BD64608F2FD3873EB62
:10079000050002D308F1010801E092185B41B8F1AD
:1007A000000F03DA00200146BDE8F08D00204FF471
:1007B0008011064684460EE0171B73EB050705D330
:1007C000121B63EB050306434CEA010C49084FEA90
:1007D000300092185B4150EA0107EDD152EA030064
:1007E00012D082EA040083EA0501084305D0101BF9
:1007F000AB4106D20122002306E000224FF0004365
:1008000002E06FF0010253101AEB06004CEB0851A6
:1008100010EB0A0041EB0B01BDE8F04DFFF734BFD0
:10082000C1F30A52C1F3130140F2FF3341F48011C6
:100830009A4202DA00200146704740F233439A425E
:10084000A2F2334202DC5242FFF7B8BCFFF7C4BE4B
:1008500030B5041E71F1000404DB4FF00044404247
:1008600064EB0101141E73F1000405DB1C464FF01C
:100870000043524263EB0403994208BF904230BDEB
:10088000064C074D06E0E06840F0010394E80700DD
:1008900098471034AC42F6D3FFF72CFC24560008DE
:1008A0004456000870B5044600688168C943C9070A
:1008B0001CD1816821F00101816000F091FF0546A3
:1008C0000FE000BF00F08CFF401B022809D9A06A8E
:1008D00040F01000A062E06A40F00100E0620120F8
:1008E00070BD20688068C043C007EBD0002070BD99
:1008F00010B50146406A826A12F0500F05D0006AB6
:10090000026BBDE8104008461047816A41F400714F
:10091000816201688968C1F3424107290CD1017BDA
:1009200051B9816A21F480718162816AC90403D45A
:10093000816A41F00101816200F096FB10BD10B5A3
:10094000406A816A41F040018162C16A41F004015C
:10095000C16200F08BFB10BD10B5406A00F085FB52
:1009600010BD0000F8B500260446009600688168B6
:10097000C943C90728D0816841F00101816013484B
:1009800013490068B0FBF1F000E0401E0090002821
:10099000FBD100F025FF054611E000BF00F020FF6D
:1009A000401B02280BD9A06A40F01000A062E06A48
:1009B00040F00100E06284F824600120F8BD206866
:1009C0008068C043C007E9D10020F8BD3400002092
:1009D00040420F0000220421014800F0FCBE00004C
:1009E0000008014001220421014800F0F4BE00008B
:1009F00000080140FEE7000070B50124282000F047
:100A000041F90B4D0221284600F0D8FE40B9502094
:100A100000F038F90221284600F0D0FE00B1002491
:100A2000002000F03BF9012800D0204670BD0000F6
:100A3000000C01402DE9F05F8B46824600F090F8F3
:100A4000FFF7DAFF002855D100F05CF82A4C20703F
:100A500000F058F8607000F055F8A07000F052F8FF
:100A6000E07000F04FF8A0802278637840EA02013D
:100A7000A5781943E678294331430143FF2939D04A
:100A8000D11829443144814234D146EA0526E68012
:100A900043EA02252581F0B2FFF71BFDDFF85C80F9
:100AA000DFF85C9042464B46FFF79CFC04460F463D
:100AB000300AFFF70EFD22463B46FFF7ECFBFFF73F
:100AC00028FDCAF80000E8B2FFF703FD42464B4696
:100AD000FFF788FC07460E46280AFFF7FAFC3A465D
:100AE0003346FFF7D8FBFFF714FDCBF800000020DA
:100AF000BDE8F09F0120FBE7380000209A99999902
:100B00009999B93F2DE9F0410024144F01260120A5
:100B100000F0C4F801281FD0282000F0B3F802210B
:100B2000384600F04BFE88B1C4F1070106FA01F027
:100B30002843C5B2002000F0B1F801280CD0641C95
:100B4000E4B2082CE3D32846BDE8F081C4F10700E5
:100B500006FA00F08543EDE7FF20F5E7000C0140C1
:100B600010B50E4C0221204602F02CFA0022022180
:100B7000204600F030FE44F2506000F083F801227D
:100B80000221204600F027FE142000F07BF82046CA
:100B9000BDE81040022102F00BBA0000000C014039
:100BA00086B0DFF8A480294CDFF8A490012541F23B
:100BB000883B2849081FFFF73DFFD0B126A12248F6
:100BC00002F0C2FB0021206804F0E0F90023CDF818
:100BD00010801A4604A9D9F8000004F02DF800236B
:100BE0001A461946206804F027F8584603F0FCFD21
:100BF000DFE7DFF860A0AAF1100ADAF81000FFF7CB
:100C000075FC06460F46DAF80C00FFF76FFC8DE81E
:100C1000C3002A4614A10C4802F096FB002120686C
:100C200004F0B4F90023CDF810801A4604A9D9F8CD
:100C3000000004F001F800231A461946206803F06A
:100C4000FBFF6D1CD1E70000C4000020180000204D
:100C50001000002048000020476574204461746142
:100C6000204572726F72000025642E2054656D70ED
:100C7000203D202566204309205248203D2025663E
:100C8000200A0000044900220B685A6209684A6A77
:100C90008242FCD370470000D401002070B50D4D96
:100CA00042F20F7410B10AE0641E10D002212846EF
:100CB00000F084FD0128F7D007E0641E07D0022170
:100CC000284600F07BFD0028F7D0002070BD0120F1
:100CD00070BD0000000C0140014800F06FBB000037
:100CE000E8020020014800F069BB0000B4030020C6
:100CF000014800F063BB0000F8030020014800F049
:100D00005DBB000070030020014800F057BB0000ED
:100D10002C03002030B590F840500124AC40C56B46
:100D20006C60046863604368102B036803D09960AB
:100D30000068C26030BD9A600068C16030BD704715
:100D400070B50C4C05464FF0FF31606804F01EF999
:100D50002846FFF767FA82B24FF47A7329460648AD
:100D600001F0C6FE6068BDE8704000231A461946CF
:100D700003F062BF100000206402002072B6FEE79C
:100D8000044900220B685A6209684A6A8242FCD30D
:100D9000704700001C02002010B5FFF71BFE4FF447
:100DA0008C70FFF7EDFF01221349144800F034FA6C
:100DB0002820FFF7E5FFFFF715FE42F2D050FFF7BE
:100DC000DFFF0D480068FFF77FFBFFF78FFB4FF059
:100DD00066320B4BFFF706FBFFF79BFB0949FFF75A
:100DE00028FAFFF783FB084A084BFFF7F5FABDE83E
:100DF0001040FFF78EBB00004C000020F8000020E0
:100E000066666A3F00002A439A9999999999B93F71
:100E1000064982B08A6942F400728A61896901F4E4
:100E20000071009102B000F03DB8000000100240D7
:100E30000EB5144E144D154F012441F2883800BFF1
:100E4000FFF7AAFFFFF752FBCDE90001224610A1F0
:100E50000C4802F079FA0021286804F097F8002382
:100E600002961A4602A9386803F0E6FE00231A46E5
:100E70001946286803F0E0FE4046641C03F0B4FC09
:100E8000DEE70000C4000020180000201000002051
:100E900025642E20415149203D2025662075672F6D
:100EA0006D330A00F8B500250446009590F824003B
:100EB000012808D0012084F824002046FFF7F2FC26
:100EC000060002D04BE00220F8BDA06A20F4885052
:100ED00040F00200A062022000F066FE224909688C
:100EE000B1FBF0F0400000E0401E00900028FBD174
:100EF0002046FFF737FD2068816841F008018160D6
:100F000000F06EFC074604E000F06AFCC01B0A28F3
:100F100011D8206880680007F6D42068816841F005
:100F20000401816000F05CFC07460EE000F058FC14
:100F3000C01B0A2809D9A06A20F0020040F0100066
:100F4000A06284F824500120F8BD20688068400722
:100F5000ECD4A06A20F0020040F00100A06284F806
:100F600024503046F8BD000034000020F8B50024BD
:100F7000009490F824202546012A12D0012280F8FE
:100F800024204A681F23072A0DD20668776B521E59
:100F900002EB820293409F430B6893401F437763A9
:100FA00019E00220F8BD06680D2A0AD2376BD21F5D
:100FB00002EB820293409F430B6893401F433763C9
:100FC00009E0F76A0D3A02EB820293409F430B68F7
:100FD00093401F43F7620A68072306680A2A0AD368
:100FE000F7680A3A02EB420293409F438B689340B2
:100FF0001F43F76008E0376902EB420293409F43CA
:101000008B6893401F4337610A68102A01D0112A68
:1010100020D1124B02689A4217D193681B0219D44F
:10102000936843F4000393600968102912D10C49B6
:101030000C4A0968B1FBF2F101EB8101490000E0C3
:10104000491E00910029FBD104E0816A41F0200192
:101050008162012480F824502046F8BD002401401C
:101060003400002040420F00704770477047000076
:101070002DE9F0414FF0000704003D467ED0A06A04
:10108000002628B9E66284F82460204600F07EF845
:101090002046FFF707FCA16A01F01001014304D0CC
:1010A000A06A40F01000A06268E0A16A21F48851B3
:1010B00041F00201A1626268E169237B0A4347EAC9
:1010C00043010A43A1684FF48077B94208D001294F
:1010D00006D0002194F814C0BCF1010F02D00AE040
:1010E0003946F7E7F3B1A36A43F02003A362E36A4A
:1010F00043F00103E3622368D3F804C02CF4694C85
:101100004CEA010CC3F804C023689968DFF870C08A
:1011100001EA0C0111439960A168B9420BD0012981
:1011200009D00CE0DFF85CC0A3690CEB43330B4340
:1011300043F40061DFE7218A0D05A5F580152168DC
:10114000CB6A23F470032B43CB62216889680E4B72
:101150001940914208D1E662A16A21F0020141F0F2
:101160000101A162BDE8F081A06A20F0020040F018
:101170001000A062E06A40F00100E0620120F1E7A7
:10118000FDF7E1FF00E0FFFFFE0E1FFF70B586B028
:1011900000250646009501950295039500681949BA
:1011A00088422DD11849886940F4007088618869A7
:1011B00000F400700490886940F004008861886938
:1011C000694600F004000490022000900320019082
:1011D0000E4800F003FA0F4C0D48C4E900058020CA
:1011E000C4E90250400020618000C4E905052046A2
:1011F000E56100F08DF908B1FFF7C0FD3462666269
:1012000006B070BD002401400010024000080140FB
:1012100008000240E80200202DE9F0478946044614
:101220003B4900683B4F0E1D9046884201D0B842B2
:1012300007D1306810F4702F03D001252846BDE88F
:10124000F08794F8240001280CD0012084F82400B1
:101250002046FFF787FB05004FF0000004D084F81C
:101260002400EBE70220EAE7A16A40F6016291431D
:1012700041F48071A1622168B94218D1326812F438
:10128000702F14D0A16A41F48011A1623168490520
:1012900005D5A16A21F4005141F48051A162A16AEF
:1012A000C9040AD5E16A21F00601E16206E0A26AFA
:1012B00022F48012A2624968E9E7E06284F824001F
:1012C000216A15488862216A1448C862216A144854
:1012D000086321686FF0020008602068816841F4AB
:1012E00080718160216843464A464C31206A00F093
:1012F0003DF920688168C1F342410729816803D024
:1013000041F48011816099E741F4A001FAE70000FF
:101310000024014000280140F10800085909000894
:101320003F09000810B590F821100024022903D0CD
:101330000421816301243DE001680A6822F00E0265
:101340000A6001680A6822F001020A601A4A01680C
:10135000914201D1012121E0174A1432914201D179
:1013600010211BE0144A2832914201D1891515E061
:10137000114A3C32914201D189140FE00E4A503299
:10138000914202D14FF4803108E00B4A643291421D
:1013900002D14FF4801101E04FF08071064A083A03
:1013A0005160012180F82110002180F82010416B4C
:1013B00001B18847204610BD080002402DE9F05FCA
:1013C000C16B0C6801680B68D0F840C0042202FAB7
:1013D0000CF2494DDFF824A1494E4A4FDFF828B1FD
:1013E000DFF828E122422CD05A072AD50A68920653
:1013F00003D40A6822F004020A600168A94201D1FC
:10140000042219E0514501D1402215E0B14202D138
:101410004FF4806210E0B94202D14FF480420BE0F9
:10142000594502D14FF4802206E0714502D14FF4B4
:10143000800201E04FF080622F4908394A60C16A9A
:101440003BE04FF0020808FA0CF818EA040F4FF0DE
:1014500000094FF0010235D05FEA837832D50B687E
:101460009B0605D40B6823F00A030B6080F821204B
:101470000168A94201D1022219E0514501D120227F
:1014800015E0B14202D14FF4007210E0B94202D12E
:101490004FF400520BE0594502D14FF4003206E000
:1014A000714502D14FF4001201E04FF00072124971
:1014B00008394A6080F82090816A00291AD0BDE876
:1014C000F05F0847082505FA0CF5254212D01B07E6
:1014D00010D50B6823F00E030B6090F84010C36B1F
:1014E00002FA01F15960826380F8212080F820908F
:1014F000016BE2E7BDE8F09F080002401C000240DB
:101500003000024044000240580002406C0002409B
:1015100030B528B308C8134914221944B1FBF2F1BD
:101520008900C16310498163022141771A6843F63B
:10153000F0718A43D0E900142143D0E902452C43DD
:1015400021430469214344692143846921431143B0
:10155000196000214163012242770177084630BDBE
:10156000012030BDF8FFFDBF0000024070B5044609
:1015700090F82000002501280CD0012084F82000DC
:1015800094F821600020012E06D084F82000022566
:10159000284670BD022070BD022684F82160A06339
:1015A0002068066826F0010606602046FFF7B2FBB9
:1015B000E06A00282068016802D041F00E0106E0D0
:1015C00021F0040101602068016841F00A01016016
:1015D0002068016841F001010160D9E72DE9F84F69
:1015E000DFF8B891002409F1040A0AF1040B23463C
:1015F0000F270BF1040EC9E00125A5402A40AA429D
:101600007DD1674ED1F804C0ACEB0608B44532D0AA
:1016100014DCBCF1030F3AD009DCBCF1000F2AD076
:10162000BCF1010F1CD0BCF1020F31D11DE0BCF1A7
:10163000110F17D0BCF1120F2AD119E0B8F5881F8D
:1016400019D006DCB8F5803F15D0B8F5801F1FD142
:1016500011E0B8F5001F0ED0B8F5041F18D10AE04C
:10166000CB6815E0CB681B1D12E0CB6808330FE098
:10167000CB680C330CE08B682BB1012B4FF00803C7
:1016800003D0456104E0042302E0056100E000238B
:10169000FF2A01D8064601E000F104064FEA84055E
:1016A00001D9A5F12005D6F8008007FA05FC28EA43
:1016B0000C0803FA05F548EA0508C6F800804D68ED
:1016C000ED0062D5374DAE6946F00106AE61AD69F9
:1016D00024F0030605F001050095334D06EB050CDB
:1016E000DCF80850A607360F07FA06F825EA0805C1
:1016F000DFF8B880404503D14FF0000817E044E020
:10170000DFF8AC80404502D14FF001080FE0DFF870
:10171000A480404502D14FF0020808E0DFF898802D
:10172000404502D14FF0030801E04FF0040808FAE9
:1017300006F848EA0508CCF808804D68D9F800603A
:10174000ED034D4601D5164300E096432E604D68EB
:10175000DAF80060AD03554601D5164300E0964324
:101760002E604D68DBF80060ED025D4601D5164342
:1017700000E096432E604D68DEF80060AD027546CD
:1017800001D5164300E096432E60641C0D682A467E
:10179000E5407FF431AFBDE8F88F00000004014060
:1017A000000011100010024000000140000801403C
:1017B000000C014000100140001401408068084006
:1017C00000D001207047C26821EA02030A4043EAC0
:1017D0000241016170470AB1016170470904FBE7EA
:1017E00001488068704700002800002070B50400A0
:1017F00025D094F83D00002520B984F83C502046BF
:1018000000F0B8F8242084F83D002068016821F039
:10181000010101602068016841F400410160206815
:10182000016821F40041016000F04EFB4D4A6168FF
:10183000914201D84C4900E04C49884201D2012034
:1018400070BD4B492368B0FBF1F15E6826F03F069E
:101850000E435E606368934206D94FF49673594312
:101860004FF47A73B1FBF3F12368491C1E6A26F02A
:101870003F06314319626168914210D84900401E09
:10188000B0FBF1F2521CC2F30B02042A01D2042075
:1018900022E0B0FBF1F0401CC0F30B001CE0A2689A
:1018A000F2B301EBC10303EB0116431EB3FBF6F3E6
:1018B0005B1C43F480431B0549D092B301EBC1028A
:1018C00002EB0111401EB0FBF1F0401CC0F30B0015
:1018D00040F4804040F400402168CA694CF6FF7330
:1018E0009A431043C861D4E9071001432068026895
:1018F00022F0C00211430160D4E9030101432068D2
:10190000826848F2FF339A4311438160D4E90501AC
:1019100008432168CA6822F0FF021043C86001E052
:101920000EE016E02068016841F0010101602564C5
:10193000202084F83D00256384F83E50002070BDCF
:1019400001EB4106431EB3FBF6F35B1CB3E701203A
:10195000C2E701EB4101401EB0FBF1F0401CC0F3B7
:101960000B00B7E7A086010080841E0000093D003F
:1019700040420F002DE9F04186B000240646009455
:1019800001940294039400682549884244D1254D6E
:10199000A86940F00800A861A869694600F008003D
:1019A0000490C020009012200190032003901E4854
:1019B000FFF714FEE86940F40010E861E8691C4D87
:1019C00000F4001004901948C5E900044FF08008A5
:1019D000C5E902482C614FF400576C61C5E9064720
:1019E0002846FFF795FD08B1FFF7C8F9B5636E62A9
:1019F0000E48104D143801C51020A5E811010D48FE
:101A000045F810496C61C5E90647FFF781FD08B14B
:101A1000FFF7B4F975636E6206B0BDE8F0810000AF
:101A20000054004000100240000C014080000240C1
:101A30002C030020700300200248816802781144C2
:101A40008160704728000020074810B5016841F008
:101A500010010160032000F095F8002000F006F866
:101A600000F03EF8002010BD0020024000B5014605
:101A700087B00022192000F065F8192000F054F812
:101A80001348816941F400618161806905A900F40E
:101A900000600690684600F0F7F900F025FA0D495D
:101AA0000D4AB0FBF1F10D48491E0260416040F261
:101AB000E7320021C0E90321816000F0E7FC10B1AA
:101AC000012007B000BD054800F054FDF9E7000013
:101AD0000010024040420F00002C01403C04002056
:101AE0000F4808B5816941F001018161816901F008
:101AF00001010091C16941F08051C161C0690022BA
:101B000000F0805000900F21901E00F01BF8054857
:101B1000416821F0E06141F00071416008BD0000C2
:101B20000010024000000140002809DB00F01F0205
:101B3000012191404009800000F1E020C0F800112F
:101B400070470000F0B40E4B1B680C46C3F3022331
:101B5000C3F10705042D00D90425191D072901D259
:101B6000002300E0DB1E012606FA05F1491E214094
:101B700099409E40761E16403143F0BC01F0F8BB00
:101B80000CED00E0064900F0070208684FF6FF037D
:101B9000184040EA0220034A1043086070470000E2
:101BA0000CED00E00000FA0510B529A401461DCC9B
:101BB00086B08DE81D002AA02A4C00680490002001
:101BC000012923D002293AD010291DD16168226849
:101BD000D20119D5C1F38342C9031DF8020009D50A
:101BE000616804AAC1F34041515C1F4AB2FBF1F1A4
:101BF000484301E01D4948436168490204D440005C
:101C00005FF00301B0FBF1F006B010BD226AC2F331
:101C10000121012903D1920701D5C803F4E7022964
:101C200005D1626A920702D549F64040ECE70329E4
:101C3000EAD121688903E7D54FF22440E4E700F0B8
:101C400053F96168C1F38131491C4900DAE70000AA
:101C500002030405060708090A0B0C0D0E0F1010ED
:101C6000010200000010024000127A0000093D004D
:101C70002DE9F84305460078354CC00754D0E0699B
:101C80000026C00008D4E06940F08050E061E069BF
:101C9000012600F0805000902E480168C90512D43A
:101CA0000168804641F480710160FFF799FD0746A5
:101CB00005E000BFFFF794FDC01B642823D8D8F8C7
:101CC0000000C005F6D5206A10F4407021D0A98824
:101CD00001F4407181421CD0206A1F49012220F486
:101CE00040700A6000220A602062C00711D0FFF72E
:101CF00077FD074641F2883808E000BFFFF770FD26
:101D0000C11B414502D90320BDE8F883206A800742
:101D1000F4D5206A696820F44070084320621EB13F
:101D2000E06920F08050E0612878800705D5606880
:101D3000A96820F44040084360602878C00605D5B3
:101D40006068E96820F48000084360600020DBE7F9
:101D50000010024000700040400442422DE9F0476C
:101D60000F46050061D0434E306800F00700B842CE
:101D700009D2306820F0070038433060306800F046
:101D80000700B84251D128683B4C810712D5400763
:101D900003D5606840F4E06060602878000703D5F0
:101DA000606840F4605060606068A96820F0F000EE
:101DB000084360602878C00728D06868012810D0E0
:101DC0002168022810D0890700292EDA616821F0E5
:101DD000030101436160FFF703FD804641F288394A
:101DE0000DE021688903EFE78901EDE7FFF7F8FCD3
:101DF000A0EB0801494502D90320BDE8F0876068DF
:101E0000696800F00C00B0EB810FEFD1306800F092
:101E10000700B8420BD9306820F007003843306023
:101E2000306800F00700B84201D00120E5E72878CB
:101E3000400705D56068E96820F4E0600843606009
:101E40002878000706D56068296920F4605040EAC8
:101E5000C100606000F058F86168084AC1F30311DE
:101E6000515CC8400649086006480068FFF7FEFD5F
:101E70000020C2E700200240001002400C5600087B
:101E8000340000202C0000200F2202600C4A53680E
:101E900003F003034360536803F0F0038360536867
:101EA00003F4E063C36052684FF4E06303EAD202D4
:101EB00002610448006800F00700086070470000F5
:101EC00000100240002002400448054900684968AB
:101ED000044AC1F30221515CC8407047340000201D
:101EE000001002401C560008044805490068496873
:101EF000044AC1F3C221515CC8407047340000203D
:101F0000001002401C56000812A185B00FC98DE8D0
:101F10000F0014A0144A006804905168134801F09F
:101F20000C03042B10D0082B0ED1C1F38343C9033B
:101F30001DF803000AD5516804AAC1F34041515C61
:101F40000A4A5043B0FBF1F005B0704708494843D6
:101F5000FAE7000002030405060708090A0B0C0D46
:101F60000E0F1010010200000010024000127A0053
:101F700000093D002DE9F84F040070D02078C04DD5
:101F8000C00749D06868C0F38100012807D068689D
:101F9000C0F38100022809D16868C00306D528680B
:101FA000800339D560680028E7D035E06068B0F577
:101FB000803F0BD010B1B0F5A02F11D0286820F4CD
:101FC00080302860286820F4802002E0286840F4EF
:101FD00080302860606890B1FFF702FC06460AE096
:101FE000286840F480202860F0E700BFFFF7F8FB86
:101FF000801B642873D828688003F7D50CE0FFF7AE
:10200000EFFB064605E000BFFFF7EAFB801B6428F4
:10201000F0D828688003F7D420789A4E80074FF0D4
:1020200001094FF0000839D5686810F00C0F07D08F
:102030006868C0F38100022809D16868C00306D42B
:102040002868800714D52069012808D110E020698C
:10205000B0B1C6F80090FFF7C3FB074605E00AE100
:10206000FFF7BEFBC01B0228C4D828688007F7D53D
:102070002868616920F0F80040EAC10028600DE09E
:10208000C6F80080FFF7ACFB074604E0FFF7A8FBAB
:10209000C01B022823D828688007F7D420780007BF
:1020A0002CD57948A169D9B1C0F80090FFF798FB09
:1020B000074604E0FFF794FBC01B02280FD8686AAC
:1020C0008007F7D571484FF4FA510068B0FBF1F082
:1020D000009000BF0098411E0091FAD20EE080E00F
:1020E000C0F80080FFF77CFB074604E0FFF778FBB1
:1020F000C01B022875D8686A8007F7D4207840078B
:1021000060D5E8690027C00008D4E86940F0805035
:10211000E861E869012700F0805000905C480168A0
:10212000C90513D40168834641F480710160FFF74B
:1021300057FB824606E000BFFFF752FBA0EB0A0008
:1021400064284ED8DBF80000C005F5D5E06801280A
:102150000AD008B1052813D0286A20F001002862AF
:10216000286A20F0040002E0286A40F0010028629A
:10217000E06841F2883B98B1FFF732FB82460BE002
:10218000286A40F004002862EEE700BFFFF728FB52
:10219000A0EB0A0159455AD8286A8007F6D50CE009
:1021A000FFF71EFB824605E0FFF71AFBA0EB0A01D2
:1021B00059454CD8286A8007F6D41FB1E86920F049
:1021C0008050E861E06988B36968C1F38101022940
:1021D00044D00228C6F8608004D0FFF701FB044613
:1021E00038E034E0FFF7FCFA074604E0FFF7F8FABE
:1021F000C01B02282BD828688001F7D4206AB0F5CC
:10220000803F05D16868A16820F400300843686009
:10221000D4E908010843696821F47411084368602F
:10222000C6F86090FFF7DCFA044606E025E000BF40
:10223000FFF7D6FA001B022809D828688001F7D5D5
:102240001BE000BFFFF7CCFA001B022802D90320D5
:10225000BDE8F88F28688001F4D40EE00128F7D09B
:102260006868226A00F48031914204D1616A00F406
:102270007010884201D00120EAE70020E8E7000062
:10228000001002400000424280044242340000201C
:102290000070004070B5040009D0606A002540B1AC
:1022A00025616561A56294F8510040B10CE0012000
:1022B00070BD6068B0F5827FF4D0E561F2E784F824
:1022C0005050204600F040F8022084F85100206869
:1022D000016821F040010160A088218900F482702A
:1022E00001F404410843A18901F400610843217C01
:1022F00001F002010843217D01F001010843218B17
:1023000001F400710843217F01F03801084394F87B
:10231000201001F080010843218D01F40051084391
:1023200021680860A069042101EA10402168486022
:102330002068C16921F40061C1616565012084F8EC
:102340005100002070BD00002DE9F04186B000244E
:102350000646009401940294039400682A49884236
:102360004FD12A48C16941F48041C161C16901F47A
:1023700080410491816941F0080181618069244DA7
:1023800000F0080004904FF42040009002200190DB
:102390000320039069462846FFF720F94FF4804058
:1023A000CDE90004694628460294FFF717F91A4D53
:1023B00018484FF08008C5E90004C5E902482C61BF
:1023C0004FF400576C61C5E906472846FFF7A0F8AF
:1023D00008B1FEF7D3FCF5646E620E480F4D143061
:1023E00001C51020A5E811010C4845F810496C61A1
:1023F000C5E90647FFF78CF808B1FEF7BFFCB564E6
:102400006E6206B0BDE8F081003800400010024066
:10241000000C014044000240B4030020F8030020F7
:102420007047704770B590F83C20012A26D00124EF
:1024300080F83C40022280F83D2003685A689D687D
:1024400022F070060A6832435A600D4B02689A42C5
:1024500008D0B2F1804F05D00A4B9A4202D00A4B05
:102460009A4204D1496825F080031943916080F8AD
:102470003D40002180F83C10084670BD022070BD30
:10248000002C0140000400400008004010B504008A
:1024900003D094F83D0010B107E0012010BD0020EA
:1024A00084F83C00204600F01FF8022084F83D002C
:1024B000211D206800F0EAFD012084F8460084F820
:1024C0003E0084F83F0084F8400084F8410084F81E
:1024D000420084F8430084F8440084F8450084F8FE
:1024E0003D00002010BD000008B501680B48B1F1A7
:1024F000804F0BD00A4A914207D1C16941F00201D5
:10250000C161C06900F00200009008BDC16941F0DE
:102510000101C161C06900F00100F5E7001002404F
:102520000004004090F83D10012901D001207047BF
:10253000022180F83D1000680B49884208D0B0F1B4
:10254000804F05D00949884202D00949884204D108
:10255000816801F00701062903D0016841F00101FB
:102560000160002070470000002C01400004004082
:102570000008004090F83D10012901D0012070476B
:10258000022180F83D100168CA6842F00102CA6069
:1025900000680B49884208D0B0F1804F05D0094946
:1025A000884202D00849884204D1816801F00701BD
:1025B000062903D0016841F0010101600020704745
:1025C000002C0140000400400008004070B50446A3
:1025D00090F83C00012817D0012584F83C500220D7
:1025E00084F83D002068826822F0770222F47F425E
:1025F00082600868502830D00DDC20284DD005DCE2
:1026000098B310283BD148E0022070BD302844D058
:10261000402834D139E0602828D0702806D0B0F5A1
:10262000805F2CD0B0F5005F29D10AE0CB68D1E9FA
:102630000121206800F060FD2068816841F0770189
:1026400009E0CB68D1E90121206800F055FD206840
:10265000816841F48041816011E0CA68496820685E
:1026600000F05CFD5021206807E016E0CA68496868
:10267000206800F064FD6021206800F047FD84F8C8
:102680003D50002084F83C0070BDCA68496820684D
:1026900000F044FD40212068EFE722680146104623
:1026A000EBE7704770B50446006801694FF000051C
:1026B000C943890715D4C168C943890711D4E91EE4
:1026C000016101202077206880698007204602D0C0
:1026D000FFF7E7FF04E000F098F8204600F096F8D6
:1026E000257720680169C943490717D4C168C943E0
:1026F000490713D46FF0040101610220207720689C
:10270000806910F4407F204602D0FFF7CAFF04E042
:1027100000F07BF8204600F079F825772068016901
:10272000C943090716D4C168C943090712D46FF019
:1027300008010161042020772068C06980072046D5
:1027400002D0FFF7AEFF04E000F05FF8204600F093
:102750005DF8257720680169C943C90617D4C168A7
:10276000C943C90613D46FF0100101610820207716
:102770002068C06910F4407F204602D0FFF791FF27
:1027800004E000F042F8204600F040F82577206889
:102790000169C943C90708D1C168C943C90704D140
:1027A000891E0161204600F033F820680169C943A1
:1027B000090609D4C168C943090605D46FF0800130
:1027C00001612046FFF72CFE20680169C9434906D4
:1027D00009D4C168C943490605D46FF040010161BD
:1027E000204600F01FF820680169C94389060BD410
:1027F000C168C943890607D46FF0200101612046F2
:10280000BDE87040FFF70DBE70BD70477047000017
:1028100000680349884201D1FFF70EB970470000F4
:10282000002C01407047704770B50268044610687C
:10283000D168536910F00F0F53D003F0010501F474
:1028400090762E435FD0C20705D0CA0503D5E26B50
:1028500042F00102E263420705D5DA0703D0E26BDA
:1028600042F00202E263820705D5DA0703D0E26B89
:1028700042F00402E263020707D501F020022A4376
:1028800003D0E26B42F00802E263E26B002A34D02C
:10289000800604D5880602D5204600F078FC206822
:1028A0004069E16BC0F3801001F00801014320464C
:1028B00024D000F05EFC2068416949061AD54169C0
:1028C00021F040014161606BA0B12D494163606B13
:1028D000FEF728FD002810D0606B416BBDE870400A
:1028E000084783060FD58B060DD52046BDE87040FE
:1028F00000F04DBC2046FFF796FF70BDFFF793FF39
:102900000020E06370BD03062BD50B0629D594F893
:1029100039002128F6D1A068B0F5805F01D1206987
:10292000B0B1206A411C2162216800784860E08CC7
:10293000401E0004000CE084E4D12068C16821F04E
:102940008001C1602068C16841F04001C16070BD74
:10295000206A0088C0F308005060206A801C206252
:10296000E5E74006F3D54806F1D5D168204621F0C9
:102970004001D160202184F8391000F012F970BDB7
:102980006331000870B5040004D094F839000025C4
:1029900010B106E0012070BD84F83850204600F0E8
:1029A00023F8242084F839002068C16821F40051FC
:1029B000C160204600F032FC2068016921F490419A
:1029C00001612068416921F02A0141612068C168E4
:1029D00041F40051C160E563202084F8390084F897
:1029E0003A00002070BD000030B585B0002400948E
:1029F0000194029403940068184988422CD1184825
:102A0000816941F480418161816901F480410491CF
:102A1000816941F0040181618069124D00F0040078
:102A200004904FF400700090022001900320039066
:102A300069462846FEF7D2FD2815CDE9000469460F
:102A400028460294FEF7CAFD002205212520FFF743
:102A500079F82520FFF768F805B030BD003801404F
:102A6000001002400008014090F83A30202B22D19B
:102A7000F9B1F2B190F83830012B1CD08162828517
:102A8000C2850021C163222280F83A2080F83810E4
:102A90000168CA6842F48072CA6001684A6942F0FB
:102AA00001024A610068C16841F02001C160002054
:102AB00070470120704702207047000010B5006881
:102AC000084988420CD1642301220749074800F0D5
:102AD0000FF8BDE81040012203490448FFF7C4BFC6
:102AE00010BD0000003801401C00002064020020DE
:102AF0002DE9F843044690F839001F4616460D4666
:102B000020284CD1C5B1BEB194F83800012846D078
:102B1000012084F838004FF00008C4F83C802120E0
:102B200084F83900FEF75CFEA6848146E684A0683E
:102B3000B0F5805F03D004E00120BDE8F883206990
:102B400028B12E465FF0000584F838800EE000269C
:102B5000FAE78021204600F0BDFBA0B9AEB116F81F
:102B6000010B21684860E08C401EE084E08C4B46FD
:102B70004FF0000200970028EBD14FF040012046B3
:102B800000F0A8FB30B10320D7E735F8020BC0F303
:102B90000800E6E7202084F839000020CDE7022075
:102BA000CBE77047FEE700003EB5002410480094D4
:102BB000019402940D498460016001250573047538
:102BC00005614FF460214460C161FEF751FA08B11C
:102BD00072B6FEE70095CDE9015469460448FEF758
:102BE000C5F9002801D072B6FEE73EBD00240140C1
:102BF000F8000020234808B5416941F00101416116
:102C00004069214900F001000090204801604FF424
:102C100080414160402181608021C16000210161CB
:102C200041618161C161FEF773FC08B172B6FEE7D4
:102C3000002205210B20FEF785FF0B20FEF774FF15
:102C4000002205210E20FEF77DFF0E20FEF76CFF0F
:102C5000002205210F20FEF775FF0F20FEF764FF0D
:102C6000002205211020FEF76DFF1020FEF75CFF0B
:102C7000002205211120FEF765FFBDE80840112064
:102C8000FEF752BF001002401C000240A4020020C8
:102C90002DE9F04186B00024284800940194029464
:102CA0000394816941F010018161816901F0100193
:102CB0000491816941F020018161816901F0200165
:102CC0000491816941F004018161816901F004018D
:102CD0000491816941F0080181618069184F00F019
:102CE00008004FF400550490002229463846FEF7AC
:102CF00072FDDFF85080002204214046FEF76BFD94
:102D00000126CDE90056022569463846CDE902453F
:102D1000FEF764FC0420CDE9000669464046CDE993
:102D20000245FEF75BFCCDE9005469460648029473
:102D3000FEF754FC06B0BDE8F08100000010024030
:102D40000010014000080140000C01400E4810B581
:102D50000C4901604FF48271416000218160C160C3
:102D60004FF400720161C0E90512C1610162416264
:102D700081620A21C162FFF78DFA002801D072B684
:102D8000FEE710BD003800407C01002010B586B081
:102D900000241648009401940294039404944FF084
:102DA0008041059401602F21C0E901144FF6FF71A5
:102DB000C0E903148461FFF769FB08B172B6FEE74E
:102DC0004FF48050009069460848FFF7FFFB08B1B8
:102DD00072B6FEE7049404A904480594FFF722FBA9
:102DE000002801D072B6FEE706B010BDD401002065
:102DF00010B586B0002417480094019402940394FF
:102E000004941349059401602F21C0E901144FF681
:102E1000FF71C0E903148461FFF738FB08B172B693
:102E2000FEE74FF48050009069460A48FFF7CEFB5A
:102E300008B172B6FEE7049404A906480594FFF7AA
:102E4000F1FA002801D072B6FEE706B010BD00000E
:102E5000000400401C0200200F4810B50D4901601D
:102E60004FF4E1314160002181600C22C160C0E972
:102E700004128161C161FFF785FD08B172B6FEE7FA
:102E8000002211462520FEF75DFEBDE810402520FA
:102E9000FEF74ABE0038014064020020FEE7FEE76C
:102EA0002DE9FC41002204210A2001F02AFE2C4DCC
:102EB0002860012001F01AFE2A4E3060012001F046
:102EC00015FE294F3860012001F010FE274CA0604C
:102ED000296801B10121326802B1012211403A682A
:102EE00002B10122114000B10120014235D003227C
:102EF0000021012001F005FE6060002502242B4620
:102F000080221BA11D48CDE9004502F035F9174884
:102F10000023CDE90040802219A11B4802F02CF9C2
:102F20000120CDE900050023802218A11A4802F0F3
:102F300023F90E4800230C30CDE90040802217A170
:102F4000184802F019F91848FFF7ECFA1748FFF78C
:102F5000E9FABDE8FC4101F0F7BCBDE8FC810000E6
:102F600010000020180000201400002000000020A5
:102F7000546F67676C6550696E0000006945000812
:102F80004448543131000000A10B000844656275CB
:102F900067205461736B0000F13E000847503259BE
:102FA00031303100310E0008D40100201C02002015
:102FB0001FB5002200910192029203926946FEF72A
:102FC0000DFB1FBD1FB5002200910121CDE90112AB
:102FD000022103916946FEF701FB1FBD10B5502089
:102FE00080F31188BFF34F8FBFF36F8F02F030F97A
:102FF00018B104494FF080500860002080F3118818
:1030000010BD000004ED00E030B593B02821684603
:10301000FDF7FDF814210AA8FDF7F9F800250120B5
:103020000F9510951195010412958DE823000490D9
:103030000005CDE90810022407946846FEF79AFFC0
:1030400008B172B6FEE70AA90F2081E831004FF4FB
:103050008060CDE90D0501210AA8FEF77FFE08B1C9
:1030600072B6FEE74FF4804011900F940FA8FEF760
:10307000FFFD002801D072B6FEE713B030BD7047E7
:103080000148FFF70FBB00003C040020F0B50268C8
:10309000164B174C174D4FF08047984205D0B84259
:1030A00003D0A04201D0A84203D122F070064A68A2
:1030B0003243984205D0B84203D0A04201D0A84282
:1030C00003D122F44074CA6822434C6922F0800282
:1030D000224302608A68C2620A688262984201D111
:1030E0000969016301214161F0BD0000002C01402C
:1030F000000400400008004010B5846842EA032242
:1031000024F47F440A432243826010BD826822F087
:1031100070020A4342F007018160704710B5036AEC
:10312000046A24F001040462846924F0F00444EA8F
:10313000021423F00A020A438461026210BD10B532
:10314000036A23F0100303628369046A23F4704363
:1031500043EA023224F0A00343EA011182610162D2
:1031600010BD10B5406A0021C185C184FFF75BFB2B
:1031700010BD0168CA6822F49072CA6001684A6989
:1031800022F001024A61202180F83A10704710B500
:1031900090F83A10222901D0022010BD82684FF425
:1031A00080539A4201D1016921B1816A9A421BD0B0
:1031B0004AB10AE00268816A5268C2F308020A80D2
:1031C000816A891C08E0026972B10268526802F0E3
:1031D0007F020A70816A491C8162C18D491E0904FF
:1031E000090CC18503D016E002685268F1E7016856
:1031F000CA6822F02002CA600168CA6822F480729C
:10320000CA6001684A6922F001024A61202180F8FF
:103210003A10FFF753FC002010BD000070B50446C3
:1032200000680169E26821F440511143016121699C
:10323000A0680843616908432168CA6841F20C63C9
:103240009A430243CA6020684169A26921F440712F
:10325000114341611E492068884202D1FEF744FEB5
:1032600001E0FEF731FE00EBC00101EB00126068E7
:1032700064218000B2FBF0F3B3FBF1F36FF01806AA
:103280007343B2FBF0F5B2FBF0F605EB8305322396
:1032900003EB0515B5FBF1F5B6FBF1F605F0F0050E
:1032A00005EB0615B2FBF0F6B2FBF0F0B0FBF1F067
:1032B0006FF01802504306EB800003EB0010B0FBE8
:1032C000F1F0216800F00F002844886070BD000014
:1032D000003801402DE9F041984617460E46044655
:1032E000069D1DE0681C1BD02DB1FEF779FAA0EBFE
:1032F0000800A84214D92068C16821F4D071C160C7
:103300002068416921F001014161202084F83900E1
:1033100084F83A00002084F838000320BDE8F081EA
:103320002068006836EA000004D00020B842D9D0F6
:103330000020F3E70120F9E70148FFF775BA000024
:1033400064020020FEE700000FB4084B10B504A98A
:1033500002AA039800F0DEF8044602A9002000F05B
:1033600070FC204610BC5DF814FB0000433C0008D4
:103370000907090E002804DB00F1E02080F80014A2
:10338000704700F00F0000F1E02080F8141D704736
:1033900002E008C8121F08C1002AFAD1704770471E
:1033A000002001E001C1121F002AFBD1704700007C
:1033B0002DE9FF5FDDE90220010DDDF838B00243A1
:1033C00018D044F61050A1F2FF3141430D140F986C
:1033D000012820D0A5EB0B00401C5FEA000A4FF04B
:1033E0000004474EDFF81C91A046504616D5CAF19E
:1033F000000728E00F98012443A2012808D00021EB
:1034000000980F9BC0E90021C0E90243BDE8FF9F7F
:103410006FEA0B01F4E7CBF10000DEE7074612E0AC
:10342000F80707D02246334640464946FCF7DAFF04
:10343000804689462246334610461946FCF7D2FF9D
:1034400004460E467F10002FEAD1DDE90201BAF1F1
:10345000000F42464B4602DAFCF7C4FF01E0FDF7DD
:1034600070F904460E460022284BFDF7F1F903D807
:103470004FF0FF30014607E00022254B2046314641
:10348000FCF709FFFDF7CCF9102409E0002C0ADB5A
:103490000A220023FDF76FF8019B30321A55641E93
:1034A00050EA0102F2D1641C019AC4F111031444E0
:1034B0000F9A012A03D0012208430DD10AE00843E4
:1034C00004D000204FF0110B0F9080E7A3EB0B0509
:1034D0006D1E0DE05B4504DD4FF0000205F10105B6
:1034E00004E003DA4FF00002A5F10105002AECD058
:1034F00000980F99C0E90231C0E9004586E7000055
:10350000000024400000F03F300000000000F043C5
:103510000000E03F2DE9FF4F95B09B4689460646E7
:1035200000250FE2252877D100242746F84A0121FB
:10353000059400E0044316F8013F203B01FA03F034
:103540001042F7D130782A2811D06FF02F0330784D
:10355000A0F13002092A16D8059A44F0020402EBC1
:10356000820203EB42021044761C0590EFE759F803
:10357000042B0592002A03DA504244F400540590CB
:1035800044F00204761C30782E2816D116F8010F6C
:1035900044F004042A280DD06FF02F023078A0F1F7
:1035A0003003092B09D807EB870302EB4303C71845
:1035B000761CF3E759F8047B761C30786C280FD022
:1035C00006DC4C2817D068280DD06A2814D104E0F6
:1035D000742810D07A280FD10DE044F400140AE0CA
:1035E00044F4801401E044F440147278824202D121
:1035F00004F58014761C761C307866280BD013DC1A
:10360000582877D009DC002875D04528F6D0462800
:10361000F4D047281AD19DE118E0632835D06428FA
:1036200079D0652812D195E1702873D008DC67281D
:10363000F1D069286FD06E280DD06F2806D1B5E083
:1036400073282CD0752875D0782874D05A461799CD
:1036500090476D1C75E1C4F30250022809D003287D
:103660000DD0D9F8001004280DD00D6009F104091F
:1036700067E1D9F80010EA17C1E90052F6E7D9F876
:1036800000100D80F2E70D70F0E719F8041B8DF8BB
:10369000001000208DF80100EA46012003E059F8EF
:1036A00004AB4FF0FF3061074FF0000102D40DE092
:1036B00008F101018846B9420FDA8045F8DB1AF8B3
:1036C00008100029F4D108E008F101018846814280
:1036D000FADB1AF808100029F6D105985B46A0EB32
:1036E000080721463846179A00F094FA284400EB60
:1036F000080507E04DE029E10DE01AF8010B5A46F4
:1037000017999047B8F10108F7D25B462146384631
:10371000179A13E142E00A220092C4F302524FF0DA
:10372000000A022A08D059F804CB032A4FEAEC71A8
:103730000AD00DE029E02AE009F1070121F0070293
:10374000F2E802C1914609E00FFA8CFC4FEAEC71F5
:10375000042A03D14FFA8CFC4FEAEC71002907DAF6
:103760000A460021DCF1000C61EB02012D2202E08F
:10377000220504D52B228DF80420012203E0E20764
:1037800001D02022F7E7904659E00A2102E01022FA
:103790000DE010214FF0000A00910BE010224FF0D5
:1037A000000A44F004040827009203E008224FF0C6
:1037B000000A0092C4F30252022A05D059F804CB41
:1037C0000021032A08D009E009F1070121F00702CE
:1037D000F2E802C1914605E01FFA8CFC042A01D1EF
:1037E0000CF0FF0C4FF00008220728D5702806D0F7
:1037F000009B83F0100353EA0A0305D00EE0402239
:103800008DF80420012208E05CEA010206D0302293
:103810008DF804208DF8050002229046009B83F06D
:10382000080353EA0A030AD15CEA010201D16207E4
:1038300005D530228DF804204FF001087F1E58284E
:1038400004D034A003900EA802900DE036A0F9E752
:1038500053466046009AFCF78EFE84460398825CCD
:103860000298401E029002705CEA0100F0D10298BA
:1038700006A9081A00F1200A600702D524F4803452
:1038800000E00127574502DDA7EB0A0000E0002019
:1038900000EB0A01009005984144401A0590E003AE
:1038A00006D45B462146179A059800F0B3F9054403
:1038B000002706E001A85A46C05D179990476D1C85
:1038C0007F1C4745F6DBE0030CD55B462146179A83
:1038D000059800F09FF9054404E030205A461799F6
:1038E00090476D1C0099481E00900029F5DC08E007
:1038F000029802995A460078491C029117999047FC
:103900006D1CBAF10001AAF1010AF1DC65E10000C9
:1039100009280100303132333435363738396162A5
:103920006364656600000000303132333435363769
:1039300038394142434445460000000000F058F940
:103940000544761C307800287FF4ECAD19B0284689
:10395000BDE8F08F620700D4062709F1070222F0C4
:10396000070CFCE80223E14603F000485FEA080C7C
:1039700002D00FF2702C0DE05FEA045C02D50FF26A
:10398000682C07E05FEAC47C02D00FF2602C01E0F3
:10399000AFF2700C4FF0FF3823F00043CDF850C069
:1039A00065280CD006DC452809D046281DD04728BC
:1039B0003DD13DE0662818D067287ED138E000214F
:1039C000112F01DB112000E0781CCDE9000106A9D0
:1039D0000EA8FFF7EDFCDDE90F010E9A039100211F
:1039E000009207F1010A04914DE04FF0004000976A
:1039F000CDE9011006A90EA8FFF7DAFCDDE90F02F8
:103A000003920E9B11990022DDF80CA00093049202
:103A100011B9791C00EB010AB7EB0A0004D4C0F11C
:103A2000FF3007F1010A0490AAEB0700019044E07F
:103A3000012F00DA01270021112F01DD112000E004
:103A40003846CDE9000106A90EA8FFF7B1FCDDE973
:103A50000F010E9A0391002104910092BA462107AA
:103A60000CD40399514500DA8A46BAF1010F05DDFD
:103A7000009AAAF10101515C302908D0B84202DA5B
:103A800010F1040F06DA0121CDE9011015E0AAF1C9
:103A90000101E9E7002805DC049901440491AAEB3F
:103AA000000102E0411C514500DD8A460499401A9C
:103AB000401C01904FF000400290200704D4019870
:103AC000504501DBCDF8048000208DF84F000298AE
:103AD0000DF14F07B0F1004F25D02B200E9002982A
:103AE0004FF0020800280CDA404202902D200E9080
:103AF00007E00A210298FCF728FD3031029007F810
:103B0000011DB8F10001A8F10108F2DC02980028BB
:103B1000EFD1791E0E980870307800F0200040F048
:103B2000450007F8020D12A8C01B00F10708149801
:103B3000007800B1012000EB0A01019801EBE0716F
:103B400005984144401A401E0590E00306D45B46A8
:103B50002146179A059800F05DF8054414980078FE
:103B600018B15A46179990476D1CE00324D55B465F
:103B70002146179A059800F04DF805441CE004987A
:103B8000002807DBDDE90301884203DD0098405C83
:103B9000179901E0179930205A469047049805F18B
:103BA0000105401C04900198401E019004D12E2074
:103BB0005A46179990476D1CBAF10001AAF1010A03
:103BC000DDDC05E017F8010B5A46179990476D1C8C
:103BD000B8F10001A8F10108F4DC5B462146179A10
:103BE0000598ABE62D0000002B000000200000002F
:103BF0002DE9F041044600251E461746880404D4EA
:103C000005E039462020B0476D1C641EF9D52846D2
:103C1000BDE8F0812DE9F041044600251E4690469E
:103C2000C80301D5302700E02027880404D505E02B
:103C300041463846B0476D1C641EF9D52846BDE89C
:103C4000F0810A68531C0B6010707047FDF7FCFE92
:103C5000FFF7DAF91A4801681A4841608160FFF7F6
:103C600017F8FEF7C7FFFEF79FFF184816494FF4F5
:103C7000804201601649416000218160C0E9031261
:103C800041618161C1610162FDF7B0FD08B172B6A9
:103C9000FEE7FFF75BF8FFF7DFF8FFF777F8FFF7CE
:103CA000A7F8012207490B48FEF7DEFE0748303827
:103CB000FDF7AEF800B1FEE7FFF7F2F8FEE700000F
:103CC000340000201C000020005400402801002087
:103CD000A0860100640200202DE9F041134C0F463C
:103CE000054666692068001D00F04EFC681C07D17F
:103CF00037B12168BDE8F0410D48091D00F094BCC2
:103D000020683544B5424560216805D2A068BDE809
:103D1000F041091D00F070BC6068091D00F06CFCEA
:103D2000206B854200D22563BDE8F0815000002061
:103D3000740900202DE9F041054600F081FC2D4C6E
:103D40002069401C206120682B4F10B1E06930B31E
:103D50002BE025602069012827D1002606EB86008C
:103D600007EB800000F03AFC761C382EF6D323488F
:103D700000F034FC2148143000F030FC1F4828309B
:103D800000F02CFC1D483C3000F028FC1B48503053
:103D900000F024FC194860601430A06005E0206841
:103DA000E96AC06A884200D82560E06A401CE06287
:103DB0006864E86AA169884200D9A06100EB8000CC
:103DC00007EB8000291D00F02FFC00F059FCE06992
:103DD00000280CD02068E96AC06A884207D20849E6
:103DE0004FF080500860BFF34F8FBFF36F8FBDE877
:103DF000F081000050000020C404002024090020AD
:103E000004ED00E038B500F01BFC104CA068C8B908
:103E10000F4800F0E3FB0E48143000F0DFFB0C48C5
:103E20002060143060600A4B00202833009003F1BA
:103E3000500210210A2000F088FEA06010B105A1F8
:103E400000F09CFCBDE8384000F01ABC8C0000205B
:103E500088090020546D72510000000030B4026CDB
:103E60000B46002A0BD0C1681144C1604468A142CE
:103E700001D30168C16030BC1846FCF7AFB930BC53
:103E800070472DE9F041856B174604460026026C09
:103E900082B1C7B1E068FCF7A1F9E168206C091AAA
:103EA000E1602268914202D26168081AE060022F44
:103EB00016D017E02068A8B9606801F02DFA064610
:103EC000002060600EE0A068FCF788F9216CA06813
:103ED0000844A0606168884204D32068A06001E0C3
:103EE00005B16D1E6D1CA5633046BDE8F081000074
:103EF00008B5064C00226946206800F0ABFF012897
:103F0000F8D10098FCF71CFFF4E700001000002037
:103F100010B5044690F8590058B101280CD0022879
:103F20000FD0502080F31188BFF34F8FBFF36F8FF6
:103F3000FEE7206B00F0B8FB2046BDE8104000F023
:103F4000B3BB10BD10484FF44061420706D0C01DFE
:103F50000D4920F00700411AC1F540610B4A0023CA
:103F60000144C2E900030839103A21F00701116049
:103F70004B600B600B1AC0E9001393604FF00040D8
:103F80005360D0607047000058110020B00000203E
:103F9000144E154CA6F29C474FF08058DFF84C9019
:103FA00012E000BF00F04CFBF068C568281D00F06F
:103FB000EBFA2069401E2061E068401EE06000F0DE
:103FC0005FFB2846FFF7A4FFE0680028EAD13868C5
:103FD0000128F9D9C9F80080BFF34F8FBFF36F8F65
:103FE000F2E70000600900205000002004ED00E02E
:103FF000002807D00021416001600B460A46C160DD
:1040000000F01ABE7047000070B51D46049C51B107
:10401000C4F80020C4E90F010121204600F0C8FDCA
:1040200084F84C5070BD2460F4E72DE9F0470E464B
:10403000DDE909841746824691009946089DA5222C
:10404000206BFCF7DDF86FF00301206B01EB8701BB
:10405000084420F00707780707D0502080F3118824
:10406000BFF34F8FBFF36F8FFEE72218315C82F8EA
:104070003410315C11B1401C1028F6D3002684F8AE
:104080004360382D00D33725E562C4E91356201D5F
:1040900000F0AFFA04F1180000F0ABFA2461C5F1AA
:1040A00038006462A061666584F858604A465146EB
:1040B000384600F047FA2060B8F1000F01D0C8F888
:1040C0000040BDE8F087000030B5114900E011461E
:1040D0000A688242FBD34B685C18844203D1406873
:1040E00018444860084643681C18944209D1084C9B
:1040F000103C2468A24209D052681A4442600A68FF
:1041000012680260814200D0086030BD0460F9E7A7
:10411000B000002070B5002441600B4D0061914259
:1041200006D8D11A8269914206D2011D686807E05B
:104130009A4203D2994201D3012403E0011D286869
:1041400000F05AFA204670BD8C00002010B50446DD
:1041500000F076FAA06B28B15FF0000400F090FA4E
:10416000204610BD0124F9E730B589B0304D55E047
:104170000498002806DADDE90601059A90470498BC
:1041800000284BDB069C606910B1201D00F0FCF993
:1041900002A800F0B9F8024604980A283ED2DFE8E7
:1041A00000F00505053D263705053D260598A16962
:1041B000034601442046FFF7ADFF00B3616A204685
:1041C0008847E069012829D1002000900598A1695D
:1041D000002342181946204601F0E4F978B950202E
:1041E00080F31188BFF34F8FBFF36F8FFEE7059801
:1041F000A06128B1811813462046FFF78BFF0DE020
:10420000502080F31188BFF34F8FBFF36F8FFEE70D
:1042100094F82C0010B9204600F046FA002204A9B8
:10422000A86800F017FE0028A2D109B030BD000038
:104230008C0000202DE9FC410F46054600F0C8FB2C
:1042400001A800F061F80446019818B101F018F9CE
:10425000BDE8FC81224EAFB170680068A8B30027AA
:10426000291B3A46B06800F09DFA01F009F90028D0
:10427000EED11C494FF080500860BFF34F8FBFF361
:104280006F8FE5E7A542EBD801F0FAF830682746D2
:10429000C068C468201D00F077F9E069012810D1DA
:1042A000A0692B4641193A462046FFF733FF40B13B
:1042B00000200346014600902A46204601F072F98C
:1042C00020B1616A20468847C2E707E0502080F3AA
:1042D0001188BFF34F8FBFF36F8FFEE70127BFE752
:1042E0008C00002004ED00E006484168096829B10F
:1042F0004168C968C9684968016370474FF0FF3178
:10430000FAE700005000002070B5054600F09AFF63
:10431000064E04463069844203D200F009F80120B9
:1043200000E0002028602046346170BD8C00002031
:10433000F8B5194D1FE0C068C4680668201D00F07C
:1043400023F9616A20468847E069012813D1A069F2
:104350003044B04206D924616060211D286800F015
:104360004BF908E000200346014600903246204603
:1043700001F018F938B1286801680029DBD16968B3
:10438000C5E90010F8BD502080F31188BFF34F8FAE
:10439000BFF36F8FFEE700008C00002008484068E4
:1043A000401C4FF0500080F3118804D0BFF34F8FB2
:1043B000BFF36F8FFEE7BFF34F8FBFF36F8FFEE743
:1043C000B8000020074C2068016841B1C068002196
:1043D000D0F80000FFF72EFFFFF7C6FEF3E701213C
:1043E0000020F7E78C0000202DE9F041044600F0A2
:1043F00027F994F9455004F1240609E0606A48B1B0
:10440000304601F005F808B100F01CFA6D1E6DB2DF
:10441000002DF3DC4FF0FF3684F8456000F030F9F2
:1044200000F00EF994F9445004F1100709E02069F6
:1044300048B1384600F0ECFF08B100F003FA6D1EF9
:104440006DB2002DF3DC84F84460BDE8F04100F06B
:1044500017B900002DE9F0410546002700F0B8FA31
:10446000314E306808B9FFF76DFDF06805424BD159
:10447000C5B3083568070ED005F00700C0F1080085
:104480000544680707D0502080F31188BFF34F8F91
:10449000BFF36F8FFEE72DB37068854234D8224892
:1044A000103001460C6801E020460C466168A942C4
:1044B00002D221680029F7D131688C4224D00768E4
:1044C0002168016060680837411B10290FD9601905
:1044D000420708D0502080F31188BFF34F8FBFF3FD
:1044E0006F8FFEE710E041606560FFF7EDFD6168EA
:1044F0007068401A7060B268904200D2B060F06894
:1045000001430020C4E9000100F0BAFF780707D09A
:10451000502080F31188BFF34F8FBFF36F8FFEE7FA
:104520003846BDE8F0810000A0000020044908687A
:1045300018B10868026D521C0265086870470000D7
:104540005000002010B5031F4FF080741C601B1F2B
:1045500021F001011960191F024B0B60143940381A
:104560000A6010BD9D430008064D4FF4005441F20F
:10457000883621462846FDF726F9304600F034F902
:10458000F7E7000000100140D0E9013201699A60AC
:10459000D0E901235A604A68824201D182684A60A8
:1045A000002202610868401E086008687047000029
:1045B000034B036003F15C000860802010607047CB
:1045C000A00A0020044B036003F15C0008604FF474
:1045D0008070106070470000FC0C002000F10801A2
:1045E0004FF0FF32C0E90112C1600161002101609A
:1045F000704700210161704730B50B685A1C02D02A
:1046000000F1080202E0026904E0224654682568CD
:104610009D42FAD953684B6099608A605160086185
:104620000168491C016030BD42684A6093688B6034
:1046300093685960916008610168491C0160704786
:10464000502080F31188BFF34F8FBFF36F8F0A495B
:104650004868401C486001280CD10848006810F0E8
:10466000FF0F07D0502080F31188BFF34F8FBFF3A7
:104670006F8FFEE770470000B800002004ED00E0F7
:104680000849486828B1401E486001D180F311886C
:104690007047502080F31188BFF34F8FBFF36F8FA7
:1046A000FEE70000B800002070B5002827D0144DA8
:1046B000A0F108046168E868014207D1502080F346
:1046C0001188BFF34F8FBFF36F8FFEE722683AB1B7
:1046D000502080F31188BFF34F8FBFF36F8FFEE739
:1046E0008143616000F074F960686968084468603B
:1046F0002046FFF7E9FCBDE8704000F0C1BE70BD88
:10470000A00000204FF0E0200021016181610549F7
:104710004FF47A720968B1FBF2F1491E4161072139
:10472000016170473400002010B5FBF731FD1149DD
:1047300010280ED300F1E02090F8F0030A789042A0
:1047400007D2502080F31188BFF34F8FBFF36F8FD4
:10475000FEE709480068896800F4E060884207D9EC
:10476000502080F31188BFF34F8FBFF36F8FFEE7A8
:1047700010BD0000B80000200CED00E010B5084BA3
:10478000002200BF53F832401CB1521C082AF9D352
:1047900010BD43F8321003EBC201486010BD0000A9
:1047A0008404002070B515460E460446FFF748FF06
:1047B00094F944100020491C01D184F8440094F974
:1047C0004510491C01D184F84500FFF759FFA06B43
:1047D00028B92A46314604F1240000F051F8204659
:1047E000BDE87040FFF700BE10B5020014D00F48BE
:1047F000806B38B1502080F31188BFF34F8FBFF327
:104800006F8FFEE700F0E4F800211046FFF764FA2E
:1048100000F036FE002807D105494FF080500860AF
:10482000BFF34F8FBFF36F8F10BD0000500000200B
:1048300004ED00E002498A6A0260496941607047FC
:1048400050000020014901204862704750000020BC
:1048500010B50C4650B1094909681831FFF7CCFE74
:104860002046BDE810400121FFF736BA502080F302
:104870001188BFF34F8FBFF36F8FFEE7500000200A
:1048800070B514460D4668B10A4909681831FFF73A
:10489000CBFE0CB14FF0FF3521462846BDE87040F5
:1048A000FFF71ABA502080F31188BFF34F8FBFF380
:1048B0006F8FFEE75000002070B504003ED0226DDF
:1048C000A2B1E06C884200D30146E06A884235D04C
:1048D000012A33D11A4D2A6894420FD1502080F317
:1048E0001188BFF34F8FBFF36F8FFEE7502080F327
:1048F0001188BFF34F8FBFF36F8FFEE7E162A269AC
:10490000002A02DBC1F13801A1610E4E00EB8000EC
:10491000616906EB8000814210D1201DFFF734FE53
:10492000E06AA969884200D9A86100EB800006EB23
:104930008000211DBDE87040FFF776BE70BD00000D
:1049400050000020C404002030B587B00024039438
:1049500005AA04A903A80494FFF72AFEDDE90301D0
:104960000094CDE90110002315A11748059A00F025
:1049700030FC164D002868631FD000F0E3FD0128CD
:1049800009D0401C19D1502080F31188BFF34F8FFC
:10499000BFF36F8FFEE7502080F31188BFF34F8F76
:1049A000BFF36F8F4FF0FF3028630120E8616C6127
:1049B00007B0BDE8304000F045B807B030BD00009A
:1049C00049444C4500000000913F00085000002081
:1049D0000248816B491C8163704700005000002031
:1049E000164810B5816B11B10121416210BD002143
:1049F00041628169124A01E0B9B1491E01EB8103AC
:104A000052F82330002BF7D001EB810302EB830235
:104A100002F1080453685B685360A34201D15B68EC
:104A20005360DA680260816110BD502080F3118804
:104A3000BFF34F8FBFF36F8FFEE7000050000020E1
:104A4000C40400201CB5264908780190FF20087096
:104A500008788DF800009DF800009DF8002000F017
:104A6000F000904207D0502080F31188BFF34F8FA1
:104A7000BFF36F8FFEE79DF800001A4B00F0500067
:104A800018700720986005E09DF8002052008DF80E
:104A90000020401E9DF800201206F5D498600328DF
:104AA00007D0502080F31188BFF34F8FBFF36F8F73
:104AB000FEE74FF440709860019808700A4801685A
:104AC00041F470010160016841F070410160FFF73D
:104AD00019FE00205860FBF725FB00201CBD0000DC
:104AE00000E400E0B800002020ED00E010B5024630
:104AF0000021012000F005F80446FFF779FA20466E
:104B000010BDF8B517460E46050014D0DEB105FB02
:104B100006F05030FFF79EFC04000AD0002084F815
:104B2000460004F150023B46314628460094FFF708
:104B30006BFA2046F8BD502080F31188BFF34F8FE9
:104B4000BFF36F8FFEE70020E3E738B5049D18B18F
:104B500053B1CAB181B120E0502080F31188BFF376
:104B60004F8FBFF36F8FFEE7502080F31188BFF3A4
:104B70004F8FBFF36F8FFEE7502080F31188BFF394
:104B80004F8FBFF36F8FFEE739B1502080F311884C
:104B9000BFF34F8FBFF36F8FFEE750241C460123F6
:104BA00084F846302B460094FFF72EFA204638BD95
:104BB00070B50D46040025D0FFF742FDD4E90F2063
:104BC000216802FB001161600021A1632168A160DE
:104BD0000A46D4E90F01401E00FB0121E160214695
:104BE0004FF0FF3001F8440F487004F110008DB110
:104BF000FFF7F4FC04F12400FFF7F0FCFFF740FDA1
:104C0000012070BD502080F31188BFF34F8FBFF398
:104C10006F8FFEE721690029F0D000F0F9FB002832
:104C2000ECD004494FF080500860BFF34F8FBFF3C2
:104C30006F8FE3E704ED00E02DE9FF4782B01D46EA
:104C40008A464FF00008040003D0BAF1000F08D0E4
:104C500011E0502080F31188BFF34F8FBFF36F8FA7
:104C6000FEE7206C38B1502080F31188BFF34F8FDE
:104C7000BFF36F8FFEE7022D0AD1E06B012807D04A
:104C8000502080F31188BFF34F8FBFF36F8FFEE783
:104C900000F0CAFA3F4F4FF000094FF0805648B974
:104CA000049838B1502080F31188BFF34F8FBFF3C1
:104CB0006F8FFEE7FFF7C4FCA06BE16B884207D360
:104CC000022D05D00498D0B1B8F1000F1AD01EE023
:104CD0002A4651462046FFF7D4F8616A19B104F11B
:104CE000240000F095FB20B13E60BFF34F8FBFF36F
:104CF0006F8FFFF7C5FC012006B0BDE8F087FFF716
:104D0000BFFC22E06846FFF795FD4FF00108FFF772
:104D1000B7FCFFF75DFEFFF793FC94F94400401CDD
:104D200001D184F8449094F94500401C01D184F8E5
:104D30004590FFF7A5FC04A9684600F0E3F930B1FF
:104D40002046FFF751FB00F09BFB0020D4E7FFF764
:104D500077FCA06BE16B884213D1FFF791FC04F163
:104D600010000499FFF774FD2046FFF73DFB00F0AB
:104D700087FB00289ED13E60BFF34F8FBFF36F8F3C
:104D800098E7FFF77DFC2046FFF72EFB00F078FB4D
:104D900090E7000004ED00E02DE9F0471F46904643
:104DA0008946040003D0B9F1000F08D011E050206B
:104DB00080F31188BFF34F8FBFF36F8FFEE7206C36
:104DC00038B1502080F31188BFF34F8FBFF36F8F3E
:104DD000FEE7022F0AD1E06B012807D0502080F3B4
:104DE0001188BFF34F8FBFF36F8FFEE7FFF79CFC77
:104DF0005020EFF3118680F31188BFF34F8FBFF37C
:104E00006F8FA06BE16B884206D3022F04D0002085
:104E100086F31188BDE8F08794F945503A46494633
:104E20002046FFF72EF8681C04D06D1C84F845500E
:104E30000120EDE7606A0028FAD004F1240000F0B8
:104E4000E7FA0028F4D0B8F1000FF1D00121C8F83A
:104E50000010EDE72DE9F747002683B08A460400ED
:104E600003D0BAF1000F08D011E0502080F3118870
:104E7000BFF34F8FBFF36F8FFEE7206C38B1502028
:104E800080F31188BFF34F8FBFF36F8FFEE700F001
:104E9000CBF9DFF8F4804FF000094FF0805748B9A4
:104EA000059838B1502080F31188BFF34F8FBFF3BE
:104EB0006F8FFEE7FFF7C4FBA56BC5B151462046D7
:104EC000FEF7CCFF6D1EA563206950B104F1100000
:104ED00000F09EFA28B1C8F80070BFF34F8FBFF3FF
:104EE0006F8FFFF7CDFB012006B0BDE8F087059876
:104EF00008B11EB106E0FFF7C3FB27E06846FFF7E5
:104F000099FC0126FFF7BCFBFFF762FDFFF798FB5A
:104F100094F94400401C01D184F8449094F9450070
:104F2000401C01D184F84590FFF7AAFB05A968460B
:104F300000F0E8F8002820460AD0FFF755FA00F004
:104F40009FFA2046FFF702F90028B3D00020CBE7F4
:104F5000FFF7FCF890B104F124000599FFF778FC05
:104F60002046FFF741FA00F08BFA0028A2D1C8F8DA
:104F70000070BFF34F8FBFF36F8F9BE72046FFF7A3
:104F800033FA00F07DFA95E704ED00E02DE9F343F4
:104F9000002683B00400354609D0206C78B150203B
:104FA00080F31188BFF34F8FBFF36F8FFEE7502060
:104FB00080F31188BFF34F8FBFF36F8FFEE700F0D0
:104FC00033F9DFF83C814FF000094FF0805748B9C2
:104FD000049838B1502080F31188BFF34F8FBFF38E
:104FE0006F8FFEE7FFF72CFBA06BC8B1401EA063DC
:104FF000206810B9FFF79AFA6060206950B104F197
:10500000100000F005FA28B1C8F80070BFF34F8F08
:10501000BFF36F8FFFF734FB012005B0BDE8F083CD
:10502000049808B166B10FE03DB1502080F31188BB
:10503000BFF34F8FBFF36F8FFEE7FFF721FB5DE0FC
:105040006846FFF7F7FB0126FFF71AFBFFF7C0FCE6
:10505000FFF7F6FA94F94400401C01D184F844901B
:1050600094F94500401C01D184F84590FFF708FBF6
:1050700004A9684600F046F80028204612D0FFF741
:10508000B3F900F0FDF92046FFF760F80028A9D039
:105090009DB3FFF7D5FA606A50B3206B0068C0F18A
:1050A000380126E0FFF752F8E0B1206838B9FFF781
:1050B000C7FA606800F070F90546FFF7E1FA04F1FD
:1050C00024000499FFF7C4FB2046FFF78DF900F098
:1050D000D7F9002886D1C8F80070BFF34F8FBFF30F
:1050E0006F8F7FE72046FFF77FF900F0C9F979E776
:1050F00000216068FFF7E0FB9FE7FFE700208CE7F7
:1051000004ED00E02DE9F0410C46050011D0C4B1DA
:10511000FFF796FA174B5A696E682068911B471C77
:1051200017D02F689B6A9F4219D0964217D8012446
:1051300010E0502080F31188BFF34F8FBFF36F8FC3
:10514000FEE7502080F31188BFF34F8FBFF36F8FBE
:10515000FEE70024FFF794FA2046BDE8F08188427C
:1051600005D9401A20602846FFF764FBF1E70020CC
:105170002060DCE7500000202DE9FF5F8346DDE979
:105180000E87994616468A469000FFF763F9050098
:105190001CD05C20FFF75EF9040014D000202563CA
:1051A00084F85900CDE90240CDE900874B463246EC
:1051B00051465846FEF739FF2046FEF7BBFD012059
:1051C00004B0BDE8F09F2846FFF76EFA4FF0FF30BD
:1051D000F6E7F0B585B0DDE90B640A9DA6B1DCB158
:1051E0005C2700972663022684F85960002604AFE6
:1051F000CDE90246CDE90057FEF717FF2046FEF73E
:1052000099FD049805B0F0BD502080F31188BFF3DC
:105210004F8FBFF36F8FFEE7502080F31188BFF3ED
:105220004F8FBFF36F8FFEE70548C16919B1806BDF
:1052300018B100207047012070470220704700001D
:1052400050000020014840697047000050000020D5
:105250002DE9F0412E4C0027A06B40B1206A401C84
:105260002062606A00B101273846BDE8F0816669B6
:10527000761C666113D16068006838B1502080F3F5
:105280001188BFF34F8FBFF36F8FFEE76068A1688F
:105290006160A060A06A401CA062FFF725F8206B47
:1052A000DFF87080864209D36068006880B160686A
:1052B000C068C568686886420DD220632068C06AED
:1052C00000EB800158F821000128CAD90127C8E75E
:1052D0004FF0FF30F1E7281DFFF756F9A86A18B123
:1052E00005F11800FFF750F9E86AA169884200D972
:1052F000A06100EB800108EB8100291DFFF794F904
:10530000E86A2168C96A8842CED30127CCE7000049
:1053100050000020C404002070B504004FF00001CC
:1053200033D01B4D2868844207D0502080F3118869
:10533000BFF34F8FBFF36F8FFEE7206D38B1401E74
:105340002065E36CE26A9A421FD040B11DE0502014
:1053500080F31188BFF34F8FBFF36F8FFEE7201DDF
:10536000FFF712F9E06CE062C0F13800A061E06A7A
:10537000A969884200D9A861064900EB800001EBC9
:105380008000211DFFF750F90121084670BD000083
:1053900050000020C404002070B504004FF000004D
:1053A0002BD0194DE16A2A68D26A914226D2A069AF
:1053B000002804DB2868C06AC0F13800A061134EE1
:1053C00001EB8101606906EB8101884211D1201D4A
:1053D000FFF7DAF82868C06AE062A969884200D954
:1053E000A86100EB800006EB8000211DFFF71CF98F
:1053F00002E02868C06AE062012070BDE16C2A68A2
:10540000D26A9142F8D370BD50000020C40400203D
:1054100070B5C068C46854B104F118000646FFF7BF
:10542000B3F8144DA86B50B13146134815E0502025
:1054300080F31188BFF34F8FBFF36F8FFEE7201DFE
:10544000FFF7A2F8E06AA969884200D9A8610B4970
:1054500000EB800001EB8000211DFFF7E5F8E06A1A
:105460002968C96A884202D90120686270BD00209B
:1054700070BD0000500000204C090020C404002032
:105480002DE9F0472C4D00242746A86B38B1FFF7D3
:10549000D7F8A86B401EA863A86B40B146E0502027
:1054A00080F31188BFF34F8FBFF36F8FFEE7296939
:1054B000224E0120D1B3A6F5916980463068E0B153
:1054C000F068C46804F11800FFF75EF8201DFFF7CC
:1054D0005BF8E06AA969884200D9A86100EB800105
:1054E00009EB8100211DFFF79FF8E06A2968C96A6E
:1054F0008842E3D3C5F82480E0E70CB1FEF7F4FE60
:105500002C6A4CB14FEA0806FFF7A2FE00B16E62AA
:10551000641EF9D100202862686A38B10849012761
:1055200038070860BFF34F8FBFF36F8FFFF7A8F8FE
:105530003846BDE8F0870000500000204C090020EC
:1055400004ED00E010B586B0FEF75CFC114CA068DD
:10555000B8B100200390049005AA04A903A8FFF79E
:1055600031F8DDE9032102208DE8070000230AA1BC
:105570000B48059AFFF72DFEE06010B106B0012040
:1055800010BD502080F31188BFF34F8FBFF36F8F92
:10559000FEE700008C000020546D722053766300FB
:1055A000C54300082DE9FF411E46134602000A9D2F
:1055B0004FF0000016D0144CA768002F0FD0CDE993
:1055C00000130292062917DAFFF72EFE02284FF089
:1055D00000030FD000226946A068FFF72DFB04B03E
:1055E000BDE8F081502080F31188BFF34F8FBFF3E7
:1055F0006F8FFEE72A46EEE70023324669463846BB
:10560000FFF7CAFBEBE700008C0000200000000061
:105610000000000001020304060708090000000062
:10562000010203044456000800000020C4000000EA
:105630009033000808570008C400002094200000A0
:10564000A03300080000000000000000000000007F
:10565000000000000000000000000000000000004A
:105660000000000000000000000000000100000039
:1056700010000000000000000024F4000000000002
:10568000000000000000000000000000000000001A
:10569000000000000000000000000000000000000A
:1056A00000000000000000000000000000000000FA
:1056B00000000000000000000000000000000000EA
:1056C00000000000000000000000000000000000DA
:1056D00000000000000000000000000000000000CA
:1056E00000000000000000000000000000000000BA
:1056F00000000000000000000000000000000000AA
:08570000AAAAAAAA00000000F9
:04000005080000ED02
:00000001FF
