:020000040800F2
:10000000784D0020990100081F3B00080B340008C0
:100010001D3B0008250E0008814400080000000078
:1000200000000000000000000000000001010008C6
:10003000B11400080000000045010008813F0008DD
:10004000B3010008B3010008B3010008B3010008C0
:10005000B3010008B3010008B3010008B3010008B0
:10006000B3010008B3010008B3010008B3010008A0
:10007000B3010008B3010008B3010008B301000890
:10008000B3010008B3010008B3010008B301000880
:10009000B3010008B3010008B3010008B301000870
:1000A000B301000851400008B3010008B301000883
:1000B000B3010008B3010008B3010008B301000850
:1000C000B3010008B3010008B3010008B301000840
:1000D000B301000851420008B30100085D42000866
:1000E000B3010008B3010008B3010008DFF80CD029
:1000F00000F0A6FC0048004701520008784D00209F
:10010000224B19680868B0E8F00F80F30988BFF344
:100110006F8F4FF0000080F311884EF00D0E704786
:100120000000000006480068006880F3088862B696
:1001300061B6BFF34F8FBFF36F8F00DF00BF00BF0B
:1001400008ED00E0EFF30980BFF36F8F0F4B1A68E3
:1001500020E9F00F106008B54FF0500080F31188CF
:10016000BFF34F8FBFF36F8F06F0A6FA4FF000007A
:1001700080F31188BDE8084019680868B0E8F00FFE
:1001800080F30988BFF36F8F704700BF80000020A5
:10019000EFF3058070470000064880470648004797
:1001A000FEE7FEE7FEE7FEE7FEE7FEE7FEE7FEE727
:1001B000FEE7FEE723400008ED0000082DE9F041CE
:1001C0000024061B254671F1000605DA01240027EC
:1001D000D0EB070067EB0101161E73F1000605DA8C
:1001E0000027D2EB0702012567EB030300F06BFA4F
:1001F00086460E4617469C46AC4204D00025D0EBFE
:10020000050E65EB010624B10020D2EB000760EB80
:10021000030C704631463A466346BDE8F081202A19
:1002200004DB203A21FA02F00021704721FA02F3A0
:10023000D040C2F12002914008431946704740EA7D
:1002400001039B0703D009E008C9121F08C0042A54
:10025000FAD203E011F8013B00F8013B521EF9D23B
:100260007047D2B201E000F8012B491EFBD2704763
:100270000022F6E710B513460A4604461946FFF772
:10028000F0FF204610BD421C10F8011B0029FBD1D5
:10029000801A704710B5002200E0521C835C8C5C11
:1002A000A34201D1002BF8D1D8B2E1B2401A10BD5F
:1002B000034611F8012B00F8012B002AF9D118464A
:1002C000704770B5064604F039F9046805460A22FD
:1002D0000021304600F049FA2C6070BD80EA01022E
:1002E00010B502F00043400022D04A001FD0010E9A
:1002F00001EB1261C0F35600C2F3560240F4000055
:1003000042F40002A0FB022000047F39140400D054
:10031000401C50EA124001D44000491EC2B20C06F3
:1003200004EBD010401C4008802A02D003E00020DB
:1003300010BD20F00100002900DA0020184310BD94
:1003400030B480EA010202F0004530F0004221F0B2
:10035000004013D090B1C30DD40DC2F31601C0F309
:100360001600E41A41F4000140F400027D34914289
:1003700001D3641C00E04900002C02DA30BC0020EC
:1003800070474FF400000023914201D3891A0343C0
:1003900040084FEA4101F7D151B1914202D14FF0EB
:1003A000004105E002D24FF0010101E06FF00101D0
:1003B00003EBC450284430BC00F00FBA420005D013
:1003C000C0F3C7525242914201DC0020704700EB5B
:1003D000C15070472DE9FE4F804681EA0300C00FEF
:1003E0000C46009021F0004123F00045B8EB0200DC
:1003F000A94105D24046214690461C460B4602467E
:1004000023F00040104347D0270DC7F30A00C3F381
:100410000A510290401A019040286BDAC3F313008E
:1004200040F4801B0098924620B10023D2EB030ACF
:1004300063EB0B0B01985946C0F14002504600F0A7
:1004400073F906460D4650465946019A00F07BF96D
:1004500010EB08006141002487EA115284EAE77337
:100460001A4340D0009A62B3019A012A4FEA075218
:1004700015DC001B61EB02014FF0004202EA07525B
:10048000CDE90042001C41F5801132462B4600F0B8
:10049000EAF903B0BDE8F08F40462146F9E7001BBA
:1004A00061EB0201001C41F5801300185B4120182C
:1004B000A2F5001747EB030140EAD570B6196D416C
:1004C00011E06D084FEA360645EAC0754FEA07525B
:1004D000001B61EB0201001C41F5801149084FEA45
:1004E00030000019514132462B4603B0BDE8F04FB1
:1004F00000F0AAB90098012240000023D0EB0202CC
:1005000063EBE073009821464FEAE074B8EB00001B
:1005100061EB0401E9E783F000435BE781F0004110
:1005200058E72DE9FE4F81EA030404F0004421F06E
:10053000004100944FF0000B23F0004350EA010407
:100540005ED052EA03045BD0C3F30A54C1F30A55E8
:100550002C44A4F2F3340194A0FB0254C1F3130120
:1005600041F48011C3F3130343F4801301FB0244ED
:1005700000FB034E840A970A44EA815447EA8357F2
:10058000A4FB076802958D0A05FB07854FEA932CAB
:1005900004FB0C542705029D4FEA065847EA16371C
:1005A000B5EB08056EEB070C870E920E47EA811734
:1005B00042EA8312A7FB0201B6EB0B0164EB0004D5
:1005C0002B0D43EA0C335E1844EB1C50DA465146BF
:1005D000E7FB0201C5F313044FEA0B3343EA14535C
:1005E0004FEA0432019C43EA0603A4F10C0402948E
:1005F000009CCDE900B400F036F903B0BDE8F08FFF
:1006000000200146F9E7C10F80EAE0700844CA07FC
:100610009623002100F0EAB896230022114600F04C
:10062000E5B80EB540F2334102910021CDE9001149
:100630000A460B4600F017F903B000BD00F0004277
:1006400030F000400AD0C10D01F56071C0F3160012
:1006500042EA0151C2084007114370470020014699
:10066000704701F0004330B421F0004150EA01022C
:1006700006D00A0DA2F56072C1F31301002A02DC54
:1006800030BC00207047440F44EAC104C100E018A8
:1006900030BC00EBC25000F0A0B830B50B460146AC
:1006A00000202022012409E021FA02F59D4205D311
:1006B00003FA02F5491B04FA02F52844151EA2F1BB
:1006C0000102F1DC30BD2DE9F05F054600209246C5
:1006D0009B4688460646814640241BE02846414604
:1006E00047462246FFF79BFD53465A46C01A9141A2
:1006F00010D311461846224600F016F82D1A67EB63
:1007000001084F4622460120002100F00DF817EBAA
:1007100000094E41201EA4F10104DFDC48463146A9
:100720002A464346BDE8F09F202A04DB203A00FA1F
:1007300002F1002070479140C2F1200320FA03F338
:10074000194390407047202A06DBCB17203A41FA24
:1007500002F043EAE07306E041FA02F3D040C2F14E
:10076000200291400843194670472DE9F047914611
:100770000F4680460446002614F8015B2DB100F0B8
:1007800071F90068405DC007F6D12B2D02D02D2DE8
:1007900018D0641E4A463946204600F067F927B152
:1007A0003968A14201D1C7F8008071054FF00204F9
:1007B0000BD54042002803DD03F0C0FE0460A00713
:1007C000BDE8F08746F48066E4E70028F8DA03F035
:1007D000B5FE04606FF00040F2E70029A8BF704743
:1007E000401C490008BF20F00100704710B4B0FA67
:1007F00080FC00FA0CF050EA010404BF10BC704702
:1008000049B1CCF1200421FA04F411FA0CF118BF1B
:10081000012121430843A3EB0C01CB1D4FEA0061EA
:100820004FEA102042BF002010BC704700EBC350BD
:1008300010440029A4BF10BC7047401C490008BFE9
:1008400020F0010010BC704710B5141E73F10004B5
:1008500008DA401C41F1000192185B411A4301D1B2
:1008600020F0010010BD2DE9F04D92469B4611B1DC
:10087000B1FA81F202E0B0FA80F220329046FFF73E
:1008800053FF04460F4640EA0A0041EA0B01534673
:100890005A46084313D0114653EA010019D0C8F153
:1008A00040025046FFF7BBFC05460E4650465946EF
:1008B0004246FFF739FF084305D0012004E02046F7
:1008C0003946BDE8F08D0020054346EAE0762C432A
:1008D00037430A986305E40AA0EB08000022FD0AEA
:1008E00044EA47540A3002D500200146E9E70105F1
:1008F00010196941DDE9084500196941BDE8F04D6D
:10090000A2E72DE9F04D81EA030404F0004B21F049
:10091000004514464FF0000A23F0004150EA05025A
:1009200020D054EA01021DD0C5F30A570246C5F390
:100930001303C1F31300C1F30A5640F4801543F4C6
:100940008013A7EB0608101BD64608F2FD3873EBA0
:10095000050002D308F1010801E092185B41B8F1EB
:10096000000F03DA00200146BDE8F08D00204FF4AF
:100970008011064684460EE0171B73EB050705D36E
:10098000121B63EB050306434CEA010C49084FEACE
:10099000300092185B4150EA0107EDD152EA0300A2
:1009A00012D082EA040083EA0501084305D0101B37
:1009B000AB4106D20122002306E000224FF00043A3
:1009C00002E06FF0010253101AEB06004CEB0851E5
:1009D00010EB0A0041EB0B01BDE8F04DFFF734BF0F
:1009E000C1F30A52C1F3130140F2FF3341F4801105
:1009F0009A4202DA00200146704740F233439A429D
:100A0000A2F2334202DC5242FFF709BCFFF78CBE70
:100A100030B5041E71F1000404DB4FF00044404285
:100A200064EB0101141E73F1000405DB1C464FF05A
:100A30000043524263EB0403994208BF904230BD29
:100A4000064C074D06E0E06840F0010394E807001B
:100A500098471034AC42F6D3FFF74CFB7C74000887
:100A60009C74000800487047787400082DE9F05F16
:100A700082460078002715468B460AF10104B946E4
:100A8000302801D09DB113E014F8010B012778281C
:100A900003D0582801D045B10AE00DB1102D07D17F
:100AA0000027102514F8010B02E0082500E00A25B4
:100AB0000026B0460EE005FB080005FB06F1012705
:100AC00001EB10461FFA80F8B6F5803F00D3B94617
:100AD00014F8010B294600F018F80028EBDABBF1F6
:100AE000000F05D00FB1641E00E05446CBF8004063
:100AF000B9F1000F06D003F021FD02210160C81EEC
:100B0000BDE8F09F48EA0640FAE73A2800D23038BC
:100B100020F02002412A01D3A2F13700884201D3FC
:100B20004FF0FF307047000070B5044600688168E0
:100B3000C943C9071CD1816821F00101816001F01E
:100B4000EFF905460FE000BF01F0EAF9401B02286B
:100B500009D9A06A40F01000A062E06A40F00100EC
:100B6000E062012070BD20688068C043C007EBD000
:100B7000002070BDF8B50026044600960068816824
:100B8000C943C90728D0816841F001018160134839
:100B900013490068B0FBF1F000E0401E009000280F
:100BA000FBD101F0BDF9054611E000BF01F0B8F935
:100BB000401B02280BD9A06A40F01000A062E06A36
:100BC00040F00100E06284F824600120F8BD206854
:100BD0008068C043C007E9D10020F8BD580000205C
:100BE00040420F0000220421014801F094B90000A6
:100BF0000008014001220421014801F08CB90000E5
:100C0000000801400B4810B5034604F05DF9094A9D
:100C100076202C3A1946908407489062104604F0DA
:100C2000EFF808B1002010BD4FF4FA6001F06CF845
:100C3000012010BDC00B0020700100200EB5DFF8B0
:100C400048914D4E4D4C4E4FDFF838A109F29D5B57
:100C5000642001F059F814E04CA1474803F04AFC25
:100C60000021206806F016F8002302961A4602A911
:100C7000386805F065FE00231A461946206805F01D
:100C80005FFE404B3F4A0833111D4A4804F0ACF95F
:100C90000028E1D0DAF80400FFF7D0FC05468846CA
:100CA000DAF80000FFF7CAFCCDE9005802460B460F
:100CB00041A1314803F01EFC0021206805F0EAFF45
:100CC000002302961A4602A9386805F039FE00236F
:100CD0001A461946206805F033FE99F890054D46EE
:100CE000002843D195F86C0001283FD195F8910573
:100CF00000283BD1D5F8DC05012802D003281AD002
:100D000034E038A23EA1584603F0F4FB5846FFF702
:100D1000BAFA85F8CF05DAF80400FFF78FFCCDE9C1
:100D2000000130A237A1584603F0E4FB012085F80A
:100D30009005022018E035A231A1584603F0DAFBF5
:100D40005846FFF7A0FA85F8CF05DAF80000FFF75C
:100D500075FCCDE900012DA22AA1584603F0CAFB7B
:100D6000012085F890050420C5F8DC0544F62060D4
:100D700005F0A6FB6CE700000C0100202C00002011
:100D800024000020740000209443002054656D70FE
:100D9000657261747572652F7072657373757265B3
:100DA0002072656164696E67206661696C65640ABA
:100DB00000000000940B002050726573737572651B
:100DC0003A20252E32662050612C2054656D7065C6
:100DD0007261747572653A20252E32662043200AAE
:100DE00000000000726F686972746F2F6665656439
:100DF000732F74656D7065726174757265000000A3
:100E0000257300002573256600000000726F686975
:100E100072746F2F66656564732F70726573737576
:100E200072650000FEE70000804C86B0DFF8F8B184
:100E300004F1D200DFF8F891DFF8F881DFF8F8A1CB
:100E400004F55775CDF800004FF0FF31012005F093
:100E500071F994F88C0500287DD194F88D0501284E
:100E6000F2D094F88F050128EED194F8910508B1DD
:100E70000A28E9D140F226212846FFF7F9F92F4642
:100E80004FF4FA7000F040FF6C4802F0A7FC002815
:100E900051D0DBF8041258461BF80110432906D143
:100EA000D0F804226049491D515C442905D0D0F88E
:100EB0000412415C0D290ED03DE0604A294660A035
:100EC00000F0ECF818B10B2084F8910533E0012014
:100ED00084F88D052FE0D0F804125348801D085C7B
:100EE0002C2828D1554A03A958A000F0D7F840B1C2
:100EF000524A02A957A000F0D1F810B9012084F895
:100F00008D059DF808003A2802D100208DF80800D0
:100F100002A8FFF7D6F90646C4F8840509E0474859
:100F200002F05CFC20B1454803F046FA07F8010BDB
:100F3000761E002EF3DA44A12846FFF7ABF950B134
:100F40003A4804F029F930B143A1394803F0D2FA04
:100F50000021464600E012E0D8F8000005F09AFEB5
:100F60000023CDF804901A4601A9DAF8000005F034
:100F7000E7FC00231A461946306805F0E1FC94F8B6
:100F80008C0501287FF460AF94F88D0501283FF4AB
:100F90005BAF40F226210098FFF76AF9274802F07C
:100FA0001DFCD8B194F89105244A0099062804D074
:100FB0002DA000F073F840B110E02DA000F06EF805
:100FC00060B9012084F88D0508E01C4802F006FC99
:100FD00020B11A4A29A0009900F060F81AA10098DF
:100FE000FFF758F90028D2D0009802F099FD0028A8
:100FF000CDD024A10E4803F07DFA00214646D8F852
:10100000000005F047FE0023CDF804901A4601A920
:10101000DAF8000005F094FC00231A4619463068FF
:1010200005F08EFC10E700007403002094430020BC
:101030000C0100202C00002024000020EC020020E5
:10104000434C4F5345440D0A000000000D0A2B4944
:1010500050442C003A000000446174615072696E83
:10106000744661696C0D0A004F4B0D0A00000000C8
:101070000D0A4F4B0D0A3E20000000004552524F12
:10108000520D0A00436F6D6D616E642050726F6384
:10109000657373204661696C0D0A00002DE9F04705
:1010A0009246884607460024FFF7EDF806460025DD
:1010B000504602F093FB0028FAD0DFF874905046B7
:1010C00003F05CF9395D884224D0D9F80410D1F8D6
:1010D00004228A5C08F80520D9F80400D0F804122C
:1010E000491CC1F30801C0F804126D1C504602F0FF
:1010F00075FB0028FAD0E2E75046641C03F05CF967
:1011000008F805006D1CB4420ED0504602F066FB94
:101110000028FAD0504603F031F9395D8842EBD00F
:10112000B44201D00024C3E70120BDE8F0870000ED
:101130003800002070B50124282000F07FF90B4D05
:101140000221284600F0E2FE40B9502000F076F976
:101150000221284600F0DAFE00B10024002000F051
:1011600089F9012800D0204670BD0000000C014024
:101170002DE9F05F8B46824600F090F8FFF7DAFF2A
:10118000002855D100F05CF82A4C207000F058F887
:10119000607000F055F8A07000F052F8E07000F0B8
:1011A0004FF8A0802278637840EA0201A5781943BD
:1011B000E678294331430143FF2939D0D118294426
:1011C0003144814234D146EA0526E68043EA0225CD
:1011D0002581F0B2FFF725FADFF85C80DFF85C903C
:1011E00042464B46FFF79DF904460F46300AFFF78B
:1011F00018FA22463B46FFF7EDF8FFF732FACAF835
:101200000000E8B2FFF70DFA42464B46FFF789F9B6
:1012100007460E46280AFFF704FA3A463346FFF718
:10122000D9F8FFF71EFACBF800000020BDE8F09FC8
:101230000120FBE75C0000209A9999999999B93FA0
:101240002DE9F0410024144F0126012000F012F98D
:1012500001281FD0282000F0F1F80221384600F0C4
:1012600055FE88B1C4F1070106FA01F02843C5B262
:10127000002000F0FFF801280CD0641CE4B2082C18
:10128000E3D32846BDE8F081C4F1070006FA00F078
:101290008543EDE7FF20F5E7000C014010B50E4C4B
:1012A0000221204602F060FE00220221204600F0CA
:1012B00032FE44F2506000F0C1F8012202212046C3
:1012C00000F029FE142000F0B9F82046BDE81040D7
:1012D000022102F03FBE0000000C01400EB5DFF815
:1012E000F890DFF8F8A03E4E3E4DDFF8FC8044F663
:1012F000206B39491031081FFFF73AFFC8B13BA1F5
:10130000374803F0F7F80021286805F0C3FC0023F4
:1013100002961A4602A9D8F8000005F011FB002336
:101320001A461946286805F00BFB584605F0C8F820
:10133000DFE7D9F81000FFF781F904460F46D9F826
:101340000C00FFF77BF9CDE9004702460B462BA1C5
:10135000234803F0CFF80021286805F09BFC002308
:1013600002961A4602A9D8F8000005F0E9FA00230F
:101370001A461946286805F0E3FA9AF8900554468B
:101380000028D2D194F86C000128CED194F89105B0
:101390000028CAD1D4F8DC050228C6D124481DA2F1
:1013A00022A1074603F0A6F83846FEF76CFF84F842
:1013B000CF05D9F81000FFF741F9CDE9000115A2DA
:1013C0001CA1384603F096F8012084F8900503200C
:1013D000C4F8DC05A9E700005C000020944300206D
:1013E0000C0100202C000020240000204765742000
:1013F00044617461204572726F72000054656D70B3
:10140000203D202566204309205248203D202566A6
:10141000200A0000726F686972746F2F66656564D8
:10142000732F68756D696469747900002573000015
:1014300031490020257325660000000070B50B4C73
:1014400005464FF0FF31206805F024FC08490020D4
:101450000A6850620968486AA842FCD32068BDE85F
:10146000704000231A46194605F06ABA0C000020A5
:101470001C02002070B50D4D42F20F7410B10AE04D
:10148000641E10D00221284600F040FD0128F7D04C
:1014900007E0641E07D00221284600F037FD00282F
:1014A000F7D0002070BD012070BD0000000C01408D
:1014B0007047000070B50C4C05464FF0FF31606876
:1014C00005F0E8FB2846FEF7DEFE82B24FF47A73A1
:1014D0002946064801F040FF6068BDE870400023DF
:1014E0001A46194605F02CBA24000020AC02002050
:1014F000F8B5414864210646FEF7BAFE3FA00090C9
:101500003FA341A241A1304602F0F4FF41493046D9
:1015100002F078FF41F2883000F0F6FB364C64347C
:10152000254604E03B4802F047FF04F8010B394828
:1015300002F054F90028F5D1294637A002F06AF9E3
:1015400040F22621002851D00C462846FEF790FE96
:1015500064213046FEF78CFE31A32BA232A1304627
:1015600002F0C8FF2B49304602F04CFF4FF47A706E
:1015700000F0CAFB204A274B563A0D212CA000F060
:101580008BF91D4A234B6E3A112129A000F084F9F2
:10159000204802F07FFE1F4802F066FE21462548E3
:1015A000FEF766FE234864216438FEF761FE64217D
:1015B0003046FEF75DFE21462846FEF759FE0E48EE
:1015C00003216E3880F89115002180F88D1500F800
:1015D0006C1F80F82015417080F8221580F82315C3
:1015E000C0F81815C0F81C150846F8BD2846FEF7C7
:1015F0003FFE0120F8BD0000024400200D0A00005B
:101600002B525354000000004154000025732573F1
:1016100025730000EC02002072656164790000000F
:101620002B43494653520000257325730D0A0000D1
:101630002C220000F046002070B5040019D00E4D99
:101640004FF0FF31286805F025FB0C49204602F0D9
:10165000D9FE00231A461946286805F071F9084991
:10166000012081F88C054FF47A7000F04DFB0020CA
:1016700070BD012070BD0000F4000020EC020020CD
:10168000944300202DE9F041154CA4F53E75D5F8A2
:10169000886516B308B3134F4FF0FF31386805F073
:1016A000F9FA05E014F8010B0F4902F0B7FE761EB7
:1016B000002EF7DA00231A461946386805F040F97B
:1016C000002085F88E05012085F88C054FF47A708E
:1016D00000F01AFB0020BDE8F0810120FBE70000CC
:1016E0008C460020F4000020EC0200200449002277
:1016F0000B685A6209684A6A8242FCD3704700004C
:101700006402002070B51C4C4FF0FF31206805F0DA
:10171000C1FAFFF76FFA4FF48C70FFF7E7FF174835
:1017200000F078FA154800F0B7F9154D2860134815
:1017300000F0D0FA2820FFF7D9FFFFF753FA42F262
:10174000D050FFF7D3FF00231A461946206805F052
:10175000F7F82868FEF760FF0A49FEF7BFFD0A495F
:10176000FEF7BCFDFEF76AFF084A094BFEF7D3FE01
:10177000BDE87040FEF775BF080000204001002062
:10178000700000200000A03B00002A439A9999991C
:101790009999B93F064982B08A6942F400728A6118
:1017A000896901F40071009102B000F093B8000063
:1017B000001002400EB5274F274EDFF8A080284CBE
:1017C00044F62069FFF79EFFFEF738FF8B4605467B
:1017D0005B462A4623A11F4802F08CFE0021306898
:1017E00005F058FA002302971A4602A9D8F800001B
:1017F00005F0A6F800231A461946306805F0A0F84F
:1018000094F8900510BB94F86C0001281ED194F850
:101810009105D8B9D4F8DC05042817D11B4815A2C6
:1018200019A1824602F066FE5046FEF72CFD84F8B0
:10183000CF05CDE9005B0FA215A1504602F05AFE7C
:10184000012084F890050020C4F8DC05484604F027
:1018500037FEB7E70C0100202C00002024000020F8
:1018600094430020415149203D2025662075672F73
:101870006D330A00726F686972746F2F66656564F4
:10188000732F617169000000257300003149002049
:1018900025732566000000002DE9F0411F4616461D
:1018A0000D4604463946204602F0ECFD0128F9D1E8
:1018B000002409E0384601F091FF0028FAD03846AC
:1018C00002F07AFD3055641CAC42F3DB0120BDE828
:1018D000F0810000F8B500250446009590F824003A
:1018E000012808D0012084F824002046FFF71CF9C5
:1018F000060002D04BE00220F8BDA06A20F4885018
:1019000040F00200A062022000F07AFE224909683D
:10191000B1FBF0F0400000E0401E00900028FBD139
:101920002046FFF727F92068816841F008018160AF
:1019300000F0F6FA074604E000F0F2FAC01B0A28AD
:1019400011D8206880680007F6D42068816841F0CB
:101950000401816000F0E4FA07460EE000F0E0FACE
:10196000C01B0A2809D9A06A20F0020040F010002C
:10197000A06284F824500120F8BD206880684007E8
:10198000ECD4A06A20F0020040F00100A06284F8CC
:1019900024503046F8BD000058000020F8B500245F
:1019A000009490F824202546012A12D0012280F8C4
:1019B00024204A681F23072A0DD20668776B521E1F
:1019C00002EB820293409F430B6893401F4377636F
:1019D00019E00220F8BD06680D2A0AD2376BD21F23
:1019E00002EB820293409F430B6893401F4337638F
:1019F00009E0F76A0D3A02EB820293409F430B68BD
:101A000093401F43F7620A68072306680A2A0AD32D
:101A1000F7680A3A02EB420293409F438B68934077
:101A20001F43F76008E0376902EB420293409F438F
:101A30008B6893401F4337610A68102A01D0112A2E
:101A400020D1124B02689A4217D193681B0219D415
:101A5000936843F4000393600968102912D10C497C
:101A60000C4A0968B1FBF2F101EB8101490000E089
:101A7000491E00910029FBD104E0816A41F0200158
:101A80008162012480F824502046F8BD00240140E2
:101A90005800002040420F000068C06C70470000F2
:101AA0002DE9F0414FF0000704003D467ED0A06ACA
:101AB000002628B9E66284F82460204600F07EF80B
:101AC0002046FFF731F8A16A01F01001014304D06C
:101AD000A06A40F01000A06268E0A16A21F4885179
:101AE00041F00201A1626268E169237B0A4347EA8F
:101AF00043010A43A1684FF48077B94208D0012915
:101B000006D0002194F814C0BCF1010F02D00AE005
:101B10003946F7E7F3B1A36A43F02003A362E36A0F
:101B200043F00103E3622368D3F804C02CF4694C4A
:101B30004CEA010CC3F804C023689968DFF870C050
:101B400001EA0C0111439960A168B9420BD0012947
:101B500009D00CE0DFF85CC0A3690CEB43330B4306
:101B600043F40061DFE7218A0D05A5F580152168A2
:101B7000CB6A23F470032B43CB62216889680E4B38
:101B80001940914208D1E662A16A21F0020141F0B8
:101B90000101A162BDE8F081A06A20F0020040F0DE
:101BA0001000A062E06A40F00100E0620120F1E76D
:101BB000FDF7E1FF00E0FFFFFE0E1FFF00B585B05F
:101BC0000021009101910291039100680E49884221
:101BD00018D10E48816941F400718161816901F475
:101BE00000710491816941F0040181618069694655
:101BF00000F00400049002200090032001900448AB
:101C000000F094F805B000BD00240140001002402F
:101C10000008014070B5044690F8240001280DD05A
:101C2000012084F824002046FEF7A4FF02004FF0B4
:101C3000000005D084F82400104670BD022070BD5D
:101C4000A16A40F20123994341F48071A1621F4DC2
:101C500023681F49AB4218D10E6816F4702F14D0B8
:101C6000A66A46F48016A6620E68760505D5A66AB1
:101C700026F4005646F48056A662A66AF6040AD5F3
:101C8000E66A26F00606E66206E0A66A26F48016F4
:101C9000A6625E68E9E7E06284F824006FF0020063
:101CA000186020688368C3F34243072B05D1A8421C
:101CB00008D1096811F4702F04D0816841F48011B3
:101CC0008160B9E7816841F4A001F9E7002801408B
:101CD0000424014010B5044690F82400012807D0E0
:101CE000012084F824002046FEF71EFF10B107E013
:101CF000022010BDA16A21F4885141F00101A162C6
:101D0000002184F8241010BD70B5044600F008F9D5
:101D10000546601C02D004480078044400F000F935
:101D2000401BA042FAD370BD4C0000202DE9F84FB3
:101D3000DFF8B891002409F1040A0AF1040B2346E4
:101D40000F270BF1040EC9E00125A5402A40AA4245
:101D50007DD1674ED1F804C0ACEB0608B44532D053
:101D600014DCBCF1030F3AD009DCBCF1000F2AD01F
:101D7000BCF1010F1CD0BCF1020F31D11DE0BCF150
:101D8000110F17D0BCF1120F2AD119E0B8F5881F36
:101D900019D006DCB8F5803F15D0B8F5801F1FD1EB
:101DA00011E0B8F5001F0ED0B8F5041F18D10AE0F5
:101DB000CB6815E0CB681B1D12E0CB6808330FE041
:101DC000CB680C330CE08B682BB1012B4FF0080370
:101DD00003D0456104E0042302E0056100E0002334
:101DE000FF2A01D8064601E000F104064FEA840507
:101DF00001D9A5F12005D6F8008007FA05FC28EAEC
:101E00000C0803FA05F548EA0508C6F800804D6895
:101E1000ED0062D5374DAE6946F00106AE61AD69A1
:101E200024F0030605F001050095334D06EB050C83
:101E3000DCF80850A607360F07FA06F825EA080569
:101E4000DFF8B880404503D14FF0000817E044E0C8
:101E5000DFF8AC80404502D14FF001080FE0DFF819
:101E6000A480404502D14FF0020808E0DFF89880D6
:101E7000404502D14FF0030801E04FF0040808FA92
:101E800006F848EA0508CCF808804D68D9F80060E3
:101E9000ED034D4601D5164300E096432E604D6894
:101EA000DAF80060AD03554601D5164300E09643CD
:101EB0002E604D68DBF80060ED025D4601D51643EB
:101EC00000E096432E604D68DEF80060AD02754676
:101ED00001D5164300E096432E60641C0D682A4627
:101EE000E5407FF431AFBDE8F88F00000004014009
:101EF00000001110001002400000014000080140E5
:101F0000000C0140001001400014014080680840AE
:101F100000D0012070470AB1016170470904FBE756
:101F200001488068704700004C00002070B5040034
:101F300025D094F83D00002520B984F83C50204677
:101F400000F078FA242084F83D002068016821F030
:101F5000010101602068016841F4004101602068CE
:101F6000016821F40041016000F0DAFC4D4A61682B
:101F7000914201D84C4900E04C49884201D20120ED
:101F800070BD4B492368B0FBF1F15E6826F03F0657
:101F90000E435E606368934206D94FF496735943CB
:101FA0004FF47A73B1FBF3F12368491C1E6A26F0E3
:101FB0003F06314319626168914210D84900401EC2
:101FC000B0FBF1F2521CC2F30B02042A01D204202E
:101FD00022E0B0FBF1F0401CC0F30B001CE0A26853
:101FE000F2B301EBC10303EB0116431EB3FBF6F39F
:101FF0005B1C43F480431B0549D092B301EBC10243
:1020000002EB0111401EB0FBF1F0401CC0F30B00CD
:1020100040F4804040F400402168CA694CF6FF73E8
:102020009A431043C861D4E907100143206802684D
:1020300022F0C00211430160D4E90301014320688A
:10204000826848F2FF339A4311438160D4E9050165
:1020500008432168CA6822F0FF021043C86001E00B
:102060000EE016E02068016841F00101016025647E
:10207000202084F83D00256384F83E50002070BD88
:1020800001EB4106431EB3FBF6F35B1CB3E70120F3
:10209000C2E701EB4101401EB0FBF1F0401CC0F370
:1020A0000B00B7E7A086010080841E0000093D00F8
:1020B00040420F002DE9FF4F83B00025DDE9107984
:1020C0009A4693460446DDF848800095FFF728FFBE
:1020D000064694F83D0020287CD119230122854929
:1020E0002046009601F0A2FA0028F5D194F83C00B1
:1020F00001286FD0012084F83C0020680168C907DE
:1021000003D1016841F0010101602068016821F4F8
:1021100000610160222084F83D00402084F83E00E8
:1021200025646762A4F82A90608D20857248E06279
:10213000CDE9008653465A462046049901F07EF9BF
:1021400000287DD1208DDFF8B491202768B10128C7
:1021500014D00228206801681ED041F4806101601B
:102160002068416980690090B6E020684169816912
:102170000091016841F400710160ADE020680168E0
:1021800021F48061016072B6206841698169009123
:10219000016841F400710AE041F40061016072B627
:1021A0002068416981690091016821F480610160C2
:1021B00062B691E0032868D801280CD00228434673
:1021C0004FF000024946204600960FD001F02EFA4B
:1021D000B0BB10E08BE032464146204601F0A5FA44
:1021E00070BB20680069616A08706CE001F01EFA3B
:1021F00030BB72B634E02068016821F48061016070
:1022000072B620680069616A0870606A401C60628A
:10221000208D401E2085608D401E6085384846F226
:10222000A8110068B0FBF1F0C0EBC00000EB80002B
:102230000090401E009008D020684069C04300E034
:1022400029E040070CD50098F3E744F8305F677346
:10225000A573206940F02000206162B625731AE062
:102260002068016841F40071016020680069616ABA
:102270000870606A401C6062218D491E2185618D55
:10228000491E618562B621681BE032464146204600
:1022900001F04BFA18B1012007B0BDE8F08F2068BB
:1022A0000069616A0870606A401C6062218D491E85
:1022B0002185618D491E618521684A69D243520793
:1022C0000AD409690170606A401C6062208D401E5A
:1022D0002085608D401E6085208D00287FF46AAFC8
:1022E00084F83D7084F83E5084F83C50D4E70220D6
:1022F000D2E70000020010000000FFFF0400010010
:10230000580000202DE9FF4F83B09A46DDE9119770
:1023100093460446DDF84080FFF702FE054694F838
:102320003D0020287FD119230122404920460095F5
:1023300001F07CF9002876D194F83C00012872D095
:10234000012084F83C0020680168C90703D10168B6
:1023500041F0010101602068016821F40061016021
:10236000212084F83D00402084F83E0000262664A9
:10237000C4F82480A4F82A90608D20852C48E0625F
:10238000CDE9007553465A462046049901F0D4F829
:1023900070B930E02A463946204601F0F9F958B1C3
:1023A000206C042804D12068016841F400710160A8
:1023B000012007B0BDE8F08F606A216800780861ED
:1023C000606A401C6062218D491E89B22185628D40
:1023D000521E628522685369DB435B070BD469B1E7
:1023E00000781061606A401C6062208D401E20856C
:1023F000608D401E6085208D0028CBD12A4639464D
:10240000204601F0EDF80028CAD154F83D0B0168D0
:1024100041F400710160202004F81E09E677667718
:102420000020C6E7FFE70220C3E70000020010001B
:102430000000FFFF10B586B00021009101910291CC
:10244000039100680F4988421AD10F4CA06940F0EF
:102450000800A061A069694600F008000490C0204F
:10246000009012200190032003900848FFF75EFCC3
:10247000E06940F40010E061E06900F400100490AD
:1024800006B010BD0054004000100240000C014096
:102490000248816802781144816070474C00002036
:1024A000074810B5016841F010010160032000F0F9
:1024B00095F8002000F006F800F03EF8002010BD6E
:1024C0000020024000B5014687B00022192000F02C
:1024D00065F8192000F054F81348816941F400614F
:1024E0008161806905A900F400600690684600F0EB
:1024F000F7F900F025FA0D490D4AB0FBF1F10D484E
:10250000491E0260416040F2E7320021C0E9032128
:10251000816000F0B5FC10B1012007B000BD054896
:1025200000F022FDF9E700000010024040420F00D9
:10253000002C01402C0300200F4808B5816941F0B0
:1025400001018161816901F001010091C16941F0DE
:102550008051C161C069002200F0805000900F21BD
:10256000901E00F01BF80548416821F0E06141F041
:102570000071416008BD00000010024000000140F1
:10258000002809DB00F01F02012191404009800072
:1025900000F1E020C0F8001170470000F0B40E4BCD
:1025A0001B680C46C3F30223C3F10705042D00D9B1
:1025B0000425191D072901D2002300E0DB1E012696
:1025C00006FA05F1491E214099409E40761E1640AC
:1025D0003143F0BC01F0A2BF0CED00E0064900F071
:1025E000070208684FF6FF03184040EA0220034A3A
:1025F00010430860704700000CED00E00000FA0591
:1026000010B529A401461DCC86B08DE81D002AA076
:102610002A4C006804900020012923D002293AD0D6
:1026200010291DD161682268D20119D5C1F38342F6
:10263000C9031DF8020009D5616804AAC1F340412D
:10264000515C1F4AB2FBF1F1484301E01D49484388
:102650006168490204D440005FF00301B0FBF1F06F
:1026600006B010BD226AC2F30121012903D19207ED
:1026700001D5C803F4E7022905D1626A920702D5A1
:1026800049F64040ECE70329EAD121688903E7D500
:102690004FF22440E4E700F053F96168C1F381315F
:1026A000491C4900DAE7000002030405060708098F
:1026B0000A0B0C0D0E0F101001020000001002405A
:1026C00000127A0000093D002DE9F8430546007824
:1026D000354CC00754D0E0690026C00008D4E0693A
:1026E00040F08050E061E069012600F080500090E9
:1026F0002E480168C90512D40168804641F48071F2
:102700000160FFF70DFC074605E000BFFFF708FC7E
:10271000C01B642823D8D8F80000C005F6D5206A6D
:1027200010F4407021D0A98801F4407181421CD07E
:10273000206A1F49012220F440700A6000220A60CA
:102740002062C00711D0FFF7EBFB074641F2883843
:1027500008E000BFFFF7E4FBC11B414502D903209D
:10276000BDE8F883206A8007F4D5206A696820F400
:102770004070084320621EB1E06920F08050E061A3
:102780002878800705D56068A96820F44040084390
:1027900060602878C00605D56068E96820F480008C
:1027A000084360600020DBE700100240007000403A
:1027B000400442422DE9F0470F46050061D0434EE8
:1027C000306800F00700B84209D2306820F00700F6
:1027D00038433060306800F00700B84251D12868B3
:1027E0003B4C810712D5400703D5606840F4E06098
:1027F00060602878000703D5606840F4605060602E
:102800006068A96820F0F000084360602878C0077D
:1028100028D06868012810D02168022810D08907C4
:1028200000292EDA616821F0030101436160FFF79E
:1028300077FB804641F288390DE021688903EFE794
:102840008901EDE7FFF76CFBA0EB0801494502D9D0
:102850000320BDE8F0876068696800F00C00B0EB09
:10286000810FEFD1306800F00700B8420BD9306813
:1028700020F0070038433060306800F00700B842AD
:1028800001D00120E5E72878400705D56068E968B0
:1028900020F4E060084360602878000706D560688F
:1028A000296920F4605040EAC100606000F058F8E7
:1028B0006168084AC1F30311515CC84006490860C9
:1028C00006480068FFF7FEFD0020C2E70020024036
:1028D00000100240DC730008580000205000002067
:1028E0000F2202600C4A536803F0030343605368ED
:1028F00003F0F0038360536803F4E063C36052683D
:102900004FF4E06303EAD20202610448006800F079
:1029100007000860704700000010024000200240DD
:102920000448054900684968044AC1F30221515C22
:10293000C84070475800002000100240EC730008A7
:102940000448054900684968044AC1F3C221515C42
:10295000C84070475800002000100240EC73000887
:1029600012A185B00FC98DE80F0014A0144A0068A9
:1029700004905168134801F00C03042B10D0082B6D
:102980000ED1C1F38343C9031DF803000AD5516872
:1029900004AAC1F34041515C0A4A5043B0FBF1F034
:1029A00005B0704708494843FAE7000002030405F0
:1029B000060708090A0B0C0D0E0F1010010200008B
:1029C0000010024000127A0000093D002DE9F84F86
:1029D000040070D02078C04DC00749D06868C0F3AB
:1029E0008100012807D06868C0F38100022809D15E
:1029F0006868C00306D52868800339D56068002858
:102A0000E7D035E06068B0F5803F0BD010B1B0F58D
:102A1000A02F11D0286820F480302860286820F486
:102A2000802002E0286840F480302860606890B11F
:102A3000FFF776FA06460AE0286840F4802028600E
:102A4000F0E700BFFFF76CFA801B642873D8286892
:102A50008003F7D50CE0FFF763FA064605E000BFF8
:102A6000FFF75EFA801B6428F0D828688003F7D44B
:102A700020789A4E80074FF001094FF0000839D5B1
:102A8000686810F00C0F07D06868C0F38100022856
:102A900009D16868C00306D42868800714D5206966
:102AA000012808D110E02069B0B1C6F80090FFF706
:102AB00037FA074605E00AE1FFF732FAC01B0228A1
:102AC000C4D828688007F7D52868616920F0F80025
:102AD00040EAC10028600DE0C6F80080FFF720FA48
:102AE000074604E0FFF71CFAC01B022823D8286819
:102AF0008007F7D4207800072CD57948A169D9B18F
:102B0000C0F80090FFF70CFA074604E0FFF708FA58
:102B1000C01B02280FD8686A8007F7D571484FF4A8
:102B2000FA510068B0FBF1F0009000BF0098411E20
:102B30000091FAD20EE080E0C0F80080FFF7F0F9D3
:102B4000074604E0FFF7ECF9C01B022875D8686A55
:102B50008007F7D42078400760D5E8690027C000D7
:102B600008D4E86940F08050E861E869012700F086
:102B7000805000905C480168C90513D40168834601
:102B800041F480710160FFF7CBF9824606E000BF97
:102B9000FFF7C6F9A0EB0A0064284ED8DBF8000066
:102BA000C005F5D5E06801280AD008B1052813D082
:102BB000286A20F001002862286A20F0040002E060
:102BC000286A40F001002862E06841F2883B98B131
:102BD000FFF7A6F982460BE0286A40F0040028625D
:102BE000EEE700BFFFF79CF9A0EB0A0159455AD860
:102BF000286A8007F6D50CE0FFF792F9824605E0D7
:102C0000FFF78EF9A0EB0A0159454CD8286A8007D6
:102C1000F6D41FB1E86920F08050E861E06988B31C
:102C20006968C1F38101022944D00228C6F8608096
:102C300004D0FFF775F9044638E034E0FFF770F987
:102C4000074604E0FFF76CF9C01B02282BD8286860
:102C50008001F7D4206AB0F5803F05D16868A1688B
:102C600020F4003008436860D4E90801084369682B
:102C700021F4741108436860C6F86090FFF750F9BA
:102C8000044606E025E000BFFFF74AF9001B0228D2
:102C900009D828688001F7D51BE000BFFFF740F98D
:102CA000001B022802D90320BDE8F88F28688001A4
:102CB000F4D40EE00128F7D06868226A00F480316D
:102CC000914204D1616A00F47010884201D0012061
:102CD000EAE70020E8E7000000100240000042425E
:102CE00080044242580000200070004070B504008B
:102CF00009D0606A002540B125616561A56294F83C
:102D0000510040B10CE0012070BD6068B0F5827FD9
:102D1000F4D0E561F2E784F85050204600F040F826
:102D2000022084F851002068016821F04001016010
:102D3000A088218900F4827001F404410843A1892C
:102D400001F400610843217C01F002010843217D68
:102D500001F001010843218B01F400710843217F38
:102D600001F03801084394F8201001F08001084375
:102D7000218D01F40051084321680860A0690421F5
:102D800001EA1040216848602068C16921F40061AF
:102D9000C1616565012084F85100002070BD00000C
:102DA00030B585B000240094019402940394006827
:102DB0001549884225D11548C16941F48041C16156
:102DC000C16901F480410491816941F00801816188
:102DD00080690F4D00F0080004904FF420400090EF
:102DE000022001900320039069462846FEF79EFFCB
:102DF0004FF48040CDE90004694628460294FEF76E
:102E000095FF05B030BD00000038004000100240C2
:102E1000000C01407047704770B590F83C20012AC3
:102E200026D0012480F83C40022280F83D2003682F
:102E30005A689D6822F070060A6832435A600D4B4A
:102E400002689A4208D0B2F1804F05D00A4B9A42EC
:102E500002D00A4B9A4204D1496825F080031943F5
:102E6000916080F83D40002180F83C10084670BD1C
:102E7000022070BD002C014000040040000800400A
:102E800010B5040003D094F83D0010B107E0012014
:102E900010BD002084F83C00204600F01FF80220FE
:102EA00084F83D00211D206801F0D8F8012084F845
:102EB000460084F83E0084F83F0084F8400084F81F
:102EC000410084F8420084F8430084F8440084F808
:102ED000450084F83D00002010BD000008B50168E1
:102EE0000B48B1F1804F0BD00A4A914207D1C1691A
:102EF00041F00201C161C06900F00200009008BD0C
:102F0000C16941F00101C161C06900F00100F5E74C
:102F1000001002400004004090F83D10012901D04B
:102F200001207047022180F83D1000680B4988425B
:102F300008D0B0F1804F05D00949884202D0094934
:102F4000884204D1816801F00701062903D0016895
:102F500041F001010160002070470000002C014099
:102F6000000400400008004090F83D10012901D005
:102F700001207047022180F83D100168CA6842F0C4
:102F80000102CA6000680B49884208D0B0F1804F46
:102F900005D00949884202D00849884204D1816895
:102FA00001F00701062903D0016841F00101016029
:102FB00000207047002C0140000400400008004041
:102FC00070B5044690F83C00012817D0012584F81C
:102FD0003C50022084F83D002068826822F077028D
:102FE00022F47F4282600868502830D00DDC20280F
:102FF0004DD005DC98B310283BD148E0022070BDCD
:10300000302844D0402834D139E0602828D07028B6
:1030100006D0B0F5805F2CD0B0F5005F29D10AE072
:10302000CB68D1E90121206801F04EF82068816861
:1030300041F0770109E0CB68D1E90121206801F076
:1030400043F82068816841F48041816011E0CA68DA
:103050004968206801F04AF85021206807E016E02E
:10306000CA684968206801F052F86021206801F0C0
:1030700035F884F83D50002084F83C0070BDCA68E3
:103080004968206801F032F840212068EFE72268A3
:1030900001461046EBE7704770B5044600680169C9
:1030A0004FF00005C943890715D4C168C943890792
:1030B00011D4E91E01610120207720688069800712
:1030C000204602D0FFF7E7FF04E000F098F8204622
:1030D00000F096F8257720680169C943490717D49D
:1030E000C168C943490713D46FF00401016102208C
:1030F00020772068806910F4407F204602D0FFF7D7
:10310000CAFF04E000F07BF8204600F079F825774C
:1031100020680169C943090716D4C168C943090772
:1031200012D46FF008010161042020772068C06983
:103130008007204602D0FFF7AEFF04E000F05FF802
:10314000204600F05DF8257720680169C943C9066B
:1031500017D4C168C943C90613D46FF010010161C7
:10316000082020772068C06910F4407F204602D0F4
:10317000FFF791FF04E000F042F8204600F040F82D
:10318000257720680169C943C90708D1C168C943C7
:10319000C90704D1891E0161204600F033F8206878
:1031A0000169C943090609D4C168C943090605D4A0
:1031B0006FF0800101612046FFF72CFE2068016955
:1031C000C943490609D4C168C943490605D46FF00B
:1031D00040010161204600F01FF820680169C943E1
:1031E00089060BD4C168C943890607D46FF0200152
:1031F00001612046BDE87040FFF70DBE70BD70470D
:103200007047000000680349884201D1FFF740B9C8
:1032100070470000002C0140704770B5040004D0D6
:1032200094F83900002510B106E0012070BD84F843
:103230003850204600F022F8242084F83900206815
:10324000C16821F40051C160204600F073FF20687E
:10325000016921F4904101612068416921F02A014E
:1032600041612068C16841F40051C160E5632020DC
:1032700084F8390084F83A00002070BD70B586B03B
:103280000024009401940294039403682E482D4E68
:10329000022103220515B34226D1836943F48043FA
:1032A0008361836903F480430493836943F00403D7
:1032B00083618069254E00F0040004900802CDE986
:1032C0000001039269463046FEF730FDCDE9005417
:1032D000694630460294FEF729FD0022052125208B
:1032E000FFF75CF9252028E0194EB34227D1C369C6
:1032F00043F48023C361C36903F480230493836987
:1033000043F0080383618069CDE9005100F00800B3
:10331000CDE903200F4D69462846FEF707FDE81466
:10332000CDE90004694628460294FEF7FFFC00221E
:1033300005212720FFF732F92720FFF721F906B0F2
:1033400070BD00000038014000100240000801403C
:1033500000480040000C01402DE9F843044690F875
:1033600039001F4616460D4620284CD1C5B1BEB1C6
:1033700094F83800012846D0012084F838004FF036
:103380000008C4F83C80212084F83900FEF7C8FD0D
:10339000A6848146E684A068B0F5805F03D004E08F
:1033A0000120BDE8F883206928B12E465FF00005B2
:1033B00084F838800EE00026FAE78021204600F0ED
:1033C00015FFA0B9AEB116F8010B21684860E08C7A
:1033D000401EE084E08C4B464FF00002009700282E
:1033E000EBD14FF04001204600F000FF30B1032048
:1033F000D7E735F8020BC0F30800E6E7202084F891
:1034000039000020CDE70220CBE7FEE701684A69DA
:10341000D24352050FD46FF480624A61002140F814
:10342000301F202242738173026942F0040202615C
:103430000173012070470020704700002DE9F84F0C
:103440000446006889460B9D01689846174641F47A
:10345000806101602068016841F48071016000951D
:103460004FF0011B0022594620460A9B00F0DEF86F
:103470004FF4007A40B120680068C00501D5C4F857
:1034800040A00320BDE8F88F216809F0FE00086124
:103490002B46284920460A9A00F0FCF8F0BB206829
:1034A0004169806900902A4620460A9900F070F927
:1034B00040B1206C04283AD12068016841F40071C1
:1034C000016034E0FEB2B8F1010F09D02168380A7A
:1034D00008612A4620460A9900F05AF90028E8D1E6
:1034E000206806612A4620460A9900F051F9002812
:1034F000DFD12068016841F48071016000950022ED
:10350000594620460A9B00F091F80028B3D1216863
:1035100009F0FF0040F00100086100E007E02B46E1
:10352000044920460A9A00F0B5F80028AAD00120E4
:10353000A8E70000020001002DE9F84304460068F6
:103540000D46DDE9089701689846164641F48071FA
:1035500001604B4600224FF001112046009700F019
:1035600065F848B120680068C00502D54FF40070C6
:1035700020640320BDE8F883216805F0FE0008619F
:103580003B464A461549204600F084F888B9206831
:103590004169806900903A464946204600F0F8F8B3
:1035A00048B1206C042804D12068016841F40071FE
:1035B00001600120DEE7F5B2B8F1010F09D0216802
:1035C000300A08613A464946204600F0E1F80028F2
:1035D000E7D1206805610020CCE70000020001006F
:1035E00070B516460D4604460DE02046FFF70EFF67
:1035F00008B1012070BD681C05D0FEF791FC801B4E
:10360000A84207D835B120684069C0434007ECD4D0
:10361000002070BD002044F8300F20216173A0739A
:10362000216941F0200121612073E2E72DE9F04793
:103630001E4690460D460446C1F30747DDF820902C
:1036400008E0701C06D0FEF76BFCA0EB0900B0424E
:103650000FD876B12068012F18D0806925EA0000C4
:103660000004000C14D000214145EAD00020BDE840
:10367000F087002044F8300F20216173A073216986
:1036800041F02001216120730120F0E74069E5E766
:103690000121E9E72DE9F0479A4691460E46044696
:1036A00000254FF02008C1F3074725E02068406956
:1036B000C043400514D42068016841F400710160E2
:1036C00021686FF480604861256384F83D8084F848
:1036D0003E50206C40F00400206484F83C501FE011
:1036E000B9F1FF3F08D0FEF71BFCA0EB0A014945EA
:1036F0000CD8B9F1000F09D02068012F13D08069D0
:1037000026EA00000004000C0BD0CFE744F8305F3D
:1037100084F80D80A573206940F020002061257396
:103720000120BDE8F0874069EAE72DE9F041002576
:1037300090460E460446202717E04069C043C00665
:103740000CD454F8301B6FF01000486144F8105945
:103750006777A577206A2062257717E0FEF7E0FB00
:10376000A0EB0800B04208D83EB120684169C943C7
:103770004906E2D40020BDE8F08144F8305F677369
:10378000A573206940F02000206125730120F2E735
:1037900070B516460D4604460DE02046FFF736FE8E
:1037A00008B1012070BD681C05D0FEF7B9FB801B75
:1037B000A84207D835B120684069C0430006ECD460
:1037C000002070BD002044F8300F20216173A073E9
:1037D000216941F0200121612073E2E70A4A0B4987
:1037E000904201D1486803E0094A904208D1C86874
:1037F000D0F80012D0F80402081AC0F3080070478D
:103800004FF0FF3070470000EC020020380000202D
:10381000AC02002070B50C460546FCF734FD0646A8
:103820002046FCF730FD00200246295C00E0521CD7
:10383000A35C9942FBD101E0401C521C295CA35CB3
:103840009942F9D0B04201D1012070BD4FF0FF3054
:1038500070BD0000144C40F25B7704F13D05012679
:1038600042F2107894F86C00C8B994F88D050128DC
:1038700015D094F8900590B9676684F85D600BA147
:103880002846FCF707FD18B909A12846FCF710FDEA
:10389000054801F027FD012801D184F88D654046D7
:1038A00002F00EFEDEE7000094430020000000005E
:1038B00022696F2E61646166727569742E636F6D23
:1038C000220000000F4C4FF0FF3601253146012049
:1038D00002F030FC94F86C000128F7D194F89005C0
:1038E0000128F3D194F88D050128EFD094F88C05C8
:1038F0000028EBD1034801F039FE0028E6D084F817
:103900008D55E3E7944300203EB500241048009411
:10391000019402940D4984600160012505730475CA
:1039200005614FF460214460C161FEF7B9F808B148
:1039300072B6FEE70095CDE9015469460448FEF7EA
:103940002DF8002801D072B6FEE73EBD00240140EC
:10395000400100202DE9F04186B000242848009461
:10396000019402940394816941F01001816181699D
:1039700001F010010491816941F0200181618169A8
:1039800001F020010491816941F0040181618169A4
:1039900001F004010491816941F0080181618069AD
:1039A000184F00F008004FF40055049000222946FB
:1039B0003846FEF7B0FADFF8508000220421404676
:1039C000FEF7A9FA0126CDE90056022569463846D8
:1039D000CDE90245FEF7AAF90420CDE900066946C3
:1039E0004046CDE90245FEF7A1F9CDE9005469460C
:1039F00006480294FEF79AF906B0BDE8F08100008F
:103A0000001002400010014000080140000C01407D
:103A10000E4810B50C4901604FF4827141600021DD
:103A20008160C1604FF400720161C0E90512C1619B
:103A30000162416281620A21C162FFF757F90028E1
:103A400001D072B6FEE710BD00380040C40100206E
:103A500010B586B000241648009401940294039493
:103A600004944FF08041059401602F21C0E90114B6
:103A70004FF6FF71C0E903148461FFF701FA08B142
:103A800072B6FEE74FF48050009069460848FFF791
:103A900097FA08B172B6FEE7049404A904480594A5
:103AA000FFF7BAF9002801D072B6FEE706B010BDE4
:103AB0001C02002010B586B0002417480094019421
:103AC0000294039404941349059401602F21C0E9E2
:103AD00001144FF6FF71C0E903148461FFF7D0F9B8
:103AE00008B172B6FEE74FF48050009069460A486C
:103AF000FFF766FA08B172B6FEE7049404A9064817
:103B00000594FFF789F9002801D072B6FEE706B0E8
:103B100010BD00000004004064020020FEE7FEE744
:103B20002DE9F0412A4C0025012694F8910504F175
:103B3000D2070A2847D2DFE800F03E46464605464F
:103B400011462831394623A0FFF764FE00283AD0F9
:103B5000052084F8910584F86D6024E039461FA0A3
:103B6000FFF758FE38B184F88E6584F88C5508202C
:103B700084F8910519E039461BA0FFF74BFE10B3FE
:103B800084F88D6584F891551FE0394618A0FFF739
:103B900041FEC0B1092084F8910504E0394614A023
:103BA000FFF738FE20B184F88C550020BDE8F08185
:103BB00084F88D6509E039460DA0FFF72BFE10B1A2
:103BC00084F89155EFE784F88C650120EEE700005A
:103BD000944300204F4B0D0A000000000D0A4F4B8C
:103BE0000D0A3E20000000004552524F520D0A00BF
:103BF00053454E44204F4B0D0A0000002DE9FC4771
:103C0000002204210A2002F000FE634F38600120E8
:103C100002F0F0FD614D2860012002F0EBFD604EE6
:103C20003060012002F0E6FDDFF87881C8F800007E
:103C3000012002F0DFFD5C4CE060012002F0DAFDC3
:103C40006061012002F0D6FDA060DFF86091396864
:103C500001B101212A6802B101221140326802B18A
:103C600001221140E26802B101221140626902B1F1
:103C70000122114000B101200140D8F8000000B13C
:103C80000120014276D048480124CDE900400023BC
:103C9000802247A1484803F0F3F8401C68D042480E
:103CA00000231830CDE90040A20244A1454803F0AA
:103CB000E7F8401C5FD03C4800231C30CDE90040B1
:103CC000402241A1434803F0DBF8401C55D0364860
:103CD0000024001DCDE90040234680223EA140483B
:103CE00003F0CEF8401C4AD00094002380223DA16E
:103CF0003F48019403F0C4F8401C42D02A480023F6
:103D00001030CDE9004080223AA13C4803F0B8F8D9
:103D1000401C38D00225CDE9005400232A0238A1E6
:103D20003A4803F0ADF8401C2FD01F480023203044
:103D3000CDE90050802236A1384803F0A1F8401C9C
:103D400025D037A1194800F0D5FB4846FCF79BFA6F
:103D500082B2642349463B48FFF7FEFA3A48FFF730
:103D6000DBF83A48FFF7D8F8BDE8FC4702F058BC4A
:103D700037A1E7E70DE03CA1E4E740A1E2E745A178
:103D8000E0E749A1DEE74EA1DCE752A1DAE756A160
:103D9000D8E7BDE8FC870000240000202C000020AC
:103DA00028000020F4000020000000200C0100206A
:103DB0004448543131000000DD120008436F6D6D3E
:103DC00043420000290E000853656E64446174612B
:103DD0000000000025400008424D503238300000FD
:103DE0003D0C00084465627567205461736B0000E8
:103DF000795800084750325931303100B517000862
:103E00004D515454496E6974000000005538000843
:103E10005075626C6973685461736B00C538000833
:103E2000416C6C207461736B73206372656174659F
:103E300064207375636365737366756C6C79212098
:103E4000200A0000AC0200201C02002064020020B6
:103E500044485431315F5461736B206661696C650D
:103E60006420200A00000000436F6D6D434220462D
:103E700061696C656420200A00000000557064616F
:103E8000746520436E747874204661696C656420A3
:103E9000200A0000424D50323830206661696C655E
:103EA0006420200A000000004465627567205461A8
:103EB000736B206661696C656420200A0000000055
:103EC00047503259313031206661696C6564202079
:103ED0000A0000004D51545420496E697420466117
:103EE000696C656420200A005075626C69736854BF
:103EF00061736B4661696C65640A00001248114980
:103F0000416001F50271816001F50271C16001F546
:103F1000027101610D4801684A6942F001024A617B
:103F20000B490A68536943F0010353610068C26892
:103F300042F02002C2600868C16841F02001C160FF
:103F4000704700007403002038000020EC020020BD
:103F5000AC0200201FB50022009101920292039250
:103F60006946FDF7E3FE1FBD1FB500220091012148
:103F7000CDE90112022103916946FDF7D7FE1FBD6D
:103F800010B5502080F31188BFF34F8FBFF36F8FB0
:103F900003F046F818B104494FF080500860002043
:103FA00080F3118810BD000004ED00E030B593B03F
:103FB00028216846FCF75CF914210AA8FCF758F997
:103FC000002501200F9510951195010412958DE89B
:103FD000230004900005CDE90810022407946846E8
:103FE000FEF7F4FC08B172B6FEE70AA90F2081E8DB
:103FF00031004FF48060CDE90D0501210AA8FEF7DC
:10400000D9FB08B172B6FEE74FF4804011900F94CF
:104010000FA8FEF759FB002801D072B6FEE713B0D7
:1040200030BD7047084C4FF0FF352946012002F0A3
:1040300081F806A12046FCF72DF90028F5D020468E
:10404000FDF720FBF1E700008C4600200000000097
:104050000148FFF721B800002C030020F0B50268EA
:10406000164B174C174D4FF08047984205D0B84279
:1040700003D0A04201D0A84203D122F070064A68C2
:104080003243984205D0B84203D0A04201D0A842A2
:1040900003D122F44074CA6822434C6922F08002A2
:1040A000224302608A68C2620A688262984201D131
:1040B0000969016301214161F0BD0000002C01404C
:1040C000000400400008004010B5846842EA032262
:1040D00024F47F440A432243826010BD826822F0A8
:1040E00070020A4342F007018160704710B5036A0D
:1040F000046A24F001040462846924F0F00444EAB0
:10410000021423F00A020A438461026210BD10B552
:10411000036A23F0100303628369046A23F4704383
:1041200043EA023224F0A00343EA011182610162F2
:1041300010BD000070B5044600680169E26821F412
:104140004051114301612169A06808436169084336
:104150002168CA6841F20C639A430243CA6020682E
:104160004169A26921F44071114341611E492068EF
:10417000884202D1FEF7E4FB01E0FEF7D1FB00EB41
:10418000C00101EB0012606864218000B2FBF0F313
:10419000B3FBF1F36FF018067343B2FBF0F5B2FB1B
:1041A000F0F605EB8305322303EB0515B5FBF1F5BE
:1041B000B6FBF1F605F0F00505EB0615B2FBF0F6DF
:1041C000B2FBF0F0B0FBF1F06FF01802504306EBD9
:1041D000800003EB0010B0FBF1F0216800F00F004D
:1041E0002844886070BD0000003801402DE9F0418E
:1041F000984617460E460446069D1DE0681C1BD0D7
:104200002DB1FDF78DFEA0EB0800A84214D920685F
:10421000C16821F4D071C1602068416921F00101B9
:104220004161202084F8390084F83A00002084F8A5
:1042300038000320BDE8F0812068006836EA0000FD
:1042400004D00020B842D9D00020F3E70120F9E7DC
:10425000014800F043B80000AC020020014800F023
:104260003DB80000EC020020074B002207499842AD
:1042700002D14B68C3F80422054B984202D1C868AA
:10428000C0F8042270470000EC0200203800002033
:10429000AC0200202DE9F04105460D4800260D4CEA
:1042A0004FF40077854206D139466068FBF7E0FF9E
:1042B0006068C0F800620848854206D13946E06867
:1042C000FBF7D6FFE068C0F80062BDE8F0810000AF
:1042D000EC02002038000020AC020020F0B501689C
:1042E0000B68CA68204F214E9C0617D5940615D539
:1042F0000A6849681E4CCDB2B84207D128466168A9
:1043000001F0A9FE607820706570F0BDB042FCD16C
:104310002846E168BDE8F04001F09DBE1B06F4D5DB
:104320001206F2D5B84215D1124A16E0C86820F03C
:104330008000C860F0BD00BFD2F80412D2F8043289
:10434000515C5B1CC3F30803C2F8043200680268C6
:104350004160F0BDB042FCD1074AD2F80032D2F839
:104360000442A342E8D1E1E7EC020020AC020020C5
:10437000380000207C0500208C0900200B4B0C49E4
:104380004FF0FF32984201D1486803E0094B984250
:104390000AD1C868D0F80012D0F80432994203D08C
:1043A000D0F80412405C704710467047EC020020C1
:1043B00038000020AC0200200F4B10494FF0FF32B4
:1043C000984201D1496803E00D4B984211D1C96868
:1043D000D1F80002D1F8043298420AD0D1F8040290
:1043E000D1F80422085C521CC2F30802C1F804226E
:1043F0007047104670470000EC0200203800002093
:10440000AC02002030B50D46044603E02946641C8A
:1044100000F004F820780028F8D130BD10B500284D
:1044200018DB144BC2B21448994214D18068D0F8FA
:104430000012491CC1F30801D0F804428C42FBD0A1
:10444000D0F800420255C0F800121868C16841F067
:104450008001C16010BD094B9942FBD10069D0F8C1
:104460000012491CC1F30801D0F804428C42FBD071
:10447000E6E70000EC02002038000020AC0200203B
:10448000FEE700002DE9F041884606460024FBF7D0
:10449000FAFE174F05464046FFF7A0F90028FAD06C
:1044A0004046FFF76BFF315D884213D07868D0F843
:1044B0000412491CC1F30801C0F80412EBE740469E
:1044C000641CFFF779FFAC420ED04046FFF786F937
:1044D0000028FAD04046FFF751FF315D8842EED008
:1044E000AC4201D00024D6E70120BDE8F0810000F5
:1044F000380000200FB4084B10B504A902AA039895
:1045000000F0E2F8044602A9002000F074FC204606
:1045100010BC5DF814FB0000F74D00080907090EF8
:10452000002804DB00F1E02080F80014704700F060
:104530000F0000F1E02080F8141D7047004870471C
:104540000801002002E008C8121F08C1002AFAD1A1
:1045500070477047002001E001C1121F002AFBD103
:10456000704700002DE9FF5FDDE90220010DDDF855
:1045700038B0024318D044F61050A1F2FF31414345
:104580000D140F98012820D0A5EB0B00401C5FEA0A
:10459000000A4FF00004474EDFF81C91A046504639
:1045A00016D5CAF1000728E00F98012443A201287C
:1045B00008D0002100980F9BC0E90021C0E9024308
:1045C000BDE8FF9F6FEA0B01F4E7CBF10000DEE7E7
:1045D000074612E0F80707D02246334640464946D0
:1045E000FBF79FFF80468946224633461046194610
:1045F000FBF797FF04460E467F10002FEAD1DDE956
:104600000201BAF1000F42464B4602DAFBF789FF7E
:1046100001E0FCF776F904460E460022284BFCF731
:10462000F7F903D84FF0FF30014607E00022254B91
:1046300020463146FBF7CEFEFCF7D2F9102409E004
:10464000002C0ADB0A220023FCF73DF8019B3032E4
:104650001A55641E50EA0102F2D1641C019AC4F199
:10466000110314440F9A012A03D0012208430DD1EB
:104670000AE0084304D000204FF0110B0F9080E7B0
:10468000A3EB0B056D1E0DE05B4504DD4FF0000252
:1046900005F1010504E003DA4FF00002A5F1010580
:1046A000002AECD000980F99C0E90231C0E900451A
:1046B00086E70000000024400000F03F30000000CA
:1046C0000000F0430000E03F2DE9FF4F95B09B460E
:1046D0008946064600250FE2252877D10024274683
:1046E000F84A0121059400E0044316F8013F203BFD
:1046F00001FA03F01042F7D130782A2811D06FF078
:104700002F033078A0F13002092A16D8059A44F018
:10471000020402EB820203EB42021044761C059075
:10472000EFE759F8042B0592002A03DA504244F4CB
:104730000054059044F00204761C30782E2816D1DF
:1047400016F8010F44F004042A280DD06FF02F0250
:104750003078A0F13003092B09D807EB870302EB6F
:104760004303C718761CF3E759F8047B761C3078AE
:104770006C280FD006DC4C2817D068280DD06A288A
:1047800014D104E0742810D07A280FD10DE044F43D
:1047900000140AE044F4801401E044F440147278F8
:1047A000824202D104F58014761C761C307866288B
:1047B0000BD013DC582877D009DC002875D04528A9
:1047C000F6D04628F4D047281AD19DE118E0632896
:1047D00035D0642879D0652812D195E1702873D03E
:1047E00008DC6728F1D069286FD06E280DD06F28BB
:1047F00006D1B5E073282CD0752875D0782874D0F0
:104800005A46179990476D1C75E1C4F3025002286F
:1048100009D003280DD0D9F8001004280DD00D6060
:1048200009F1040967E1D9F80010EA17C1E900525B
:10483000F6E7D9F800100D80F2E70D70F0E719F8EF
:10484000041B8DF8001000208DF80100EA460120BD
:1048500003E059F804AB4FF0FF3061074FF000015F
:1048600002D40DE008F101018846B9420FDA804513
:10487000F8DB1AF808100029F4D108E008F101016A
:1048800088468142FADB1AF808100029F6D105980B
:104890005B46A0EB080721463846179A00F094FAC9
:1048A000284400EB080507E04DE029E10DE01AF887
:1048B000010B5A4617999047B8F10108F7D25B46A9
:1048C00021463846179A13E142E00A220092C4F3C7
:1048D00002524FF0000A022A08D059F804CB032AEA
:1048E0004FEAEC710AD00DE029E02AE009F1070156
:1048F00021F00702F2E802C1914609E00FFA8CFCB0
:104900004FEAEC71042A03D14FFA8CFC4FEAEC71A8
:10491000002907DA0A460021DCF1000C61EB0201F4
:104920002D2202E0220504D52B228DF8042001223D
:1049300003E0E20701D02022F7E7904659E00A2180
:1049400002E010220DE010214FF0000A00910BE070
:1049500010224FF0000A44F004040827009203E0FC
:1049600008224FF0000A0092C4F30252022A05D036
:1049700059F804CB0021032A08D009E009F1070106
:1049800021F00702F2E802C1914605E01FFA8CFC13
:10499000042A01D10CF0FF0C4FF00008220728D5A3
:1049A000702806D0009B83F0100353EA0A0305D059
:1049B0000EE040228DF80420012208E05CEA0102AA
:1049C00006D030228DF804208DF805000222904692
:1049D000009B83F0080353EA0A030AD15CEA010250
:1049E00001D1620705D530228DF804204FF001086F
:1049F0007F1E582804D034A003900EA802900DE02A
:104A000036A0F9E753466046009AFBF75CFE844601
:104A10000398825C0298401E029002705CEA0100DA
:104A2000F0D1029806A9081A00F1200A600702D501
:104A300024F4803400E00127574502DDA7EB0A008B
:104A400000E0002000EB0A01009005984144401A64
:104A50000590E00306D45B462146179A059800F0BE
:104A6000B3F90544002706E001A85A46C05D17992E
:104A700090476D1C7F1C4745F6DBE0030CD55B4679
:104A80002146179A059800F09FF9054404E030206C
:104A90005A46179990476D1C0099481E00900029AE
:104AA000F5DC08E0029802995A460078491C029108
:104AB000179990476D1CBAF10001AAF1010AF1DCC7
:104AC00065E10000092801003031323334353637D2
:104AD000383961626364656600000000303132334A
:104AE00034353637383941424344454600000000EA
:104AF00000F058F90544761C307800287FF4ECADBE
:104B000019B02846BDE8F08F620700D4062709F1E6
:104B1000070222F0070CFCE80223E14603F00048FC
:104B20005FEA080C02D00FF2702C0DE05FEA045C23
:104B300002D50FF2682C07E05FEAC47C02D00FF2C6
:104B4000602C01E0AFF2700C4FF0FF3823F000430F
:104B5000CDF850C065280CD006DC452809D0462881
:104B60001DD047283DD13DE0662818D067287ED16A
:104B700038E00021112F01DB112000E0781CCDE985
:104B8000000106A90EA8FFF7EDFCDDE90F010E9A62
:104B900003910021009207F1010A04914DE04FF0CA
:104BA00000400097CDE9011006A90EA8FFF7DAFC36
:104BB000DDE90F0203920E9B11990022DDF80CA093
:104BC0000093049211B9791C00EB010AB7EB0A00BB
:104BD00004D4C0F1FF3007F1010A0490AAEB0700EA
:104BE000019044E0012F00DA01270021112F01DD9F
:104BF000112000E03846CDE9000106A90EA8FFF714
:104C0000B1FCDDE90F010E9A03910021049100929D
:104C1000BA4621070CD40399514500DA8A46BAF105
:104C2000010F05DD009AAAF10101515C302908D07D
:104C3000B84202DA10F1040F06DA0121CDE90110C1
:104C400015E0AAF10101E9E7002805DC0499014417
:104C50000491AAEB000102E0411C514500DD8A46A7
:104C60000499401A401C01904FF000400290200728
:104C700004D40198504501DBCDF8048000208DF864
:104C80004F0002980DF14F07B0F1004F25D02B20B7
:104C90000E9002984FF0020800280CDA4042029071
:104CA0002D200E9007E00A210298FBF7F6FC303128
:104CB000029007F8011DB8F10001A8F10108F2DC2B
:104CC00002980028EFD1791E0E980870307800F015
:104CD000200040F0450007F8020D12A8C01B00F1AB
:104CE00007081498007800B1012000EB0A01019830
:104CF00001EBE07105984144401A401E0590E00325
:104D000006D45B462146179A059800F05DF80544E5
:104D10001498007818B15A46179990476D1CE00313
:104D200024D55B462146179A059800F04DF80544B6
:104D30001CE00498002807DBDDE90301884203DD5D
:104D40000098405C179901E0179930205A46904727
:104D5000049805F10105401C04900198401E019043
:104D600004D12E205A46179990476D1CBAF10001C4
:104D7000AAF1010ADDDC05E017F8010B5A46179984
:104D800090476D1CB8F10001A8F10108F4DC5B4606
:104D90002146179A0598ABE62D0000002B00000075
:104DA000200000002DE9F041044600251E4617466C
:104DB000880404D405E039462020B0476D1C641EE9
:104DC000F9D52846BDE8F0812DE9F04104460025DB
:104DD0001E469046C80301D5302700E020278804EE
:104DE00004D505E041463846B0476D1C641EF9D530
:104DF0002846BDE8F0810A68531C0B6010707047AC
:104E0000F8B50546808C0C46762801D0772857D116
:104E1000012305F13202D021284601F0AFF8E8BBAA
:104E200095F83200582801D0602849D1B622E021F7
:104E3000284601F073FC88BB01236A46F32128460B
:104E400001F09CF89DF8001001F001010843F3D136
:104E5000284601F03BF8002833D095F8320060284E
:104E600004D1284601F09FF800282AD060796178A3
:104E7000400140EA8100C2B2F521284601F04EFC13
:104E800060B92078012801D100202070E078A17855
:104E9000400140EA81002178084300E010E0C6B2FA
:104EA00095F83200602805D12279F221284601F0D8
:104EB00035FC28B93246F421284601F02FFC08B110
:104EC0000020F8BD0120F8BD0321017000224270CE
:104ED0008170C1700171417170472DE9FC41044638
:104EE00090F8320090460F461E46602804D00EB15E
:104EF00000201860002602E00EB1082300E006231F
:104F00006A46F721204601F039F810B10020BDE8CB
:104F1000FC819DF800009DF8042001039DF801002C
:104F2000238841EA00119DF80200B4F9025041EAD9
:104F300010119DF80300000340EA02109DF80520BF
:104F400040EA1210C210A2EB4302C3EB2010404310
:104F5000B4F904306A430013D212584302EBA0356F
:104F600005EB85008030001238602A46204600F0AC
:104F700065F8C8F80000AEB3BDF80600E18B40BA92
:104F80008003A0EB0150A5F59635B4F92010227FDF
:104F900001FB150094F922106A4369434FF4004362
:104FA000891203EBE22251439A0102EBA121B4F9E9
:104FB0001A2000F58040514301F50051C0138913B8
:104FC0004843C1134943227EC9115143B0EB21101C
:104FD00001D5002004E04FF0C851884200DD0846AA
:104FE00000133060012092E7FEB51C0015460E4606
:104FF00001D002AB00E0002301AA6946FFF76DFF74
:10500000002818D00098FBF7FEFA0B49FBF798F937
:1050100030600198FBF700FB6FF00701FBF7CEF95A
:1050200028603CB10298FBF7F7FA6FF00901FBF733
:10503000C5F920600120FEBD0000C8422DE9F05FE7
:1050400004468B465349D0175118A1FB0123B4F9EC
:10505000106040F1FF30A2FB069C00FB013301FB16
:105060000033F71703FB06C602FB0768B4F90E50BE
:105070004FF0000AA5FB017CEE1706FB01C605FBFD
:1050800000656E0446EAD7367F0417EB090546EB48
:105090000806B4F90C701AEB050546EBC709B4F91C
:1050A0000A60A2FB06C803FB06834FEAE67702FB11
:1050B0000732B4F908604FEA1C23A6FB01C84FEA87
:1050C000E67707FB018106FB00104FEA003143EA57
:1050D00002634FEA0C3041EA1C51181841EB2222BE
:1050E000001C42F50043E288A0FB027603FB02624B
:1050F00000FB0A204210C31752EA030047D0CBF549
:105100008010C117C907C607751B41EA500140F658
:105110003546A5FB060C61EB090101FB06C1002722
:1051200005FB0711FBF74AF8B4F91630420B42EAC7
:10513000C142A3FB027CDD1705FB02C54E1303FB36
:105140000653A7FB025C03FB02C207FB06226B0EA1
:1051500043EAC2135616B4F91420A2FB007CD517FB
:1051600005FB00C502FB0155FA0CC01842EA4532A6
:105170007141801841EBE5414FEA102040EA01609F
:10518000B4F912104FEA01114018BDE8F09F002059
:10519000FBE70000000CFEFF184A00F5577192F87B
:1051A0006D20012A15D190F8913500220A2B02D0EA
:1051B0000B2B0ED115E00B78202B02D0402B06D004
:1051C00007E0097929B9012180F86C1005E0097917
:1051D00009B10120704780F8902580F891250020C2
:1051E000704700F86C2F0321427080F8242580F866
:1051F000202580F8222580F82515F0E7944300202B
:10520000FDF74EF9FEF7D2FE2E4801682E480160E8
:105210004160FEF79FFBFEF777FB2D482B490024EA
:1052200001602C49C0E901144FF48041C0E90341F9
:1052300044618461C4610462FCF778FE08B172B60F
:10524000FEE7FEF7E5FB254823490C2501604FF4F6
:10525000E131C0E90114C460C0E904458461C4615E
:10526000FDF7DBFF08B172B6FEE7FEF7F1FBFEF7D4
:1052700021FC1A481A49403001604FF46141C0E9ED
:105280000114C460C0E904458461C461FDF7C5FF31
:1052900008B172B6FEE7FEF731FE0D483038FCF774
:1052A00079FA08B172B6FEE7FBF7ACFC08B172B64A
:1052B000FEE7FCF71DF908B172B6FEE7FEF79EFCAB
:1052C000FEE700005800002030000020005400409D
:1052D00070010020A086010000380140AC020020CF
:1052E000004800402DE9F0410446032084F8D4052D
:1052F000C22084F8D5058C4D002084F8D6050127FE
:10530000AF713C21C4F8D8150621A8606970052149
:10531000A9700721E9702021297194F891154FF4A3
:105320007A7803290BD1C4F88405C4F8880520468F
:1053300000F0A0FE00287DD1404601F0C1F894F8AD
:105340009105052877D194F86D00012874D194F85F
:10535000D50595F90210800995F90100084407D098
:1053600095F90310084495F9041008440C3000E046
:105370000830A860E86004F53E7064210646FAF73C
:1053800077FF6AA13046FFF7B5F864213046FAF797
:105390006FFF102006F8010BD4F88805401CC4F8F4
:1053A0008805E868C11700EB516121F07F02801A7F
:1053B000C0B2C9112870E960002902DD40F0800008
:1053C000287006F8010BD4F88805401CC4F888053D
:1053D000E8680028E5DC95F9010055A1000A06F807
:1053E000010BD4F88805401CC4F88805687806F8D5
:1053F000010BD4F88805401CC4F88805304604F534
:10540000B164FFF777F8E86021680644084420603B
:1054100094F84C0006F8010B2068401C206094F8BA
:105420004D0006F8010B2068401C2060B4F85000C5
:10543000000A02E063E068E074E006F8010B20680F
:105440003DA1401C206094F8500006F8030B206832
:10545000401C206095F90200000A06F8020C206842
:10546000401C2060A87806F8010C2068401C2060D1
:105470003046FFF73FF8E8602168064408442060A2
:1054800094F84D00A4F5B164800934D095F9030077
:105490002BA1000A06F8010BD4F88805401CC4F8BB
:1054A0008805E87806F8010BD4F88805401CC4F894
:1054B0008805304604F5B164FFF71CF8E860014642
:1054C000226870181144216095F90410090A00F847
:1054D000011B2168491C2160297900F8011B216802
:1054E000491C216018A1FFF705F8E860216808440D
:1054F0002060A4F5B164204600F0F2FD10B1012057
:10550000BDE8F081404600F0DBFF94F891050928E2
:1055100008D194F86D00012804D10A2084F891057F
:1055200084F88F750020EBE7F800002000000000F1
:105530004D5149736470000053544D3332000000E4
:10554000726F686972746F0061696F5F46485A6B69
:10555000343368427A34564551454D4F30546D428C
:10556000453076586B774974000000002DE9F04112
:10557000044600F53E7064210646FAF779FE364D82
:1055800094F8CF0500276871AF6094F86C0001288B
:1055900054D194F89105E8BB302006F8010B0120A6
:1055A000C4F8880504F29D508046FAF76CFE801C12
:1055B000A860E860C11700EB516121F07F02801AFA
:1055C000C0B2C9112870E960002902DD40F08000F6
:1055D000287006F8010BD4F88805401CC4F888052B
:1055E000E8680028E6DC95F905004246000A3070BC
:1055F000D4F88815701C491CC4F88815697900F81E
:10560000011BD4F88815491CC4F8881513A104F5AA
:10561000B16400E012E0FEF76DFFE8602168084425
:105620002060A4F5B164204600F05AFD10B10120BD
:10563000BDE8F0814FF47A7000F042FF94F89105D4
:10564000092807D194F86C00012803D184F89175DA
:1056500084F890750020EBE7F80000202573000027
:105660002DE9F041134C0F46054666692068001D80
:1056700000F094FD681C07D137B12168BDE8F04106
:105680000D48091D00F03CBE20683544B542456018
:10569000216805D2A068BDE8F041091D00F018BEE0
:1056A0006068091D00F014FE206B854200D225635E
:1056B000BDE8F08180000020B81000202DE9F04105
:1056C000054600F029FE2D4C2069401C2061206811
:1056D0002B4F10B1E06930B32BE025602069012821
:1056E00027D1002606EB860007EB800000F0E2FDE4
:1056F000761C382EF6D3234800F0DCFD2148143008
:1057000000F0D8FD1F48283000F0D4FD1D483C3083
:1057100000F0D0FD1B48503000F0CCFD194860600F
:105720001430A06005E02068E96AC06A884200D8A9
:105730002560E06A401CE0626864E86AA16988420A
:1057400000D9A06100EB800007EB8000291D00F06C
:10575000D7FD00F001FEE06900280CD02068E96A5E
:10576000C06A884207D208494FF080500860BFF3F2
:105770004F8FBFF36F8FBDE8F081000080000020E5
:10578000080C00206810002004ED00E038B500F09F
:10579000C3FD104CA068C8B90F4800F08BFD0E483F
:1057A000143000F087FD0C482060143060600A4B14
:1057B00000202833009003F1500210210A2001F04C
:1057C00048F8A06010B105A100F044FEBDE83840E3
:1057D00000F0C2BDBC000020CC100020546D7251FE
:1057E0000000000030B4026C0B46002A0BD0C168E8
:1057F0001144C1604468A14201D30168C16030BC5A
:105800001846FAF71CBD30BC70472DE9F041856B96
:10581000174604460026026C82B1C7B1E068FAF769
:105820000EFDE168206C091AE1602268914202D203
:105830006168081AE060022F16D017E02068A8B946
:10584000606801F051FC0646002060600EE0A06830
:10585000FAF7F5FC216CA0680844A06061688842F2
:1058600004D32068A06001E005B16D1E6D1CA56326
:105870003046BDE8F081000008B5064C00226946BC
:10588000206801F06BF90128F8D10098FBF712FEAF
:10589000F4E700002400002010B5044690F85900F9
:1058A00058B101280CD002280FD0502080F3118865
:1058B000BFF34F8FBFF36F8FFEE7206B00F060FDEB
:1058C0002046BDE8104000F05BBD10BD0F4842F619
:1058D000F821420705D0C01D0C4A20F00700821AAB
:1058E000891A0B4A00230144C2E900030839103A1F
:1058F00021F0070111604B600B600B1AC0E9001327
:1059000093604FF000405360D06070479C180020B7
:10591000E00000200D4E0E4C12E000BF00F0FCFC39
:10592000F068C568281D00F039FC2069401E206120
:10593000E068401EE06000F00FFD2846FFF7ACFF76
:10594000E0680028EAD100F053FCF9E7A410002039
:1059500080000020002807D00021416001600B4634
:105960000A46C16000F0ECBF7047000070B51D46EC
:10597000049C51B1C4F80020C4E90F010121204664
:1059800000F09AFF84F84C5070BD2460F4E72DE9D4
:10599000F0470E46DDE90984174682469100994694
:1059A000089DA522206BFAF75CFC6FF00301206BC9
:1059B00001EB8701084420F00707780707D0502043
:1059C00080F31188BFF34F8FBFF36F8FFEE722186C
:1059D000315C82F83410315C11B1401C1028F6D3D0
:1059E000002684F84360382D00D33725E562C4E9EA
:1059F0001356201D00F069FC04F1180000F065FC4E
:105A00002461C5F138006462A061666584F858605D
:105A10004A465146384600F047FA2060B8F1000F78
:105A200001D0C8F80040BDE8F087000030B511494A
:105A300000E011460A688242FBD34B685C1884423E
:105A400003D1406818444860084643681C189442D3
:105A500009D1084C103C2468A24209D052681A446B
:105A600042600A6812680260814200D0086030BD5E
:105A70000460F9E7E000002070B5002441600B4DA0
:105A80000061914206D8D11A8269914206D2011D65
:105A9000686807E09A4203D2994201D3012403E0E7
:105AA000011D286800F014FC204670BDBC000020D9
:105AB00010B5044600F030FCA06B28B15FF0000484
:105AC00000F04AFC204610BD0124F9E730B589B04A
:105AD000304D55E00498002806DADDE90601059A04
