:020000040800F2
:10000000A833002099010008DB330008B12D000857
:10001000D9330008D50B000855390008000000004E
:1000200000000000000000000000000001010008C6
:10003000D90E00080000000045010008ED35000859
:10004000B3010008B3010008B3010008B3010008C0
:10005000B3010008B3010008B3010008B3010008B0
:10006000B3010008B3010008B3010008B3010008A0
:10007000B3010008B3010008B3010008B301000890
:10008000B3010008B3010008B3010008B301000880
:10009000B3010008B3010008B3010008B301000870
:1000A000B301000891360008B3010008B30100084D
:1000B000B3010008B3010008B3010008B301000850
:1000C000B3010008B3010008B3010008B301000840
:1000D000B301000849390008B3010008B301000862
:1000E000B3010008B3010008B3010008DFF80CD029
:1000F00000F04AFC00480047F5450008A8330020FE
:10010000224B19680868B0E8F00F80F30988BFF344
:100110006F8F4FF0000080F311884EF00D0E704786
:100120000000000006480068006880F3088862B696
:1001300061B6BFF34F8FBFF36F8F00DF00BF00BF0B
:1001400008ED00E0EFF30980BFF36F8F0F4B1A68E3
:1001500020E9F00F106008B54FF0500080F31188CF
:10016000BFF34F8FBFF36F8F05F0C4F94FF000005E
:1001700080F31188BDE8084019680868B0E8F00FFE
:1001800080F30988BFF36F8F704700BF64000020C1
:10019000EFF3058070470000064880470648004797
:1001A000FEE7FEE7FEE7FEE7FEE7FEE7FEE7FEE727
:1001B000FEE7FEE78F360008ED0000082DE9F0416C
:1001C0000024061B254671F1000605DA01240027EC
:1001D000D0EB070067EB0101161E73F1000605DA8C
:1001E0000027D2EB0702012567EB030300F047FA73
:1001F00086460E4617469C46AC4204D00025D0EBFE
:10020000050E65EB010624B10020D2EB000760EB80
:10021000030C704631463A466346BDE8F081202A19
:1002200004DB203A21FA02F00021704721FA02F3A0
:10023000D040C2F12002914008431946704740EA7D
:1002400001039B0703D009E008C9121F08C0042A54
:10025000FAD203E011F8013B00F8013B521EF9D23B
:100260007047D2B201E000F8012B491EFBD2704763
:100270000022F6E710B513460A4604461946FFF772
:10028000F0FF204610BD421C10F8011B0029FBD1D5
:10029000801A704780EA010210B502F00043400066
:1002A00022D04A001FD0010E01EB1261C0F35600AC
:1002B000C2F3560240F4000042F40002A0FB022008
:1002C00000047F39140400D0401C50EA124001D4CD
:1002D0004000491EC2B20C0604EBD010401C40087E
:1002E000802A02D003E0002010BD20F00100002988
:1002F00000DA0020184310BD30B480EA010202F099
:10030000004530F0004221F0004013D090B1C30D01
:10031000D40DC2F31601C0F31600E41A41F4000133
:1003200040F400027D34914201D3641C00E0490096
:10033000002C02DA30BC002070474FF4000000238C
:10034000914201D3891A034340084FEA4101F7D192
:1003500051B1914202D14FF0004105E002D24FF07D
:10036000010101E06FF0010103EBC450284430BCEF
:1003700000F0D7B9420005D0C0F3C75252429142B3
:1003800001DC0020704700EBC15070472DE9FE4FA3
:10039000804681EA0300C00F0C46009021F0004126
:1003A00023F00045B8EB0200A94105D240462146A2
:1003B00090461C460B46024623F00040104347D0AF
:1003C000270DC7F30A00C3F30A510290401A0190A7
:1003D00040286BDAC3F3130040F4801B0098924668
:1003E00020B10023D2EB030A63EB0B0B01985946B3
:1003F000C0F14002504600F073F906460D465046E3
:100400005946019A00F07BF910EB08006141002485
:1004100087EA115284EAE7731A4340D0009A62B324
:10042000019A012A4FEA075215DC001B61EB020119
:100430004FF0004202EA0752CDE90042001C41F5AC
:10044000801132462B4600F0B2F903B0BDE8F08FC0
:1004500040462146F9E7001B61EB0201001C41F513
:10046000801300185B412018A2F5001747EB030129
:1004700040EAD570B6196D4111E06D084FEA3606B5
:1004800045EAC0754FEA0752001B61EB0201001CF0
:1004900041F5801149084FEA3000001951413246B8
:1004A0002B4603B0BDE8F04F00F072B9009801226E
:1004B00040000023D0EB020263EBE073009821467A
:1004C0004FEAE074B8EB000061EB0401E9E783F068
:1004D00000435BE781F0004158E72DE9FE4F81EAD8
:1004E000030404F0004421F0004100944FF0000B9D
:1004F00023F0004350EA01045ED052EA03045BD0CB
:10050000C3F30A54C1F30A552C44A4F2F334019402
:10051000A0FB0254C1F3130141F48011C3F3130390
:1005200043F4801301FB024400FB034E840A970A44
:1005300044EA815447EA8357A4FB076802958D0A71
:1005400005FB07854FEA932C04FB0C542705029DFD
:100550004FEA065847EA1637B5EB08056EEB070C6D
:10056000870E920E47EA811742EA8312A7FB020127
:10057000B6EB0B0164EB00042B0D43EA0C335E1861
:1005800044EB1C50DA465146E7FB0201C5F3130465
:100590004FEA0B3343EA14534FEA0432019C43EA17
:1005A0000603A4F10C040294009CCDE900B400F011
:1005B000FEF803B0BDE8F08F00200146F9E7C10F57
:1005C00080EAE0700844CA079623002100F0B2B820
:1005D00096230022114600F0ADB80EB540F233412B
:1005E00002910021CDE900110A460B4600F0DFF828
:1005F00003B000BD00F0004230F000400AD0C10D51
:1006000001F56071C0F3160042EA0151C2084007CB
:100610001143704700200146704701F0004330B499
:1006200021F0004150EA010206D00A0DA2F56072E5
:10063000C1F31301002A02DC30BC00207047440FD4
:1006400044EAC104C100E01830BC00EBC25000F025
:1006500068B830B50B46014600202022012409E08D
:1006600021FA02F59D4205D303FA02F5491B04FA6B
:1006700002F52844151EA2F10102F1DC30BD2DE97E
:10068000F05F0546002092469B4688460646814616
:1006900040241BE02846414647462246FFF7BFFD5F
:1006A00053465A46C01A914110D311461846224665
:1006B00000F016F82D1A67EB01084F46224601207C
:1006C000002100F00DF817EB00094E41201EA4F1A7
:1006D0000104DFDC484631462A464346BDE8F09F28
:1006E000202A04DB203A00FA02F1002070479140F2
:1006F000C2F1200320FA03F3194390407047202AE7
:1007000006DBCB17203A41FA02F043EAE07306E039
:1007100041FA02F3D040C2F1200291400843194649
:1007200070470029A8BF7047401C490008BF20F04F
:100730000100704710B4B0FA80FC00FA0CF050EAE7
:10074000010404BF10BC704749B1CCF1200421FA68
:1007500004F411FA0CF118BF012121430843A3EB63
:100760000C01CB1D4FEA00614FEA102042BF002070
:1007700010BC704700EBC35010440029A4BF10BC4C
:100780007047401C490008BF20F0010010BC7047B2
:1007900010B5141E73F1000408DA401C41F1000189
:1007A00092185B411A4301D120F0010010BD2DE9E0
:1007B000F04D92469B4611B1B1FA81F202E0B0FAD7
:1007C00080F220329046FFF78BFF04460F4640EA46
:1007D0000A0041EA0B0153465A46084313D011461A
:1007E00053EA010019D0C8F140025046FFF717FD47
:1007F00005460E46504659464246FFF771FF0843EC
:1008000005D0012004E020463946BDE8F08D0020E7
:10081000054346EAE0762C4337430A986305E40A29
:10082000A0EB08000022FD0A44EA47540A3002D532
:1008300000200146E9E7010510196941DDE9084595
:1008400000196941BDE8F04DA2E72DE9F04D81EABC
:10085000030404F0004B21F0004514464FF0000A59
:1008600023F0004150EA050220D054EA01021DD0D5
:10087000C5F30A570246C5F31303C1F31300C1F3CE
:100880000A5640F4801543F48013A7EB0608101BAA
:10089000D64608F2FD3873EB050002D308F10108D3
:1008A00001E092185B41B8F1000F03DA0020014625
:1008B000BDE8F08D00204FF48011064684460EE01E
:1008C000171B73EB050705D3121B63EB05030643E8
:1008D0004CEA010C49084FEA300092185B4150EA9B
:1008E0000107EDD152EA030012D082EA040083EA44
:1008F0000501084305D0101BAB4106D2012200239D
:1009000006E000224FF0004302E06FF001025310B6
:100910001AEB06004CEB085110EB0A0041EB0B01FF
:10092000BDE8F04DFFF734BFC1F30A52C1F3130124
:1009300040F2FF3341F480119A4202DA002001466E
:10094000704740F233439A42A2F2334202DC5242F1
:10095000FFF765BCFFF7C4BE30B5041E71F100049B
:1009600004DB4FF00044404264EB0101141E73F1BC
:10097000000405DB1C464FF00043524263EB0403C6
:10098000994208BF904230BD064C074D06E0E06832
:1009900040F0010394E8070098471034AC42F6D3C6
:1009A000FFF7A8FB686100088861000870B504467D
:1009B00000688168C943C9071CD1816821F0010121
:1009C000816000F0B9FE05460FE000BF00F0B4FE04
:1009D000401B022809D9A06A40F01000A062E06A1A
:1009E00040F00100E062012070BD20688068C043D3
:1009F000C007EBD0002070BDF8B500260446009675
:100A000000688168C943C90728D0816841F00101A5
:100A10008160134813490068B0FBF1F000E0401E0C
:100A200000900028FBD100F087FE054611E000BFD2
:100A300000F082FE401B02280BD9A06A40F0100093
:100A4000A062E06A40F00100E06284F824600120C6
:100A5000F8BD20688068C043C007E9D10020F8BD18
:100A60003C00002040420F0000220421014800F019
:100A70005EBE00000008014001220421014800F090
:100A800056BE0000000801400B4810B5034603F0B5
:100A900049FC094A76202C3A19469084074890620E
:100AA000104603F0DBFB08B1002010BD4FF4FA60E4
:100AB00000F036FD012010BDE40200203C010020C2
:100AC00086B0294E294C2A4F0125642000F028FDCC
:100AD00014E028A1244802F03FFF0021206804F020
:100AE000F7FF002304961A4604A9386804F046FE6E
:100AF00000231A461946206804F040FE274B284878
:100B0000A3F10802111D03F09DFC0028E1D0DFF8DD
:100B10008CA0AAF1080ADAF80400FFF76BFD804602
:100B20008946DAF80000FFF765FD8DE803032A46E1
:100B30001CA10D4802F010FF0021206804F0C8FF3E
:100B4000002304961A4604A9386804F017FE00230F
:100B50001A461946206804F011FE41F288306D1CD7
:100B600004F0CCFBB1E70000D800002020000020FA
:100B70001800002054656D70657261747572652F80
:100B800070726573737572652072656164696E67F2
:100B9000206661696C65640A000000006000002046
:100BA000B802002025642E2050726573737572653B
:100BB0003A20252E32662050612C2054656D7065D8
:100BC0007261747572653A20252E32662043200AC0
:100BD00000000000FEE7000070B50124282000F0AE
:100BE00041F90B4D0221284600F09CFD40B95020F0
:100BF00000F038F90221284600F094FD00B10024ED
:100C0000002000F04BF9012800D0204670BD000004
:100C1000000C01402DE9F05F8B46824600F090F811
:100C2000FFF7DAFF002855D100F05CF82A4C20705D
:100C300000F058F8607000F055F8A07000F052F81D
:100C4000E07000F04FF8A0802278637840EA02015B
:100C5000A5781943E678294331430143FF2939D068
:100C6000D11829443144814234D146EA0526E68030
:100C700043EA02252581F0B2FFF7AFFCDFF85C8084
:100C8000DFF85C9042464B46FFF727FC04460F46D0
:100C9000300AFFF7A2FC22463B46FFF777FBFFF73F
:100CA000BCFCCAF80000E8B2FFF797FC42464B468E
:100CB000FFF713FC07460E46280AFFF78EFC3A465C
:100CC0003346FFF763FBFFF7A8FCCBF800000020DA
:100CD000BDE8F09F0120FBE7400000209A99999918
:100CE0009999B93F2DE9F0410024144F01260120C4
:100CF00000F0D4F801281FD0282000F0B3F802211A
:100D0000384600F00FFD88B1C4F1070106FA01F082
:100D10002843C5B2002000F0C1F801280CD0641CA3
:100D2000E4B2082CE3D32846BDE8F081C4F1070003
:100D300006FA00F08543EDE7FF20F5E7000C0140DF
:100D400010B50E4C0221204602F044FC0022022184
:100D5000204600F0ECFC44F2506000F083F80122E1
:100D60000221204600F0E3FC142000F07BF820462E
:100D7000BDE81040022102F023BC0000000C01403D
:100D800086B0DFF8A480294CDFF8A490012541F259
:100D9000883B2849081FFFF73DFFD0B126A1224814
:100DA00002F0DAFD0021206804F092FE0023CDF865
:100DB00010801A4604A9D9F8000004F0DFFC0023D3
:100DC0001A461946206804F0D9FC584604F096FAF1
:100DD000DFE7DFF860A0AAF1100ADAF81000FFF7E9
:100DE00009FC06460F46DAF80C00FFF703FC8DE815
:100DF000C3002A4614A10C4802F0AEFD0021206871
:100E000004F066FE0023CDF810801A4604A9D9F834
:100E1000000004F0B3FC00231A461946206804F0D1
:100E2000ADFC6D1CD1E70000D800002020000020A0
:100E30001800002050000020476574204461746150
:100E4000204572726F72000025642E2054656D700B
:100E5000203D202566204309205248203D2025665C
:100E6000200A000070B50B4C05464FF0FF3120689A
:100E700004F02EFE084900200A6850620968486A9A
:100E8000A842FCD32068BDE8704000231A461946EA
:100E900004F074BC0C000020E801002070B50D4D7A
:100EA00042F20F7410B10AE0641E10D002212846ED
:100EB00000F038FC0128F7D007E0641E07D00221BB
:100EC000284600F02FFC0028F7D0002070BD01203C
:100ED00070BD0000000C01407047000070B50C4C64
:100EE00005464FF0FF31606804F0F2FD2846FFF739
:100EF000CAF982B24FF47A732946064801F0FEFE21
:100F00006068BDE8704000231A46194604F036BCFC
:100F10001800002078020020044900220B685A6261
:100F200009684A6A8242FCD3704700003002002000
:100F300070B51C4C4FF0FF31206804F0C9FDFFF77D
:100F40009BFD4FF48C70FFF7E7FF174800F022FA83
:100F5000154800F061F9154D2860134800F07AFA41
:100F60002820FFF7D9FFFFF77FFD42F2D050FFF7AF
:100F7000D3FF00231A461946206804F0FFFB2868B7
:100F8000FFF726FB0A49FFF785F90A49FFF782F9BF
:100F9000FFF730FB084A094BFFF799FABDE87040AC
:100FA000FFF73BBB080000200C010020540000208C
:100FB0000000A03B00002A439A9999999999B93F5A
:100FC000064982B08A6942F400728A61896901F433
:100FD0000071009102B000F03DB800000010024026
:100FE0000EB5144E144D154F012441F2883800BF40
:100FF000FFF79EFFFFF7FEFACDE90001224610A1A0
:101000000C4802F0A9FC0021641C286804F060FD73
:10101000002302961A4602A9386804F0AFFB0023A9
:101020001A461946286804F0A9FB404604F066F900
:10103000DEE70000D800002020000020180000207B
:1010400025642E20415149203D2025662075672FBB
:101050006D330A00F8B500250446009590F8240089
:10106000012808D0012084F824002046FFF79EFCC8
:10107000060002D04BE00220F8BDA06A20F48850A0
:1010800040F00200A062022000F0C6FE224909687A
:10109000B1FBF0F0400000E0401E00900028FBD1C2
:1010A0002046FFF7A9FC2068816841F008018160B3
:1010B00000F042FB074604E000F03EFBC01B0A289C
:1010C00011D8206880680007F6D42068816841F054
:1010D0000401816000F030FB07460EE000F02CFBBD
:1010E000C01B0A2809D9A06A20F0020040F01000B5
:1010F000A06284F824500120F8BD20688068400771
:10110000ECD4A06A20F0020040F00100A06284F854
:1011100024503046F8BD00003C000020F8B5002403
:10112000009490F824202546012A12D0012280F84C
:1011300024204A681F23072A0DD20668776B521EA7
:1011400002EB820293409F430B6893401F437763F7
:1011500019E00220F8BD06680D2A0AD2376BD21FAB
:1011600002EB820293409F430B6893401F43376317
:1011700009E0F76A0D3A02EB820293409F430B6845
:1011800093401F43F7620A68072306680A2A0AD3B6
:10119000F7680A3A02EB420293409F438B68934000
:1011A0001F43F76008E0376902EB420293409F4318
:1011B0008B6893401F4337610A68102A01D0112AB7
:1011C00020D1124B02689A4217D193681B0219D49E
:1011D000936843F4000393600968102912D10C4905
:1011E0000C4A0968B1FBF2F101EB8101490000E012
:1011F000491E00910029FBD104E0816A41F02001E1
:101200008162012480F824502046F8BD002401406A
:101210003C00002040420F000068C06C7047000096
:101220002DE9F0414FF0000704003D467ED0A06A52
:10123000002628B9E66284F82460204600F07EF893
:101240002046FFF7B3FBA16A01F01001014304D06F
:10125000A06A40F01000A06268E0A16A21F4885101
:1012600041F00201A1626268E169237B0A4347EA17
:1012700043010A43A1684FF48077B94208D001299D
:1012800006D0002194F814C0BCF1010F02D00AE08E
:101290003946F7E7F3B1A36A43F02003A362E36A98
:1012A00043F00103E3622368D3F804C02CF4694CD3
:1012B0004CEA010CC3F804C023689968DFF870C0D9
:1012C00001EA0C0111439960A168B9420BD00129D0
:1012D00009D00CE0DFF85CC0A3690CEB43330B438F
:1012E00043F40061DFE7218A0D05A5F5801521682B
:1012F000CB6A23F470032B43CB62216889680E4BC1
:101300001940914208D1E662A16A21F0020141F040
:101310000101A162BDE8F081A06A20F0020040F066
:101320001000A062E06A40F00100E0620120F1E7F5
:10133000FDF7E1FF00E0FFFFFE0E1FFF00B585B0E7
:101340000021009101910291039100680E498842A9
:1013500018D10E48816941F400718161816901F4FD
:1013600000710491816941F00401816180696946DD
:1013700000F0040004900220009003200190044833
:1013800000F0E0F805B000BD00240140001002406C
:101390000008014070B5044690F8240001280DD0E3
:1013A000012084F824002046FFF726FB02004FF0BE
:1013B000000005D084F82400104670BD022070BDE6
:1013C000A16A40F20123994341F48071A1621F4D4B
:1013D00023681F49AB4218D10E6816F4702F14D041
:1013E000A66A46F48016A6620E68760505D5A66A3A
:1013F00026F4005646F48056A662A66AF6040AD57C
:10140000E66A26F00606E66206E0A66A26F480167C
:10141000A6625E68E9E7E06284F824006FF00200EB
:10142000186020688368C3F34243072B05D1A842A4
:1014300008D1096811F4702F04D0816841F480113B
:101440008160B9E7816841F4A001F9E70028014013
:101450000424014010B5044690F82400012807D068
:10146000012084F824002046FFF7A0FA10B107E01D
:10147000022010BDA16A21F4885141F00101A1624E
:10148000002184F8241010BD10B590F8211000241C
:10149000022903D00421816301243DE001680A6828
:1014A00022F00E020A6001680A6822F001020A6056
:1014B0001A4A0168914201D1012121E0174A1432F0
:1014C000914201D110211BE0144A2832914201D1EE
:1014D000891515E0114A3C32914201D189140FE07F
:1014E0000E4A5032914202D14FF4803108E00B4A4B
:1014F0006432914202D14FF4801101E04FF08071CB
:10150000064A083A5160012180F82110002180F834
:101510002010416B01B18847204610BD08000240F1
:1015200070B5044600F008F90546601C02D0044876
:101530000078044400F000F9401BA042FAD370BDCB
:10154000300000202DE9F84FDFF8B891002409F1B0
:10155000040A0AF1040B23460F270BF1040EC9E01D
:101560000125A5402A40AA427DD1674ED1F804C08A
:10157000ACEB0608B44532D014DCBCF1030F3AD012
:1015800009DCBCF1000F2AD0BCF1010F1CD0BCF16A
:10159000020F31D11DE0BCF1110F17D0BCF1120FB9
:1015A0002AD119E0B8F5881F19D006DCB8F5803FBC
:1015B00015D0B8F5801F1FD111E0B8F5001F0ED06F
:1015C000B8F5041F18D10AE0CB6815E0CB681B1DE5
:1015D00012E0CB6808330FE0CB680C330CE08B686B
:1015E0002BB1012B4FF0080303D0456104E0042325
:1015F00002E0056100E00023FF2A01D8064601E071
:1016000000F104064FEA840501D9A5F12005D6F8BA
:10161000008007FA05FC28EA0C0803FA05F548EAF9
:101620000508C6F800804D68ED0062D5374DAE69FB
:1016300046F00106AE61AD6924F0030605F0010530
:101640000095334D06EB050CDCF80850A607360F65
:1016500007FA06F825EA0805DFF8B880404503D107
:101660004FF0000817E044E0DFF8AC80404502D1BD
:101670004FF001080FE0DFF8A480404502D14FF0A1
:10168000020808E0DFF89880404502D14FF00308D7
:1016900001E04FF0040808FA06F848EA0508CCF81B
:1016A00008804D68D9F80060ED034D4601D516431A
:1016B00000E096432E604D68DAF80060AD035546B1
:1016C00001D5164300E096432E604D68DBF80060BC
:1016D000ED025D4601D5164300E096432E604D684D
:1016E000DEF80060AD02754601D5164300E0964372
:1016F0002E60641C0D682A46E5407FF431AFBDE8DA
:10170000F88F00000004014000001110001002409A
:101710000000014000080140000C014000100140A1
:10172000001401408068084000D0012070470AB1D1
:10173000016170470904FBE70148806870470000B9
:101740003000002070B5040025D094F83D0000253D
:1017500020B984F83C50204600F078FA242084F820
:101760003D002068016821F00101016020680168E6
:1017700041F4004101602068016821F400410160EA
:1017800000F0DAFC4D4A6168914201D84C4900E012
:101790004C49884201D2012070BD4B492368B0FBFF
:1017A000F1F15E6826F03F060E435E606368934287
:1017B00006D94FF4967359434FF47A73B1FBF3F1A2
:1017C0002368491C1E6A26F03F063143196261688E
:1017D000914210D84900401EB0FBF1F2521CC2F3F6
:1017E0000B02042A01D2042022E0B0FBF1F0401CDD
:1017F000C0F30B001CE0A268F2B301EBC10303EBE2
:101800000116431EB3FBF6F35B1C43F480431B0538
:1018100049D092B301EBC10202EB0111401EB0FBB3
:10182000F1F0401CC0F30B0040F4804040F4004055
:101830002168CA694CF6FF739A431043C861D4E922
:10184000071001432068026822F0C00211430160C2
:10185000D4E9030101432068826848F2FF339A43C8
:1018600011438160D4E9050108432168CA6822F068
:10187000FF021043C86001E00EE016E02068016836
:1018800041F0010101602564202084F83D002563BA
:1018900084F83E50002070BD01EB4106431EB3FBAF
:1018A000F6F35B1CB3E70120C2E701EB4101401EE8
:1018B000B0FBF1F0401CC0F30B00B7E7A0860100BD
:1018C00080841E0000093D0040420F002DE9FF4FBB
:1018D00083B00025DDE910799A4693460446DDF889
:1018E00048800095FFF728FF064694F83D00202821
:1018F0007CD11923012285492046009601F068FB1E
:101900000028F5D194F83C0001286FD0012084F81C
:101910003C0020680168C90703D1016841F001015A
:1019200001602068016821F400610160222084F8D0
:101930003D00402084F83E0025646762A4F82A90A8
:10194000608D20857248E062CDE9008653465A4694
:101950002046049901F044FA00287DD1208DDFF85B
:10196000B491202768B1012814D0022820680168AA
:101970001ED041F480610160206841698069009057
:10198000B6E02068416981690091016841F4007105
:101990000160ADE02068016821F48061016072B6E9
:1019A0002068416981690091016841F400710AE091
:1019B00041F40061016072B620684169816900915B
:1019C000016821F48061016062B691E0032868D863
:1019D00001280CD0022843464FF000024946204619
:1019E00000960FD001F0F4FAB0BB10E08BE0324665
:1019F0004146204601F06BFB70BB20680069616ABC
:101A000008706CE001F0E4FA30BB72B634E0206894
:101A1000016821F48061016072B620680069616A22
:101A20000870606A401C6062208D401E2085608DB9
:101A3000401E6085384846F2A8110068B0FBF1F0FE
:101A4000C0EBC00000EB80000090401E009008D06A
:101A500020684069C04300E029E040070CD50098A9
:101A6000F3E744F8305F6773A573206940F0200006
:101A7000206162B625731AE02068016841F40071A4
:101A8000016020680069616A0870606A401C6062D9
:101A9000218D491E2185618D491E618562B62168AF
:101AA0001BE032464146204601F011FB18B10120EF
:101AB00007B0BDE8F08F20680069616A0870606A4D
:101AC000401C6062218D491E2185618D491E618502
:101AD00021684A69D24352070AD409690170606AD1
:101AE000401C6062208D401E2085608D401E6085F8
:101AF000208D00287FF46AAF84F83D7084F83E5052
:101B000084F83C50D4E70220D2E700000200100025
:101B10000000FFFF040001003C0000202DE9FF4F02
:101B200083B09A46DDE9119793460446DDF840807C
:101B3000FFF702FE054694F83D0020287FD11923C7
:101B4000012240492046009501F042FA002876D152
:101B500094F83C00012872D0012084F83C002068F1
:101B60000168C90703D1016841F0010101602068E3
:101B7000016821F400610160212084F83D004020CB
:101B800084F83E0000262664C4F82480A4F82A9035
:101B9000608D20852C48E062CDE9007553465A4699
:101BA0002046049901F09AF970B930E02A46394686
:101BB000204601F0BFFA58B1206C042804D12068F7
:101BC000016841F400710160012007B0BDE8F08FA9
:101BD000606A216800780861606A401C6062218D3B
:101BE000491E89B22185628D521E62852268536921
:101BF000DB435B070BD469B100781061606A401C5D
:101C00006062208D401E2085608D401E6085208D85
:101C10000028CBD12A463946204601F0B3F90028E6
:101C2000CAD154F83D0B016841F4007101602020D5
:101C300004F81E09E67766770020C6E7FFE7022072
:101C4000C3E70000020010000000FFFF10B586B0DF
:101C50000021009101910291039100680F4988428F
:101C60001AD10F4CA06940F00800A061A069694634
:101C700000F008000490C020009012200190032082
:101C800003900848FFF75EFCE06940F40010E06153
:101C9000E06900F40010049006B010BD005400404C
:101CA00000100240000C0140024881680278114493
:101CB0008160704730000020074810B5016841F08E
:101CC00010010160032000F095F8002000F006F8F4
:101CD00000F03EF8002010BD0020024000B5014693
:101CE00087B00022192000F065F8192000F054F8A0
:101CF0001348816941F400618161806905A900F49C
:101D000000600690684600F0F7F900F025FA0D49EA
:101D10000D4AB0FBF1F10D48491E0260416040F2EE
:101D2000E7320021C0E90321816000F0B5FC10B169
:101D3000012007B000BD054800F022FDF9E70000D2
:101D40000010024040420F00002C0140EC02002035
:101D50000F4808B5816941F001018161816901F095
:101D600001010091C16941F08051C161C069002247
:101D700000F0805000900F21901E00F01BF80548E5
:101D8000416821F0E06141F00071416008BD000050
:101D90000010024000000140002809DB00F01F0293
:101DA000012191404009800000F1E020C0F80011BD
:101DB00070470000F0B40E4B1B680C46C3F30223BF
:101DC000C3F10705042D00D90425191D072901D2E7
:101DD000002300E0DB1E012606FA05F1491E214022
:101DE00099409E40761E16403143F0BC01F0C8BDBC
:101DF0000CED00E0064900F0070208684FF6FF030B
:101E0000184040EA0220034A10430860704700006F
:101E10000CED00E00000FA0510B529A401461DCC28
:101E200086B08DE81D002AA02A4C0068049000208E
:101E3000012923D002293AD010291DD161682268D6
:101E4000D20119D5C1F38342C9031DF8020009D597
:101E5000616804AAC1F34041515C1F4AB2FBF1F131
:101E6000484301E01D4948436168490204D44000E9
:101E70005FF00301B0FBF1F006B010BD226AC2F3BF
:101E80000121012903D1920701D5C803F4E70229F2
:101E900005D1626A920702D549F64040ECE7032972
:101EA000EAD121688903E7D54FF22440E4E700F046
:101EB00053F96168C1F38131491C4900DAE7000038
:101EC00002030405060708090A0B0C0D0E0F10107B
:101ED000010200000010024000127A0000093D00DB
:101EE0002DE9F84305460078354CC00754D0E06929
:101EF0000026C00008D4E06940F08050E061E0694D
:101F0000012600F0805000902E480168C90512D4C7
:101F10000168804641F480710160FFF70DFC0746BF
:101F200005E000BFFFF708FCC01B642823D8D8F8E1
:101F30000000C005F6D5206A10F4407021D0A988B1
:101F400001F4407181421CD0206A1F49012220F413
:101F500040700A6000220A602062C00711D0FFF7BB
:101F6000EBFB074641F2883808E000BFFFF7E4FBCF
:101F7000C11B414502D90320BDE8F883206A8007D0
:101F8000F4D5206A696820F44070084320621EB1CD
:101F9000E06920F08050E0612878800705D560680E
:101FA000A96820F44040084360602878C00605D541
:101FB0006068E96820F48000084360600020DBE787
:101FC0000010024000700040400442422DE9F047FA
:101FD0000F46050061D0434E306800F00700B8425C
:101FE00009D2306820F0070038433060306800F0D4
:101FF0000700B84251D128683B4C810712D54007F1
:1020000003D5606840F4E06060602878000703D57D
:10201000606840F4605060606068A96820F0F0007B
:10202000084360602878C00728D06868012810D06D
:102030002168022810D0890700292EDA616821F072
:10204000030101436160FFF777FB804641F2883965
:102050000DE021688903EFE78901EDE7FFF76CFBED
:10206000A0EB0801494502D90320BDE8F08760686C
:10207000696800F00C00B0EB810FEFD1306800F020
:102080000700B8420BD9306820F0070038433060B1
:10209000306800F00700B84201D00120E5E7287859
:1020A000400705D56068E96820F4E0600843606097
:1020B0002878000706D56068296920F4605040EA56
:1020C000C100606000F058F86168084AC1F303116C
:1020D000515CC8400649086006480068FFF7FEFDED
:1020E0000020C2E7002002400010024050610008BA
:1020F0003C000020340000200F2202600C4A53688C
:1021000003F003034360536803F0F00383605368F4
:1021100003F4E063C36052684FF4E06303EAD20261
:1021200002610448006800F0070008607047000082
:102130000010024000200240044805490068496838
:10214000044AC1F30221515CC84070473C000020A2
:1021500000100240606100080448054900684968B1
:10216000044AC1F3C221515CC84070473C000020C2
:10217000001002406061000812A185B00FC98DE80F
:102180000F0014A0144A006804905168134801F02D
:102190000C03042B10D0082B0ED1C1F38343C903C9
:1021A0001DF803000AD5516804AAC1F34041515CEF
:1021B0000A4A5043B0FBF1F005B070470849484364
:1021C000FAE7000002030405060708090A0B0C0DD4
:1021D0000E0F1010010200000010024000127A00E1
:1021E00000093D002DE9F84F040070D02078C04D63
:1021F000C00749D06868C0F38100012807D068682B
:10220000C0F38100022809D16868C00306D5286898
:10221000800339D560680028E7D035E06068B0F504
:10222000803F0BD010B1B0F5A02F11D0286820F45A
:1022300080302860286820F4802002E0286840F47C
:1022400080302860606890B1FFF776FA06460AE0B1
:10225000286840F480202860F0E700BFFFF76CFAA0
:10226000801B642873D828688003F7D50CE0FFF73B
:1022700063FA064605E000BFFFF75EFA801B64289C
:10228000F0D828688003F7D420789A4E80074FF062
:1022900001094FF0000839D5686810F00C0F07D01D
:1022A0006868C0F38100022809D16868C00306D4B9
:1022B0002868800714D52069012808D110E020691A
:1022C000B0B1C6F80090FFF737FA074605E00AE11B
:1022D000FFF732FAC01B0228C4D828688007F7D558
:1022E0002868616920F0F80040EAC10028600DE02C
:1022F000C6F80080FFF720FA074604E0FFF71CFA53
:10230000C01B022823D828688007F7D4207800074C
:102310002CD57948A169D9B1C0F80090FFF70CFA23
:10232000074604E0FFF708FAC01B02280FD8686AC6
:102330008007F7D571484FF4FA510068B0FBF1F00F
:10234000009000BF0098411E0091FAD20EE080E09C
:10235000C0F80080FFF7F0F9074604E0FFF7ECF95A
:10236000C01B022875D8686A8007F7D42078400718
:1023700060D5E8690027C00008D4E86940F08050C3
:10238000E861E869012700F0805000905C4801682E
:10239000C90513D40168834641F480710160FFF7D9
:1023A000CBF9824606E000BFFFF7C6F9A0EB0A00B2
:1023B00064284ED8DBF80000C005F5D5E068012898
:1023C0000AD008B1052813D0286A20F0010028623D
:1023D000286A20F0040002E0286A40F00100286228
:1023E000E06841F2883B98B1FFF7A6F982460BE01E
:1023F000286A40F004002862EEE700BFFFF79CF96E
:10240000A0EB0A0159455AD8286A8007F6D50CE096
:10241000FFF792F9824605E0FFF78EF9A0EB0A017B
:1024200059454CD8286A8007F6D41FB1E86920F0D6
:102430008050E861E06988B36968C1F381010229CD
:1024400044D00228C6F8608004D0FFF775F904462E
:1024500038E034E0FFF770F9074604E0FFF76CF965
:10246000C01B02282BD828688001F7D4206AB0F559
:10247000803F05D16868A16820F400300843686097
:10248000D4E908010843696821F4741108436860BD
:10249000C6F86090FFF750F9044606E025E000BF5B
:1024A000FFF74AF9001B022809D828688001F7D5F0
:1024B0001BE000BFFFF740F9001B022802D90320F0
:1024C000BDE8F88F28688001F4D40EE00128F7D029
:1024D0006868226A00F48031914204D1616A00F494
:1024E0007010884201D00120EAE70020E8E70000F0
:1024F0000010024000004242800442423C000020A2
:102500000070004070B5040009D0606A002540B139
:1025100025616561A56294F8510040B10CE001208D
:1025200070BD6068B0F5827FF4D0E561F2E784F8B1
:102530005050204600F040F8022084F851002068F6
:10254000016821F040010160A088218900F48270B7
:1025500001F404410843A18901F400610843217C8E
:1025600001F002010843217D01F001010843218BA4
:1025700001F400710843217F01F03801084394F809
:10258000201001F080010843218D01F4005108431F
:1025900021680860A069042101EA104021684860B0
:1025A0002068C16921F40061C1616565012084F87A
:1025B0005100002070BD000030B585B000240094AB
:1025C00001940294039400681549884225D1154866
:1025D000C16941F48041C161C16901F48041049144
:1025E000816941F00801816180690F4D00F00800A8
:1025F00004904FF4204000900220019003200390AB
:1026000069462846FEF79EFF4FF48040CDE900045E
:10261000694628460294FEF795FF05B030BD0000DC
:102620000038004000100240000C01407047704725
:1026300070B590F83C20012A26D0012480F83C4057
:10264000022280F83D2003685A689D6822F07006D7
:102650000A6832435A600D4B02689A4208D0B2F1C0
:10266000804F05D00A4B9A4202D00A4B9A4204D1BD
:10267000496825F080031943916080F83D400021AE
:1026800080F83C10084670BD022070BD002C01404F
:10269000000400400008004010B5040003D094F886
:1026A0003D0010B107E0012010BD002084F83C007F
:1026B000204600F01FF8022084F83D00211D20680C
:1026C00000F0ECFF012084F8460084F83E0084F816
:1026D0003F0084F8400084F8410084F8420084F808
:1026E000430084F8440084F8450084F83D0000204D
:1026F00010BD000008B501680B48B1F1804F0BD048
:102700000A4A914207D1C16941F00201C161C06921
:1027100000F00200009008BDC16941F00101C161F3
:10272000C06900F00100F5E700100240000400401D
:1027300090F83D10012901D001207047022180F856
:102740003D1000680B49884208D0B0F1804F05D099
:102750000949884202D00949884204D1816801F0C0
:102760000701062903D0016841F001010160002042
:1027700070470000002C01400004004000080040A9
:1027800090F83D10012901D001207047022180F806
:102790003D100168CA6842F00102CA6000680B4936
:1027A000884208D0B0F1804F05D00949884202D054
:1027B0000849884204D1816801F00701062903D045
:1027C000016841F00101016000207047002C0140C8
:1027D000000400400008004070B5044690F83C003A
:1027E000012817D0012584F83C50022084F83D00D0
:1027F0002068826822F0770222F47F4282600868B3
:10280000502830D00DDC20284DD005DC98B310289E
:102810003BD148E0022070BD302844D0402834D15C
:1028200039E0602828D0702806D0B0F5805F2CD021
:10283000B0F5005F29D10AE0CB68D1E90121206819
:1028400000F062FF2068816841F0770109E0CB6801
:10285000D1E90121206800F057FF2068816841F428
:102860008041816011E0CA684968206800F05EFF1D
:102870005021206807E016E0CA684968206800F027
:1028800066FF6021206800F049FF84F83D50002079
:1028900084F83C0070BDCA684968206800F046FFB3
:1028A00040212068EFE7226801461046EBE77047B9
:1028B00070B50446006801694FF00005C9438907F7
:1028C00015D4C168C943890711D4E91E01610120EB
:1028D0002077206880698007204602D0FFF7E7FF55
:1028E00004E000F098F8204600F096F8257720687C
:1028F0000169C943490717D4C168C943490713D4BB
:102900006FF004010161022020772068806910F4D3
:10291000407F204602D0FFF7CAFF04E000F07BF8BA
:10292000204600F079F8257720680169C943090736
:1029300016D4C168C943090712D46FF008010161B8
:10294000042020772068C0698007204602D0FFF766
:10295000AEFF04E000F05FF8204600F05DF8257758
:1029600020680169C943C90617D4C168C943C906AB
:1029700013D46FF010010161082020772068C0692E
:1029800010F4407F204602D0FFF791FF04E000F0F2
:1029900042F8204600F040F8257720680169C943D5
:1029A000C90708D1C168C943C90704D1891E01619B
:1029B000204600F033F820680169C943090609D4AC
:1029C000C168C943090605D46FF080010161204642
:1029D000FFF72CFE20680169C943490609D4C16884
:1029E000C943490605D46FF040010161204600F05B
:1029F0001FF820680169C94389060BD4C168C9431F
:102A0000890607D46FF0200101612046BDE87040BF
:102A1000FFF70DBE70BD70477047000000680349A6
:102A2000884201D1FFF740B970470000002C0140F7
:102A30007047704770B5026804461068D1685369E2
:102A400010F00F0F53D003F0010501F490762E43E0
:102A50005FD0C20705D0CA0503D5E26B42F0010280
:102A6000E263420705D5DA0703D0E26B42F00202C7
:102A7000E263820705D5DA0703D0E26B42F0040275
:102A8000E263020707D501F020022A4303D0E26B7C
:102A900042F00802E263E26B002A34D0800604D5DB
:102AA000880602D5204600F07AFE20684069E16B76
:102AB000C0F3801001F008010143204624D000F04B
:102AC00060FE2068416949061AD5416921F040013C
:102AD0004161606BA0B12D494163606BFEF7D4FC8E
:102AE000002810D0606B416BBDE87040084783063A
:102AF0000FD58B060DD52046BDE8704000F04FBEC7
:102B00002046FFF796FF70BDFFF793FF0020E063BC
:102B100070BD03062BD50B0629D594F83900212862
:102B2000F6D1A068B0F5805F01D12069B0B1206A0C
:102B3000411C2162216800784860E08C401E00043E
:102B4000000CE084E4D12068C16821F08001C160FC
:102B50002068C16841F04001C16070BD206A0088F2
:102B6000C0F308005060206A801C2062E5E7400640
:102B7000F3D54806F1D5D168204621F04001D16057
:102B8000202184F8391000F012F970BD7337000865
:102B900070B5040004D094F83900002510B106E0A7
:102BA000012070BD84F83850204600F023F824201E
:102BB00084F839002068C16821F40051C1602046C2
:102BC00000F034FE2068016921F490410161206821
:102BD000416921F02A0141612068C16841F4005136
:102BE000C160E563202084F8390084F83A000020B1
:102BF00070BD000030B585B00024009401940294AB
:102C000003940068184988422CD11848816941F41E
:102C100080418161816901F480410491816941F0C1
:102C2000040181618069124D00F0040004904FF4AA
:102C3000007000900220019003200390694628460E
:102C4000FEF780FC2815CDE9000469462846029469
:102C5000FEF778FC002205212520FFF7ABF82520A0
:102C6000FFF79AF805B030BD00380140001002406F
:102C70000008014090F83A30202B22D1F9B1F2B18E
:102C800090F83830012B1CD081628285C2850021EA
:102C9000C163222280F83A2080F838100168CA689F
:102CA00042F48072CA6001684A6942F001024A61D6
:102CB0000068C16841F02001C16000207047012018
:102CC000704702207047000010B50068084988422C
:102CD0000CD1642301220749074800F00FF8BDE832
:102CE0001040012203490448FFF7C4BF10BD000093
:102CF0000038014024000020780200202DE9F8432C
:102D0000044690F839001F4616460D4620284CD13F
:102D1000C5B1BEB194F83800012846D0012084F82E
:102D200038004FF00008C4F83C80212084F83900B6
:102D3000FEF702FDA6848146E684A068B0F5805FB8
:102D400003D004E00120BDE8F883206928B12E46B5
:102D50005FF0000584F838800EE00026FAE7802155
:102D6000204600F0BFFDA0B9AEB116F8010B2168F6
:102D70004860E08C401EE084E08C4B464FF000023F
:102D800000970028EBD14FF04001204600F0AAFD4B
:102D900030B10320D7E735F8020BC0F30800E6E7AF
:102DA000202084F839000020CDE70220CBE77047CF
:102DB000FEE701684A69D24352050FD46FF480627E
:102DC0004A61002140F8301F20224273817302695A
:102DD00042F0040202610173012070470020704735
:102DE0002DE9F84F0446006889460B9D0168984616
:102DF000174641F4806101602068016841F48071E8
:102E0000016000954FF0011B0022594620460A9BA5
:102E100000F0DEF84FF4007A40B120680068C00589
:102E200001D5C4F840A00320BDE8F88F216809F05F
:102E3000FE0008612B46284920460A9A00F0FCF85B
:102E4000F0BB20684169806900902A4620460A99B3
:102E500000F070F940B1206C04283AD12068016874
:102E600041F40071016034E0FEB2B8F1010F09D005
:102E70002168380A08612A4620460A9900F05AF962
:102E80000028E8D1206806612A4620460A9900F009
:102E900051F90028DFD12068016841F48071016098
:102EA00000950022594620460A9B00F091F8002820
:102EB000B3D1216809F0FF0040F00100086100E093
:102EC00007E02B46044920460A9A00F0B5F800288E
:102ED000AAD00120A8E70000020001002DE9F84374
:102EE000044600680D46DDE90897016898461646D5
:102EF00041F4807101604B4600224FF001112046E1
:102F0000009700F065F848B120680068C00502D558
:102F10004FF4007020640320BDE8F883216805F0B9
:102F2000FE0008613B464A461549204600F084F8F9
:102F300088B920684169806900903A464946204630
:102F400000F0F8F848B1206C042804D1206801682A
:102F500041F4007101600120DEE7F5B2B8F1010F24
:102F600009D02168300A08613A464946204600F0F7
:102F7000E1F80028E7D1206805610020CCE70000D7
:102F80000200010070B516460D4604460DE02046CD
:102F9000FFF70FFF08B1012070BD681C05D0FEF7D8
:102FA000CBFB801BA84207D835B120684069C043DD
:102FB0004007ECD4002070BD002044F8300F2021E1
:102FC0006173A073216941F0200121612073E2E760
:102FD0002DE9F0471E4690460D460446C1F30747CB
:102FE000DDF8209008E0701C06D0FEF7A5FBA0EBF2
:102FF0000900B0420FD876B12068012F18D080693F
:1030000025EA00000004000C14D000214145EAD05C
:103010000020BDE8F087002044F8300F20216173C4
:10302000A073216941F02001216120730120F0E7A4
:103030004069E5E70121E9E72DE9F0479A46914625
:103040000E46044600254FF02008C1F3074725E04F
:1030500020684069C043400514D42068016841F4E9
:103060000071016021686FF480604861256384F815
:103070003D8084F83E50206C40F00400206484F8C9
:103080003C501FE0B9F1FF3F08D0FEF755FBA0EB25
:103090000A0149450CD8B9F1000F09D02068012F69
:1030A00013D0806926EA00000004000C0BD0CFE7A3
:1030B00044F8305F84F80D80A573206940F020004B
:1030C000206125730120BDE8F0874069EAE72DE91A
:1030D000F041002590460E460446202717E040693F
:1030E000C043C0060CD454F8301B6FF01000486188
:1030F00044F810596777A577206A2062257717E092
:10310000FEF71AFBA0EB0800B04208D83EB12068D9
:103110004169C9434906E2D40020BDE8F08144F882
:10312000305F6773A573206940F02000206125732C
:103130000120F2E770B516460D4604460DE0204624
:10314000FFF737FE08B1012070BD681C05D0FEF7FF
:10315000F3FA801BA84207D835B120684069C04304
:103160000006ECD4002070BD002044F8300F202170
:103170006173A073216941F0200121612073E2E7AE
:103180003EB5002410480094019402940D498460D7
:10319000016001250573047505614FF460214460E9
:1031A000C161FEF73DF808B172B6FEE70095CDE9C2
:1031B000015469460448FDF7B1FF002801D072B6FA
:1031C000FEE73EBD002401400C0100202DE9F04146
:1031D00086B00024284800940194029403948169E5
:1031E00041F010018161816901F010010491816950
:1031F00041F020018161816901F020010491816920
:1032000041F004018161816901F004010491816947
:1032100041F0080181618069184F00F008004FF407
:1032200000550490002229463846FEF780FADFF860
:103230005080002204214046FEF779FA0126CDE9AC
:103240000056022569463846CDE90245FEF77AF96F
:103250000420CDE9000669464046CDE90245FEF767
:1032600071F9CDE90054694606480294FEF76AF9FF
:1032700006B0BDE8F08100000010024000100140DF
:1032800000080140000C01400E4810B50C490160D7
:103290004FF48271416000218160C1604FF400727F
:1032A0000161C0E90512C1610162416281620A21C6
:1032B000C162FFF727F9002801D072B6FEE710BD02
:1032C000003800409001002010B586B00024164858
:1032D000009401940294039404944FF08041059467
:1032E00001602F21C0E901144FF6FF71C0E90314FA
:1032F0008461FFF7D1F908B172B6FEE74FF4805050
:10330000009069460848FFF767FA08B172B6FEE711
:10331000049404A904480594FFF78AF9002801D011
:1033200072B6FEE706B010BDE801002010B586B009
:1033300000241748009401940294039404941349C0
:10334000059401602F21C0E901144FF6FF71C0E917
:1033500003148461FFF7A0F908B172B6FEE74FF4D9
:103360008050009069460A48FFF736FA08B172B6F5
:10337000FEE7049404A906480594FFF759F90028CC
:1033800001D072B6FEE706B010BD00000004004098
:10339000300200200F4810B50D4901604FF4E131B3
:1033A0004160002181600C22C160C0E9041281618A
:1033B000C161FFF7EDFB08B172B6FEE700221146CE
:1033C0002520FEF7F7FCBDE810402520FEF7E4BC01
:1033D0000038014078020020FEE7FEE72DE9FC41BD
:1033E000002204210A2002F02EF9414F386001200A
:1033F00002F01EF93F4D2860012002F019F93E4EFF
:103400003060012002F014F93C4CE060012002F031
:103410000FF96061012002F00BF9A060DFF8E08095
:10342000396801B101212A6802B1012211403268D4
:1034300002B101221140E26802B101221140626929
:1034400002B10122114000B1012001424ED02B48AF
:103450000224CDE90040002380222AA12B4802F05B
:103460002DFC401C3AD025480023001DCDE900402A
:10347000802227A1284802F021FC401C30D00021E6
:103480000120CDE900010B46802224A1264802F04C
:1034900015FC401C26D0194800231030CDE900400F
:1034A000802222A1234802F009FC401C1CD022A14A
:1034B000134800F051FA4046FCF7E5FE82B264235F
:1034C00041462648FFF71AFC2548FFF731F9254801
:1034D000FFF72EF9BDE8FC4101F0C0BF22A1E7E7EC
:1034E00027A1E5E72BA1E3E730A1E1E7BDE8FC81F7
:1034F00018000020200000201C00002000000020F8
:10350000D80000204448543131000000810D0008EB
:10351000424D503238300000C10A000844656275DF
:1035200067205461736B00009D4800084750325972
:1035300031303100E10F0008416C6C207461736B15
:10354000732063726561746564207375636365736A
:103550007366756C6C792120200A000078020020C7
:10356000E80100203002002044485431315F5461AA
:10357000736B206661696C656420200A000000009E
:10358000424D50323830206661696C656420200AF3
:10359000000000004465627567205461736B20660B
:1035A00061696C656420200A0000000047503259B0
:1035B000313031206661696C656420200A000000AA
:1035C0001FB5002200910192029203926946FDF715
:1035D000B9FF1FBD1FB5002200910121CDE90112E5
:1035E000022103916946FDF7ADFF1FBD10B55020C4
:1035F00080F31188BFF34F8FBFF36F8F02F0CAFBC8
:1036000018B104494FF080500860002080F3118801
:1036100010BD000004ED00E030B593B028216846ED
:10362000FCF726FE14210AA8FCF722FE0025012043
:103630000F9510951195010412958DE823000490C3
:103640000005CDE90810022407946846FEF7CAFD7C
:1036500008B172B6FEE70AA90F2081E831004FF4E5
:103660008060CDE90D0501210AA8FEF7AFFC08B185
:1036700072B6FEE74FF4804011900F940FA8FEF74A
:103680002FFC002801D072B6FEE713B030BD7047A2
:103690000148FFF70DB90000EC020020F0B5026808
:1036A000164B174C174D4FF08047984205D0B84243
:1036B00003D0A04201D0A84203D122F070064A688C
:1036C0003243984205D0B84203D0A04201D0A8426C
:1036D00003D122F44074CA6822434C6922F080026C
:1036E000224302608A68C2620A688262984201D1FB
:1036F0000969016301214161F0BD0000002C014016
:10370000000400400008004010B5846842EA03222B
:1037100024F47F440A432243826010BD826822F071
:1037200070020A4342F007018160704710B5036AD6
:10373000046A24F001040462846924F0F00444EA79
:10374000021423F00A020A438461026210BD10B51C
:10375000036A23F0100303628369046A23F470434D
:1037600043EA023224F0A00343EA011182610162BC
:1037700010BD10B5406A0021C185C184FFF759F919
:1037800010BD0168CA6822F49072CA6001684A6973
:1037900022F001024A61202180F83A10704710B5EA
:1037A00090F83A10222901D0022010BD82684FF40F
:1037B00080539A4201D1016921B1816A9A421BD09A
:1037C0004AB10AE00268816A5268C2F308020A80BC
:1037D000816A891C08E0026972B10268526802F0CD
:1037E0007F020A70816A491C8162C18D491E0904E9
:1037F000090CC18503D016E002685268F1E7016840
:10380000CA6822F02002CA600168CA6822F4807285
:10381000CA6001684A6922F001024A61202180F8E9
:103820003A10FFF751FA002010BD000070B50446B1
:1038300000680169E26821F4405111430161216986
:10384000A0680843616908432168CA6841F20C63B3
:103850009A430243CA6020684169A26921F4407119
:10386000114341611E492068884202D1FEF774FC71
:1038700001E0FEF761FC00EBC00101EB00126068A3
:1038800064218000B2FBF0F3B3FBF1F36FF0180694
:103890007343B2FBF0F5B2FBF0F605EB8305322380
:1038A00003EB0515B5FBF1F5B6FBF1F605F0F005F8
:1038B00005EB0615B2FBF0F6B2FBF0F0B0FBF1F051
:1038C0006FF01802504306EB800003EB0010B0FBD2
:1038D000F1F0216800F00F002844886070BD0000FE
:1038E000003801402DE9F041984617460E4604463F
:1038F000069D1DE0681C1BD02DB1FDF71DFFA0EB40
:103900000800A84214D92068C16821F4D071C160B0
:103910002068416921F001014161202084F83900CB
:1039200084F83A00002084F838000320BDE8F081D4
:103930002068006836EA000004D00020B842D9D0E0
:103940000020F3E70120F9E70148FFF773B8000012
:1039500078020020FEE700000FB4084B10B504A960
:1039600002AA039800F0DEF8044602A9002000F045
:1039700070FC204610BC5DF814FB000053420008A8
:103980000907090E002804DB00F1E02080F800148C
:10399000704700F00F0000F1E02080F8141D704720
:1039A00002E008C8121F08C1002AFAD17047704708
:1039B000002001E001C1121F002AFBD17047000066
:1039C0002DE9FF5FDDE90220010DDDF838B002438B
:1039D00018D044F61050A1F2FF3141430D140F9856
:1039E000012820D0A5EB0B00401C5FEA000A4FF035
:1039F0000004474EDFF81C91A046504616D5CAF188
:103A0000000728E00F98012443A2012808D00021D4
:103A100000980F9BC0E90021C0E90243BDE8FF9F69
:103A20006FEA0B01F4E7CBF10000DEE7074612E096
:103A3000F80707D02246334640464946FCF74DFD7D
:103A4000804689462246334610461946FCF745FD16
:103A500004460E467F10002FEAD1DDE90201BAF1DB
:103A6000000F42464B4602DAFCF737FD01E0FCF757
:103A7000ECFE04460E460022284BFCF76DFF03D8EF
:103A80004FF0FF30014607E00022254B204631462B
:103A9000FCF77CFCFCF748FF102409E0002C0ADB53
:103AA0000A220023FCF7EBFD019B30321A55641EFD
:103AB00050EA0102F2D1641C019AC4F111031444CA
:103AC0000F9A012A03D0012208430DD10AE00843CE
:103AD00004D000204FF0110B0F9080E7A3EB0B05F3
:103AE0006D1E0DE05B4504DD4FF0000205F10105A0
:103AF00004E003DA4FF00002A5F10105002AECD042
:103B000000980F99C0E90231C0E9004586E700003E
:103B1000000024400000F03F300000000000F043AF
:103B20000000E03F2DE9FF4F95B09B4689460646D1
:103B300000250FE2252877D100242746F84A0121E5
:103B4000059400E0044316F8013F203B01FA03F01E
:103B50001042F7D130782A2811D06FF02F03307837
:103B6000A0F13002092A16D8059A44F0020402EBAB
:103B7000820203EB42021044761C0590EFE759F8ED
:103B8000042B0592002A03DA504244F400540590B5
:103B900044F00204761C30782E2816D116F8010F56
:103BA00044F004042A280DD06FF02F023078A0F1E1
:103BB0003003092B09D807EB870302EB4303C7182F
:103BC000761CF3E759F8047B761C30786C280FD00C
:103BD00006DC4C2817D068280DD06A2814D104E0E0
:103BE000742810D07A280FD10DE044F400140AE0B4
:103BF00044F4801401E044F440147278824202D10B
:103C000004F58014761C761C307866280BD013DC03
:103C1000582877D009DC002875D04528F6D04628EA
:103C2000F4D047281AD19DE118E0632835D06428E4
:103C300079D0652812D195E1702873D008DC672807
:103C4000F1D069286FD06E280DD06F2806D1B5E06D
:103C500073282CD0752875D0782874D05A461799B7
:103C600090476D1C75E1C4F30250022809D0032867
:103C70000DD0D9F8001004280DD00D6009F1040909
:103C800067E1D9F80010EA17C1E90052F6E7D9F860
:103C900000100D80F2E70D70F0E719F8041B8DF8A5
:103CA000001000208DF80100EA46012003E059F8D9
:103CB00004AB4FF0FF3061074FF0000102D40DE07C
:103CC00008F101018846B9420FDA8045F8DB1AF89D
:103CD00008100029F4D108E008F10101884681426A
:103CE000FADB1AF808100029F6D105985B46A0EB1C
:103CF000080721463846179A00F094FA284400EB4A
:103D0000080507E04DE029E10DE01AF8010B5A46DD
:103D100017999047B8F10108F7D25B46214638461B
:103D2000179A13E142E00A220092C4F302524FF0C4
:103D3000000A022A08D059F804CB032A4FEAEC7192
:103D40000AD00DE029E02AE009F1070121F007027D
:103D5000F2E802C1914609E00FFA8CFC4FEAEC71DF
:103D6000042A03D14FFA8CFC4FEAEC71002907DAE0
:103D70000A460021DCF1000C61EB02012D2202E079
:103D8000220504D52B228DF80420012203E0E2074E
:103D900001D02022F7E7904659E00A2102E01022E4
:103DA0000DE010214FF0000A00910BE010224FF0BF
:103DB000000A44F004040827009203E008224FF0B0
:103DC000000A0092C4F30252022A05D059F804CB2B
:103DD0000021032A08D009E009F1070121F00702B8
:103DE000F2E802C1914605E01FFA8CFC042A01D1D9
:103DF0000CF0FF0C4FF00008220728D5702806D0E1
:103E0000009B83F0100353EA0A0305D00EE0402222
:103E10008DF80420012208E05CEA010206D030227D
:103E20008DF804208DF8050002229046009B83F057
:103E3000080353EA0A030AD15CEA010201D16207CE
:103E400005D530228DF804204FF001087F1E582838
:103E500004D034A003900EA802900DE036A0F9E73C
:103E600053466046009AFCF70AFC84460398825C3D
:103E70000298401E029002705CEA0100F0D10298A4
:103E800006A9081A00F1200A600702D524F480343C
:103E900000E00127574502DDA7EB0A0000E0002003
:103EA00000EB0A01009005984144401A0590E00398
:103EB00006D45B462146179A059800F0B3F90544ED
:103EC000002706E001A85A46C05D179990476D1C6F
:103ED0007F1C4745F6DBE0030CD55B462146179A6D
:103EE000059800F09FF9054404E030205A461799E0
:103EF00090476D1C0099481E00900029F5DC08E0F1
:103F0000029802995A460078491C029117999047E5
:103F10006D1CBAF10001AAF1010AF1DC65E10000B3
:103F2000092801003031323334353637383961628F
:103F30006364656600000000303132333435363753
:103F400038394142434445460000000000F058F92A
:103F50000544761C307800287FF4ECAD19B0284673
:103F6000BDE8F08F620700D4062709F1070222F0AE
:103F7000070CFCE80223E14603F000485FEA080C66
:103F800002D00FF2702C0DE05FEA045C02D50FF254
:103F9000682C07E05FEAC47C02D00FF2602C01E0DD
:103FA000AFF2700C4FF0FF3823F00043CDF850C053
:103FB00065280CD006DC452809D046281DD04728A6
:103FC0003DD13DE0662818D067287ED138E0002139
:103FD000112F01DB112000E0781CCDE9000106A9BA
:103FE0000EA8FFF7EDFCDDE90F010E9A0391002109
:103FF000009207F1010A04914DE04FF00040009754
:10400000CDE9011006A90EA8FFF7DAFCDDE90F02E1
:1040100003920E9B11990022DDF80CA000930492EC
:1040200011B9791C00EB010AB7EB0A0004D4C0F106
:10403000FF3007F1010A0490AAEB0700019044E069
:10404000012F00DA01270021112F01DD112000E0EE
:104050003846CDE9000106A90EA8FFF7B1FCDDE95D
:104060000F010E9A0391002104910092BA46210794
:104070000CD40399514500DA8A46BAF1010F05DDE7
:10408000009AAAF10101515C302908D0B84202DA45
:1040900010F1040F06DA0121CDE9011015E0AAF1B3
:1040A0000101E9E7002805DC049901440491AAEB29
:1040B000000102E0411C514500DD8A460499401A86
:1040C000401C01904FF000400290200704D401985A
:1040D000504501DBCDF8048000208DF84F00029898
:1040E0000DF14F07B0F1004F25D02B200E90029814
:1040F0004FF0020800280CDA404202902D200E906A
:1041000007E00A210298FCF7A4FA3031029007F880
:10411000011DB8F10001A8F10108F2DC02980028A5
:10412000EFD1791E0E980870307800F0200040F032
:10413000450007F8020D12A8C01B00F107081498EB
:10414000007800B1012000EB0A01019801EBE07159
:1041500005984144401A401E0590E00306D45B4692
:104160002146179A059800F05DF8054414980078E8
:1041700018B15A46179990476D1CE00324D55B4649
:104180002146179A059800F04DF805441CE0049864
:10419000002807DBDDE90301884203DD0098405C6D
:1041A000179901E0179930205A469047049805F175
:1041B0000105401C04900198401E019004D12E205E
:1041C0005A46179990476D1CBAF10001AAF1010AED
:1041D000DDDC05E017F8010B5A46179990476D1C76
:1041E000B8F10001A8F10108F4DC5B462146179AFA
:1041F0000598ABE62D0000002B0000002000000019
:104200002DE9F041044600251E461746880404D4D3
:1042100005E039462020B0476D1C641EF9D52846BC
:10422000BDE8F0812DE9F041044600251E46904688
:10423000C80301D5302700E02027880404D505E015
:1042400041463846B0476D1C641EF9D52846BDE886
:10425000F0810A68531C0B6010707047F8B5054672
:10426000808C0C46762801D0772857D1012305F1A0
:104270003202D021284600F0A5FEE8BB95F83200B6
:10428000582801D0602849D1B622E021284601F003
:1042900063F988BB01236A46F321284600F092FEA9
:1042A0009DF8001001F001010843F3D1284600F009
:1042B00031FE002833D095F83200602804D128461A
:1042C00000F095FE00282AD060796178400140EA2C
:1042D0008100C2B2F521284601F03EF960B920788C
:1042E000012801D100202070E078A178400140EA47
:1042F00081002178084300E010E0C6B295F8320052
:10430000602805D12279F221284601F025F928B943
:104310003246F421284601F01FF908B10020F8BD0B
:104320000120F8BD03210170002242708170C1702C
:104330000171417170472DE9FC41044690F832004B
:1043400090460F461E46602804D00EB1002018602B
:10435000002602E00EB1082300E006236A46F7219A
:10436000204600F02FFE10B10020BDE8FC819DF832
:1043700000009DF8042001039DF80100238841EA14
:1043800000119DF80200B4F9025041EA10119DF8A5
:104390000300000340EA02109DF8052040EA1210D5
:1043A000C210A2EB4302C3EB20104043B4F9043027
:1043B0006A430013D212584302EBA03505EB850087
:1043C0008030001238602A46204600F065F8C8F8B0
:1043D0000000AEB3BDF80600E18B40BA8003A0EB4D
:1043E0000150A5F59635B4F92010227F01FB150088
:1043F00094F922106A4369434FF40043891203EB96
:10440000E22251439A0102EBA121B4F91A2000F5EE
:104410008040514301F50051C01389134843C11333
:104420004943227EC9115143B0EB211001D5002030
:1044300004E04FF0C851884200DD084600133060A8
:10444000012092E7FEB51C0015460E4601D002ABD6
:1044500000E0002301AA6946FFF76DFF002818D08D
:104460000098FCF7ACF80B49FBF746FF3060019869
:10447000FCF7AEF86FF00701FBF77CFF28603CB15A
:104480000298FCF7A5F86FF00901FBF773FF2060B5
:104490000120FEBD0000C8422DE9F05F04468B46B6
:1044A0005349D0175118A1FB0123B4F9106040F112
:1044B000FF30A2FB069C00FB013301FB0033F71722
:1044C00003FB06C602FB0768B4F90E504FF0000A62
:1044D000A5FB017CEE1706FB01C605FB00656E041B
:1044E00046EAD7367F0417EB090546EB0806B4F910
:1044F0000C701AEB050546EBC709B4F90A60A2FB7C
:1045000006C803FB06834FEAE67702FB0732B4F9DD
:1045100008604FEA1C23A6FB01C84FEAE67707FBB9
:10452000018106FB00104FEA003143EA02634FEAC3
:104530000C3041EA1C51181841EB2222001C42F5B4
:104540000043E288A0FB027603FB026200FB0A2024
:104550004210C31752EA030047D0CBF58010C117B1
:10456000C907C607751B41EA500140F63546A5FB51
:10457000060C61EB090101FB06C1002705FB0711D1
:10458000FBF71CFEB4F91630420B42EAC142A3FB12
:10459000027CDD1705FB02C54E1303FB0653A7FB88
:1045A000025C03FB02C207FB06226B0E43EAC21346
:1045B0005616B4F91420A2FB007CD51705FB00C5E4
:1045C00002FB0155FA0CC01842EA453271418018CD
:1045D00041EBE5414FEA102040EA0160B4F91210C6
:1045E0004FEA01114018BDE8F09F0020FBE70000F2
:1045F000000CFEFFFDF760FBFFF70EF81B4801689B
:104600001B4841608160FEF7E1FDFEF7B9FD1A48E5
:1046100018494FF4804201601849416000218160CF
:10462000C0E9031241618161C1610162FDF78AF84D
:1046300008B172B6FEE7FEF727FEFEF7ABFEFEF707
:1046400043FEFEF773FE012209490D48FEF712FBF7
:1046500009483038FCF7B4FC00B1FEE7FCF714FA67
:1046600000B1FEE7FEF7BAFEFEE700003C000020C6
:1046700024000020005400403C010020A0860100DE
:10468000780200202DE9F041134C0F46054666697B
:104690002068001D00F003FD681C07D137B12168B8
:1046A000BDE8F0410D48091D00F048BD20683544C3
:1046B000B5424560216805D2A068BDE8F041091DFA
:1046C00000F024BD6068091D00F020FD206B8542CC
:1046D00000D22563BDE8F08164000020240800209A
:1046E0002DE9F041054600F035FD2D4C2069401CB8
:1046F000206120682B4F10B1E06930B32BE02560BA
:104700002069012827D1002606EB860007EB8000F0
:1047100000F0EEFC761C382EF6D3234800F0E8FCBF
:104720002148143000F0E4FC1F48283000F0E0FC81
:104730001D483C3000F0DCFC1B48503000F0D8FC39
:10474000194860601430A06005E02068E96AC06A1A
:10475000884200D82560E06A401CE0626864E86A2C
:10476000A169884200D9A06100EB800007EB8000BE
:10477000291D00F0E3FC00F00DFDE06900280CD0DD
:104780002068E96AC06A884207D208494FF0805021
:104790000860BFF34F8FBFF36F8FBDE8F08100005B
:1047A0006400002074030020D407002004ED00E022
:1047B00038B500F0CFFC104CA068C8B90F4800F025
:1047C00097FC0E48143000F093FC0C482060143025
:1047D00060600A4B00202833009003F15002102142
:1047E0000A2000F054FFA06010B105A100F050FDB8
:1047F000BDE8384000F0CEBCA00000203808002002
:10480000546D72510000000030B4026C0B46002A57
:104810000BD0C1681144C1604468A14201D3016852
:10482000C16030BC1846FBF70ABD30BC70472DE9AB
:10483000F041856B174604460026026C82B1C7B171
:10484000E068FBF7FCFCE168206C091AE160226873
:10485000914202D26168081AE060022F16D017E078
:104860002068A8B9606801F0F9FA06460020606087
:104870000EE0A068FBF7E3FC216CA0680844A06090
:104880006168884204D32068A06001E005B16D1E14
:104890006D1CA5633046BDE8F081000008B5064CEC
:1048A00000226946206801F077F80128F8D10098C5
:1048B000FCF714FBF4E700001800002010B50446D4
:1048C00090F8590058B101280CD002280FD0502080
:1048D00080F31188BFF34F8FBFF36F8FFEE7206B1C
:1048E00000F06CFC2046BDE8104000F067BC10BD35
:1048F00010484FF4FD51420706D0C01D0D4920F06D
:104900000700411AC1F5FD510B4A00230144C2E9D9
:1049100000030839103A21F0070111604B600B6069
:104920000B1AC0E9001393604FF000405360D06051
:104930007047000008100020C4000020144E154CE1
:10494000A6F29C474FF08058DFF84C9012E000BF71
:1049500000F000FCF068C568281D00F0A0FB20698D
:10496000401E2061E068401EE06000F013FC284615
:10497000FFF7A4FFE0680028EAD138680128F9D9D8
:10498000C9F80080BFF34F8FBFF36F8FF2E70000CD
:10499000100800206400002004ED00E0002807D08B
:1049A0000021416001600B460A46C16000F0E6BE8E
:1049B0007047000070B51D46049C51B1C4F800203A
:1049C000C4E90F010121204600F094FE84F84C5008
:1049D00070BD2460F4E72DE9F0470E46DDE9098457
:1049E0001746824691009946089DA522206BFBF749
:1049F00038FC6FF00301206B01EB8701084420F0C5
:104A00000707780707D0502080F31188BFF34F8F36
:104A1000BFF36F8FFEE72218315C82F83410315CEF
:104A200011B1401C1028F6D3002684F84360382DBD
:104A300000D33725E562C4E91356201D00F063FB5F
:104A400004F1180000F05FFB2461C5F138006462D6
:104A5000A061666584F858604A465146384600F0C1
:104A600047FA2060B8F1000F01D0C8F80040BDE857
:104A7000F087000030B5114900E011460A68824213
:104A8000FBD34B685C18844203D1406818444860EB
:104A9000084643681C18944209D1084C103C24680D
:104AA000A24209D052681A4442600A681268026041
:104AB000814200D0086030BD0460F9E7C4000020E6
:104AC00070B5002441600B4D0061914206D8D11AA7
:104AD0008269914206D2011D686807E09A4203D2BA
:104AE000994201D3012403E0011D286800F00EFB68
:104AF000204670BDA000002010B5044600F02AFB3F
:104B0000A06B28B15FF0000400F044FB204610BD0C
:104B10000124F9E730B589B0304D55E004980028FC
:104B200006DADDE90601059A9047049800284BDB78
:104B3000069C606910B1201D00F0B1FA02A800F0D7
:104B4000B9F8024604980A283ED2DFE800F00505CD
:104B5000053D263705053D260598A1690346014414
:104B60002046FFF7ADFF00B3616A20468847E06941
:104B7000012829D1002000900598A169002342183E
:104B80001946204601F0B0FA78B9502080F3118818
:104B9000BFF34F8FBFF36F8FFEE70598A06128B179
:104BA000811813462046FFF78BFF0DE0502080F35D
:104BB0001188BFF34F8FBFF36F8FFEE794F82C007F
:104BC00010B9204600F0FAFA002204A9A86800F003
:104BD000E3FE0028A2D109B030BD0000A0000020F3
:104BE0002DE9FC410F46054600F07CFC01A800F0D1
:104BF00061F80446019818B101F0E4F9BDE8FC81C0
:104C0000224EAFB170680068A8B30027291B3A464E
:104C1000B06800F051FB01F0D5F90028EED11C4935
:104C20004FF080500860BFF34F8FBFF36F8FE5E701
:104C3000A542EBD801F0C6F930682746C068C468C1
:104C4000201D00F02CFAE069012810D1A0692B4644
:104C500041193A462046FFF733FF40B10020034692
:104C6000014600902A46204601F03EFA20B1616AD2
:104C700020468847C2E707E0502080F31188BFF341
:104C80004F8FBFF36F8FFEE70127BFE7A000002023
:104C900004ED00E006484168096829B14168C96827
:104CA000C9684968016370474FF0FF31FAE70000B7
:104CB0006400002070B5054601F066F8064E044613
:104CC0003069844203D200F009F8012000E000209E
:104CD00028602046346170BDA0000020F8B5194D51
:104CE0001FE0C068C4680668201D00F0D8F9616A3A
:104CF00020468847E069012813D1A0693044B042BA
:104D000006D924616060211D286800F0FFF908E0E1
:104D100000200346014600903246204601F0E4F9A7
:104D200038B1286801680029DBD16968C5E900103D
:104D3000F8BD502080F31188BFF34F8FBFF36F8F02
:104D4000FEE70000A000002008484068401C4FF02B
:104D5000500080F3118804D0BFF34F8FBFF36F8FE3
:104D6000FEE7BFF34F8FBFF36F8FFEE7CC0000204D
:104D7000074C2068016841B1C0680021D0F80000EC
:104D8000FFF72EFFFFF7C6FEF3E701210020F7E74C
:104D9000A00000202DE9F041044600F0DBF994F971
:104DA000455004F1240609E0606A48B1304601F03C
:104DB000D1F808B100F0D0FA6D1E6DB2002DF3DC11
:104DC0004FF0FF3684F8456000F0E4F900F0C2F9D6
:104DD00094F9445004F1100709E0206948B13846BD
:104DE00001F0B8F808B100F0B7FA6D1E6DB2002DF1
:104DF000F3DC84F84460BDE8F04100F0CBB900007A
:104E00002DE9F0410546002700F06CFB314E30687B
:104E100008B9FFF76DFDF06805424BD1C5B3083501
:104E200068070ED005F00700C0F1080005446807C8
:104E300007D0502080F31188BFF34F8FBFF36F8FDF
:104E4000FEE72DB37068854234D822481030014601
:104E50000C6801E020460C466168A94202D2216834
:104E60000029F7D131688C4224D00768216801609D
:104E700060680837411B10290FD96019420708D014
:104E8000502080F31188BFF34F8FBFF36F8FFEE781
:104E900010E041606560FFF7EDFD61687068401AE1
:104EA0007060B268904200D2B060F06801430020A8
:104EB000C4E9000101F086F8780707D0502080F39C
:104EC0001188BFF34F8FBFF36F8FFEE73846BDE801
:104ED000F0810000B40000200449086818B1086897
:104EE000026D521C026508687047000064000020D3
:104EF00010B5031F4FF080741C601B1F21F00101CF
:104F00001960191F024B0B60143940380A6010BD3C
:104F1000494D000810B504460246882100F0A3F868
:104F200000284DD0A21C8A21204600F09CF8E8B34E
:104F3000221D8C21204600F096F8B8B3A21D8E21C8
:104F4000204600F090F888B304F108029021204632
:104F500000F089F850B304F10A029221204600F0D3
:104F600082F818B304F10C029421204600F07BF87B
:104F7000E0B104F10E029621204600F074F8A8B1C9
:104F800004F110029821204600F06DF870B104F190
:104F900012029A21204600F066F838B104F114029A
:104FA0009C21204600F05FF800B100E008E004F129
:104FB00016029E21204600F056F808B1012010BDCF
:104FC000002010BD3EB514460A46818C4FF6FF7591
:104FD000CDE9004305EA410141F288350295806A36
:104FE0000123FCF773FC002800D001203EBD1CB556
:104FF0000446012300F11802A121FFF7E3FF10BBD3
:1050000004F11A02E121204600F02DF8D8B1012365
:1050100004F11C02E3212046FFF7D4FF98B96A4649
:10502000E421204600F01FF868B101AAE5212046DE
:1050300000F019F838B1012304F12202E7212046DB
:10504000FFF7C0FF08B100201CBDBDF80000C1B2D1
:10505000C0F3032040EA0110E083BDF8040000091A
:10506000208401201CBD7FB51446828C4FF6FF734F
:1050700003EA420541F28836022303AA8DE84C0078
:105080000A46806A01232946FCF720FC10B1002063
:1050900004B070BDBDF80C0020800120F8E7D0E915
:1050A000013201699A60D0E901235A604A6882425C
:1050B00001D182684A60002202610868401E0860CF
:1050C00008687047034B036003F15C0008608020B0
:1050D0001060704750090020044B036003F15C002E
:1050E00008604FF48070106070470000AC0B002027
:1050F00000F108014FF0FF32C0E90112C160016107
:1051000000210160704700210161704730B50B68D4
:105110005A1C02D000F1080202E0026904E02246B3
:10512000546825689D42FAD953684B6099608A603B
:10513000516008610168491C016030BD42684A60E5
:1051400093688B6093685960916008610168491C9D
:1051500001607047502080F31188BFF34F8FBFF379
:105160006F8F0A494868401C486001280CD10848E4
:10517000006810F0FF0F07D0502080F31188BFF3B4
:105180004F8FBFF36F8FFEE770470000CC00002009
:1051900004ED00E00849486828B1401E486001D18C
:1051A00080F311887047502080F31188BFF34F8F30
:1051B000BFF36F8FFEE70000CC00002070B5002821
:1051C00027D0144DA0F108046168E868014207D1B6
:1051D000502080F31188BFF34F8FBFF36F8FFEE72E
:1051E00022683AB1502080F31188BFF34F8FBFF38C
:1051F0006F8FFEE78143616000F074F96068696851
:10520000084468602046FFF735FCBDE8704000F0B8
:10521000D9BE70BDB40000204FF0E0200021016134
:10522000816105494FF47A720968B1FBF2F1491EB8
:1052300041610721016170473C00002010B5FAF779
:10524000A7FF114910280ED300F1E02090F8F003D9
:105250000A78904207D2502080F31188BFF34F8F15
:10526000BFF36F8FFEE709480068896800F4E060CB
:10527000884207D9502080F31188BFF34F8FBFF3C6
:105280006F8FFEE710BD0000CC0000200CED00E0A9
:1052900010B5084B002200BF53F832401CB1521C1D
:1052A000082AF9D310BD43F8321003EBC20148605D
:1052B00010BD00003403002070B515460E460446AC
:1052C000FFF748FF94F944100020491C01D184F8ED
:1052D000440094F94510491C01D184F84500FFF7BA
:1052E00059FFA06B28B92A46314604F1240000F08A
:1052F00051F82046BDE87040FFF74CBD10B50200E4
:1053000014D00F48806B38B1502080F31188BFF360
:105310004F8FBFF36F8FFEE700F0E4F800211046D7
:10532000FFF7B0F900F04EFE002807D105494FF015
:1053300080500860BFF34F8FBFF36F8F10BD000028
:105340006400002004ED00E002498A6A02604969B5
:1053500041607047640000200149012048627047A5
:105360006400002010B50C4650B109490968183195
:10537000FFF7CCFE2046BDE810400121FFF782B9BF
:10538000502080F31188BFF34F8FBFF36F8FFEE77C
:105390006400002070B514460D4668B10A490968DA
:1053A0001831FFF7CBFE0CB14FF0FF3521462846F0
:1053B000BDE87040FFF766B9502080F31188BFF355
:1053C0004F8FBFF36F8FFEE76400002070B50400BD
:1053D0003ED0226DA2B1E06C884200D30146E06A63
:1053E000884235D0012A33D11A4D2A6894420FD110
:1053F000502080F31188BFF34F8FBFF36F8FFEE70C
:10540000502080F31188BFF34F8FBFF36F8FFEE7FB
:10541000E162A269002A02DBC1F13801A1610E4EEE
:1054200000EB8000616906EB8000814210D1201DF5
:10543000FFF735FEE06AA969884200D9A86100EB50
:10544000800006EB8000211DBDE87040FFF776BEAE
:1054500070BD0000640000207403002030B587B0E8
:105460000024039405AA04A903A80494FFF72AFEC4
:10547000DDE903010094CDE90110002315A11748CF
:10548000059A00F048FC164D002868631FD000F014
:10549000FBFD012809D0401C19D1502080F3118850
:1054A000BFF34F8FBFF36F8FFEE7502080F311885B
:1054B000BFF34F8FBFF36F8F4FF0FF302863012092
:1054C000E8616C6107B0BDE8304000F05DB807B03E
:1054D00030BD000049444C45000000003D49000833
:1054E000640000200248816B491C81637047000002
:1054F00064000020164810B5816B11B10121416292
:1055000010BD002141628169124A01E0B9B1491E12
:1055100001EB810352F82330002BF7D001EB81031C
:1055200002EB830202F1080453685B685360A342F4
:1055300001D15B685360DA680260816110BD502060
:1055400080F31188BFF34F8FBFF36F8FFEE700002A
:10555000640000207403002037B5828C4FF6FF737F
:1055600003EA420484B042F21075012306AA8DE8D2
:105570002C000A46806A2146FCF7D0FA002800D0A9
:10558000012007B030BD00001CB526490878019005
:10559000FF20087008788DF800009DF800009DF845
:1055A000002000F0F000904207D0502080F31188D6
:1055B000BFF34F8FBFF36F8FFEE79DF800001A4BCC
:1055C00000F0500018700720986005E09DF800205A
:1055D00052008DF80020401E9DF800201206F5D4E0
:1055E0009860032807D0502080F31188BFF34F8FB5
:1055F000BFF36F8FFEE74FF440709860019808701A
:105600000A48016841F470010160016841F070418D
:105610000160FFF701FE00205860FAF783FD0020CB
:105620001CBD000000E400E0CC00002020ED00E004
:1056300010B502460021012000F005F80446FFF7EE
:10564000ADF9204610BDF8B517460E46050014D03A
:10565000DEB105FB06F05030FFF7D2FB04000AD0A4
:10566000002084F8460004F150023B4631462846AB
:105670000094FFF79FF92046F8BD502080F3118871
:10568000BFF34F8FBFF36F8FFEE70020E3E738B51E
:10569000049D18B153B1CAB181B120E0502080F30C
:1056A0001188BFF34F8FBFF36F8FFEE7502080F359
:1056B0001188BFF34F8FBFF36F8FFEE7502080F349
:1056C0001188BFF34F8FBFF36F8FFEE739B15020C2
:1056D00080F31188BFF34F8FBFF36F8FFEE7502425
:1056E0001C46012384F846302B460094FFF762F9EC
:1056F000204638BD70B50D46040025D0FFF72AFDC1
:10570000D4E90F20216802FB001161600021A16330
:105710002168A1600A46D4E90F01401E00FB012167
:10572000E16021464FF0FF3001F8440F487004F16A
:1057300010008DB1FFF7DCFC04F12400FFF7D8FC6A
:10574000FFF728FD012070BD502080F31188BFF3C2
:105750004F8FBFF36F8FFEE721690029F0D000F073
:10576000F9FB0028ECD004494FF080500860BFF3EB
:105770004F8FBFF36F8FE3E704ED00E02DE9FF47A4
:1057800082B01D468A464FF00008040003D0BAF1EB
:10579000000F08D011E0502080F31188BFF34F8F25
:1057A000BFF36F8FFEE7206C38B1502080F3118873
:1057B000BFF34F8FBFF36F8FFEE7022D0AD1E06B6F
:1057C000012807D0502080F31188BFF34F8FBFF31B
:1057D0006F8FFEE700F0CAFA3F4F4FF000094FF01D
:1057E000805648B9049838B1502080F31188BFF32F
:1057F0004F8FBFF36F8FFEE7FFF7ACFCA06BE16B41
:10580000884207D3022D05D00498D0B1B8F1000F1B
:105810001AD01EE02A4651462046FFF708F8616A72
:1058200019B104F1240000F095FB20B13E60BFF3F4
:105830004F8FBFF36F8FFFF7ADFC012006B0BDE8BF
:10584000F087FFF7A7FC22E06846FFF77DFD4FF0E9
:105850000108FFF79FFCFFF745FEFFF77BFC94F97B
:105860004400401C01D184F8449094F94500401C48
:1058700001D184F84590FFF78DFC04A9684600F03B
:10588000E3F930B12046FFF785FA00F09BFB0020DA
:10589000D4E7FFF75FFCA06BE16B884213D1FFF701
:1058A00079FC04F110000499FFF75CFD2046FFF736
:1058B00071FA00F087FB00289ED13E60BFF34F8F46
:1058C000BFF36F8F98E7FFF765FC2046FFF762FA9A
:1058D00000F078FB90E7000004ED00E02DE9F047D0
:1058E0001F4690468946040003D0B9F1000F08D046
:1058F00011E0502080F31188BFF34F8FBFF36F8FFB
:10590000FEE7206C38B1502080F31188BFF34F8F31
:10591000BFF36F8FFEE7022F0AD1E06B012807D09B
:10592000502080F31188BFF34F8FBFF36F8FFEE7D6
:10593000FFF784FC5020EFF3118680F31188BFF34A
:105940004F8FBFF36F8FA06BE16B884206D3022F9E
:1059500004D0002086F31188BDE8F08794F9455003
:105960003A4649462046FEF762FF681C04D06D1C8B
:1059700084F845500120EDE7606A0028FAD004F170
:10598000240000F0E7FA0028F4D0B8F1000FF1D0BD
:105990000121C8F80010EDE72DE9F747002683B094
:1059A0008A46040003D0BAF1000F08D011E050205D
:1059B00080F31188BFF34F8FBFF36F8FFEE7206C2A
:1059C00038B1502080F31188BFF34F8FBFF36F8F32
:1059D000FEE700F0CBF9DFF8F4804FF000094FF05C
:1059E000805748B9059838B1502080F31188BFF32B
:1059F0004F8FBFF36F8FFEE7FFF7ACFBA56BC5B111
:105A000051462046FEF700FF6D1EA563206950B188
:105A100004F1100000F09EFA28B1C8F80070BFF33E
:105A20004F8FBFF36F8FFFF7B5FB012006B0BDE8C6
:105A3000F087059808B11EB106E0FFF7ABFB27E041
:105A40006846FFF781FC0126FFF7A4FBFFF74AFD3C
:105A5000FFF780FB94F94400401C01D184F8449086
:105A600094F94500401C01D184F84590FFF792FB62
:105A700005A9684600F0E8F8002820460AD0FFF79C
:105A800089F900F09FFA2046FFF736F80028B3D0D6
:105A90000020CBE7FFF730F890B104F1240005991E
:105AA000FFF760FC2046FFF775F900F08BFA00283D
:105AB000A2D1C8F80070BFF34F8FBFF36F8F9BE781
:105AC0002046FFF767F900F07DFA95E704ED00E066
:105AD0002DE9F343002683B00400354609D0206C3D
